{
	"04-Camps/08-UpChain_Camp_3_OpenSpace/0112_ERC20TokenBank/contracts/TokenBank.sol": {
		"TokenBank": {
			"abi": [
				{
					"inputs": [
						{
							"internalType": "address",
							"name": "_tokenAddr",
							"type": "address"
						}
					],
					"stateMutability": "nonpayable",
					"type": "constructor"
				},
				{
					"inputs": [
						{
							"internalType": "uint256",
							"name": "transferredAmount",
							"type": "uint256"
						},
						{
							"internalType": "uint256",
							"name": "tokenBalance",
							"type": "uint256"
						}
					],
					"name": "TokenTransferFail",
					"type": "error"
				},
				{
					"inputs": [],
					"name": "IGTT",
					"outputs": [
						{
							"internalType": "contract IERC20TokenGTT",
							"name": "",
							"type": "address"
						}
					],
					"stateMutability": "view",
					"type": "function"
				},
				{
					"inputs": [],
					"name": "depositETH",
					"outputs": [],
					"stateMutability": "payable",
					"type": "function"
				},
				{
					"inputs": [
						{
							"internalType": "uint256",
							"name": "_tokenAmount",
							"type": "uint256"
						}
					],
					"name": "depositToken",
					"outputs": [],
					"stateMutability": "nonpayable",
					"type": "function"
				},
				{
					"inputs": [
						{
							"internalType": "address",
							"name": "_account",
							"type": "address"
						}
					],
					"name": "getETHBalance",
					"outputs": [
						{
							"internalType": "uint256",
							"name": "",
							"type": "uint256"
						}
					],
					"stateMutability": "view",
					"type": "function"
				},
				{
					"inputs": [],
					"name": "getETHTopThreeAccount",
					"outputs": [
						{
							"internalType": "address",
							"name": "",
							"type": "address"
						},
						{
							"internalType": "address",
							"name": "",
							"type": "address"
						},
						{
							"internalType": "address",
							"name": "",
							"type": "address"
						}
					],
					"stateMutability": "view",
					"type": "function"
				},
				{
					"inputs": [
						{
							"internalType": "address",
							"name": "_account",
							"type": "address"
						}
					],
					"name": "getTokenBalance",
					"outputs": [
						{
							"internalType": "uint256",
							"name": "",
							"type": "uint256"
						}
					],
					"stateMutability": "view",
					"type": "function"
				},
				{
					"inputs": [],
					"name": "getTokenTopThreeAccount",
					"outputs": [
						{
							"internalType": "address",
							"name": "",
							"type": "address"
						},
						{
							"internalType": "address",
							"name": "",
							"type": "address"
						},
						{
							"internalType": "address",
							"name": "",
							"type": "address"
						}
					],
					"stateMutability": "view",
					"type": "function"
				},
				{
					"inputs": [],
					"name": "owner",
					"outputs": [
						{
							"internalType": "address",
							"name": "",
							"type": "address"
						}
					],
					"stateMutability": "view",
					"type": "function"
				},
				{
					"inputs": [],
					"name": "tokenAddr",
					"outputs": [
						{
							"internalType": "address",
							"name": "",
							"type": "address"
						}
					],
					"stateMutability": "view",
					"type": "function"
				},
				{
					"inputs": [],
					"name": "withdrawETH",
					"outputs": [],
					"stateMutability": "nonpayable",
					"type": "function"
				},
				{
					"inputs": [],
					"name": "withdrawToken",
					"outputs": [],
					"stateMutability": "nonpayable",
					"type": "function"
				},
				{
					"stateMutability": "payable",
					"type": "receive"
				}
			],
			"devdoc": {
				"kind": "dev",
				"methods": {},
				"version": 1
			},
			"evm": {
				"assembly": "    /* \"04-Camps/08-UpChain_Camp_3_OpenSpace/0112_ERC20TokenBank/contracts/TokenBank.sol\":319:3871  contract TokenBank is Bank {... */\n  mstore(0x40, 0x80)\n    /* \"04-Camps/08-UpChain_Camp_3_OpenSpace/0112_ERC20TokenBank/contracts/TokenBank.sol\":574:715  constructor(address _tokenAddr) {... */\n  callvalue\n  dup1\n  iszero\n  tag_1\n  jumpi\n  0x00\n  dup1\n  revert\ntag_1:\n  pop\n  mload(0x40)\n  sub(codesize, bytecodeSize)\n  dup1\n  bytecodeSize\n  dup4\n  codecopy\n  dup2\n  dup2\n  add\n  0x40\n  mstore\n  dup2\n  add\n  swap1\n  tag_2\n  swap2\n  swap1\n  tag_3\n  jump\t// in\ntag_2:\n    /* \"04-Camps/08-UpChain_Camp_3_OpenSpace/0112_ERC20TokenBank/contracts/Bank.sol\":424:434  msg.sender */\n  caller\n    /* \"04-Camps/08-UpChain_Camp_3_OpenSpace/0112_ERC20TokenBank/contracts/Bank.sol\":416:421  owner */\n  0x04\n  0x00\n    /* \"04-Camps/08-UpChain_Camp_3_OpenSpace/0112_ERC20TokenBank/contracts/Bank.sol\":416:434  owner = msg.sender */\n  0x0100\n  exp\n  dup2\n  sload\n  dup2\n  0xffffffffffffffffffffffffffffffffffffffff\n  mul\n  not\n  and\n  swap1\n  dup4\n  0xffffffffffffffffffffffffffffffffffffffff\n  and\n  mul\n  or\n  swap1\n  sstore\n  pop\n    /* \"04-Camps/08-UpChain_Camp_3_OpenSpace/0112_ERC20TokenBank/contracts/TokenBank.sol\":628:638  _tokenAddr */\n  dup1\n    /* \"04-Camps/08-UpChain_Camp_3_OpenSpace/0112_ERC20TokenBank/contracts/TokenBank.sol\":616:625  tokenAddr */\n  0x09\n  0x00\n    /* \"04-Camps/08-UpChain_Camp_3_OpenSpace/0112_ERC20TokenBank/contracts/TokenBank.sol\":616:638  tokenAddr = _tokenAddr */\n  0x0100\n  exp\n  dup2\n  sload\n  dup2\n  0xffffffffffffffffffffffffffffffffffffffff\n  mul\n  not\n  and\n  swap1\n  dup4\n  0xffffffffffffffffffffffffffffffffffffffff\n  and\n  mul\n  or\n  swap1\n  sstore\n  pop\n    /* \"04-Camps/08-UpChain_Camp_3_OpenSpace/0112_ERC20TokenBank/contracts/TokenBank.sol\":656:666  msg.sender */\n  caller\n    /* \"04-Camps/08-UpChain_Camp_3_OpenSpace/0112_ERC20TokenBank/contracts/TokenBank.sol\":648:653  owner */\n  0x04\n  0x00\n    /* \"04-Camps/08-UpChain_Camp_3_OpenSpace/0112_ERC20TokenBank/contracts/TokenBank.sol\":648:666  owner = msg.sender */\n  0x0100\n  exp\n  dup2\n  sload\n  dup2\n  0xffffffffffffffffffffffffffffffffffffffff\n  mul\n  not\n  and\n  swap1\n  dup4\n  0xffffffffffffffffffffffffffffffffffffffff\n  and\n  mul\n  or\n  swap1\n  sstore\n  pop\n    /* \"04-Camps/08-UpChain_Camp_3_OpenSpace/0112_ERC20TokenBank/contracts/TokenBank.sol\":698:707  tokenAddr */\n  0x09\n  0x00\n  swap1\n  sload\n  swap1\n  0x0100\n  exp\n  swap1\n  div\n  0xffffffffffffffffffffffffffffffffffffffff\n  and\n    /* \"04-Camps/08-UpChain_Camp_3_OpenSpace/0112_ERC20TokenBank/contracts/TokenBank.sol\":676:680  IGTT */\n  0x0a\n  0x00\n    /* \"04-Camps/08-UpChain_Camp_3_OpenSpace/0112_ERC20TokenBank/contracts/TokenBank.sol\":676:708  IGTT = IERC20TokenGTT(tokenAddr) */\n  0x0100\n  exp\n  dup2\n  sload\n  dup2\n  0xffffffffffffffffffffffffffffffffffffffff\n  mul\n  not\n  and\n  swap1\n  dup4\n  0xffffffffffffffffffffffffffffffffffffffff\n  and\n  mul\n  or\n  swap1\n  sstore\n  pop\n    /* \"04-Camps/08-UpChain_Camp_3_OpenSpace/0112_ERC20TokenBank/contracts/TokenBank.sol\":574:715  constructor(address _tokenAddr) {... */\n  pop\n    /* \"04-Camps/08-UpChain_Camp_3_OpenSpace/0112_ERC20TokenBank/contracts/TokenBank.sol\":319:3871  contract TokenBank is Bank {... */\n  jump(tag_8)\n    /* \"#utility.yul\":88:205   */\ntag_10:\n    /* \"#utility.yul\":197:198   */\n  0x00\n    /* \"#utility.yul\":194:195   */\n  dup1\n    /* \"#utility.yul\":187:199   */\n  revert\n    /* \"#utility.yul\":334:460   */\ntag_12:\n    /* \"#utility.yul\":371:378   */\n  0x00\n    /* \"#utility.yul\":411:453   */\n  0xffffffffffffffffffffffffffffffffffffffff\n    /* \"#utility.yul\":404:409   */\n  dup3\n    /* \"#utility.yul\":400:454   */\n  and\n    /* \"#utility.yul\":389:454   */\n  swap1\n  pop\n    /* \"#utility.yul\":334:460   */\n  swap2\n  swap1\n  pop\n  jump\t// out\n    /* \"#utility.yul\":466:562   */\ntag_13:\n    /* \"#utility.yul\":503:510   */\n  0x00\n    /* \"#utility.yul\":532:556   */\n  tag_22\n    /* \"#utility.yul\":550:555   */\n  dup3\n    /* \"#utility.yul\":532:556   */\n  tag_12\n  jump\t// in\ntag_22:\n    /* \"#utility.yul\":521:556   */\n  swap1\n  pop\n    /* \"#utility.yul\":466:562   */\n  swap2\n  swap1\n  pop\n  jump\t// out\n    /* \"#utility.yul\":568:690   */\ntag_14:\n    /* \"#utility.yul\":641:665   */\n  tag_24\n    /* \"#utility.yul\":659:664   */\n  dup2\n    /* \"#utility.yul\":641:665   */\n  tag_13\n  jump\t// in\ntag_24:\n    /* \"#utility.yul\":634:639   */\n  dup2\n    /* \"#utility.yul\":631:666   */\n  eq\n    /* \"#utility.yul\":621:684   */\n  tag_25\n  jumpi\n    /* \"#utility.yul\":680:681   */\n  0x00\n    /* \"#utility.yul\":677:678   */\n  dup1\n    /* \"#utility.yul\":670:682   */\n  revert\n    /* \"#utility.yul\":621:684   */\ntag_25:\n    /* \"#utility.yul\":568:690   */\n  pop\n  jump\t// out\n    /* \"#utility.yul\":696:839   */\ntag_15:\n    /* \"#utility.yul\":753:758   */\n  0x00\n    /* \"#utility.yul\":784:790   */\n  dup2\n    /* \"#utility.yul\":778:791   */\n  mload\n    /* \"#utility.yul\":769:791   */\n  swap1\n  pop\n    /* \"#utility.yul\":800:833   */\n  tag_27\n    /* \"#utility.yul\":827:832   */\n  dup2\n    /* \"#utility.yul\":800:833   */\n  tag_14\n  jump\t// in\ntag_27:\n    /* \"#utility.yul\":696:839   */\n  swap3\n  swap2\n  pop\n  pop\n  jump\t// out\n    /* \"#utility.yul\":845:1196   */\ntag_3:\n    /* \"#utility.yul\":915:921   */\n  0x00\n    /* \"#utility.yul\":964:966   */\n  0x20\n    /* \"#utility.yul\":952:961   */\n  dup3\n    /* \"#utility.yul\":943:950   */\n  dup5\n    /* \"#utility.yul\":939:962   */\n  sub\n    /* \"#utility.yul\":935:967   */\n  slt\n    /* \"#utility.yul\":932:1051   */\n  iszero\n  tag_29\n  jumpi\n    /* \"#utility.yul\":970:1049   */\n  tag_30\n  tag_10\n  jump\t// in\ntag_30:\n    /* \"#utility.yul\":932:1051   */\ntag_29:\n    /* \"#utility.yul\":1090:1091   */\n  0x00\n    /* \"#utility.yul\":1115:1179   */\n  tag_31\n    /* \"#utility.yul\":1171:1178   */\n  dup5\n    /* \"#utility.yul\":1162:1168   */\n  dup3\n    /* \"#utility.yul\":1151:1160   */\n  dup6\n    /* \"#utility.yul\":1147:1169   */\n  add\n    /* \"#utility.yul\":1115:1179   */\n  tag_15\n  jump\t// in\ntag_31:\n    /* \"#utility.yul\":1105:1179   */\n  swap2\n  pop\n    /* \"#utility.yul\":1061:1189   */\n  pop\n    /* \"#utility.yul\":845:1196   */\n  swap3\n  swap2\n  pop\n  pop\n  jump\t// out\n    /* \"04-Camps/08-UpChain_Camp_3_OpenSpace/0112_ERC20TokenBank/contracts/TokenBank.sol\":319:3871  contract TokenBank is Bank {... */\ntag_8:\n  dataSize(sub_0)\n  dup1\n  dataOffset(sub_0)\n  0x00\n  codecopy\n  0x00\n  return\nstop\n\nsub_0: assembly {\n        /* \"04-Camps/08-UpChain_Camp_3_OpenSpace/0112_ERC20TokenBank/contracts/TokenBank.sol\":319:3871  contract TokenBank is Bank {... */\n      mstore(0x40, 0x80)\n      jumpi(tag_1, lt(calldatasize, 0x04))\n      shr(0xe0, calldataload(0x00))\n      dup1\n      0x8da5cb5b\n      gt\n      tag_14\n      jumpi\n      dup1\n      0x8da5cb5b\n      eq\n      tag_8\n      jumpi\n      dup1\n      0xb254b80a\n      eq\n      tag_9\n      jumpi\n      dup1\n      0xca628c78\n      eq\n      tag_10\n      jumpi\n      dup1\n      0xe086e5ec\n      eq\n      tag_11\n      jumpi\n      dup1\n      0xf6326fb3\n      eq\n      tag_12\n      jumpi\n      dup1\n      0xff2c034e\n      eq\n      tag_13\n      jumpi\n      jump(tag_2)\n    tag_14:\n      dup1\n      0x2b7e8faf\n      eq\n      tag_3\n      jumpi\n      dup1\n      0x3aecd0e3\n      eq\n      tag_4\n      jumpi\n      dup1\n      0x3bb66a7b\n      eq\n      tag_5\n      jumpi\n      dup1\n      0x5fbe4d1d\n      eq\n      tag_6\n      jumpi\n      dup1\n      0x6215be77\n      eq\n      tag_7\n      jumpi\n      jump(tag_2)\n    tag_1:\n      jumpi(tag_2, calldatasize)\n        /* \"04-Camps/08-UpChain_Camp_3_OpenSpace/0112_ERC20TokenBank/contracts/Bank.sol\":730:742  depositETH() */\n      tag_17\n        /* \"04-Camps/08-UpChain_Camp_3_OpenSpace/0112_ERC20TokenBank/contracts/Bank.sol\":730:740  depositETH */\n      tag_18\n        /* \"04-Camps/08-UpChain_Camp_3_OpenSpace/0112_ERC20TokenBank/contracts/Bank.sol\":730:742  depositETH() */\n      jump\t// in\n    tag_17:\n        /* \"04-Camps/08-UpChain_Camp_3_OpenSpace/0112_ERC20TokenBank/contracts/TokenBank.sol\":319:3871  contract TokenBank is Bank {... */\n      stop\n    tag_2:\n      0x00\n      dup1\n      revert\n        /* \"04-Camps/08-UpChain_Camp_3_OpenSpace/0112_ERC20TokenBank/contracts/Bank.sol\":990:1150  function getETHTopThreeAccount()... */\n    tag_3:\n      callvalue\n      dup1\n      iszero\n      tag_19\n      jumpi\n      0x00\n      dup1\n      revert\n    tag_19:\n      pop\n      tag_20\n      tag_21\n      jump\t// in\n    tag_20:\n      mload(0x40)\n      tag_22\n      swap4\n      swap3\n      swap2\n      swap1\n      tag_23\n      jump\t// in\n    tag_22:\n      mload(0x40)\n      dup1\n      swap2\n      sub\n      swap1\n      return\n        /* \"04-Camps/08-UpChain_Camp_3_OpenSpace/0112_ERC20TokenBank/contracts/TokenBank.sol\":1234:1350  function getTokenBalance(address _account) public view returns (uint) {... */\n    tag_4:\n      callvalue\n      dup1\n      iszero\n      tag_24\n      jumpi\n      0x00\n      dup1\n      revert\n    tag_24:\n      pop\n      tag_25\n      0x04\n      dup1\n      calldatasize\n      sub\n      dup2\n      add\n      swap1\n      tag_26\n      swap2\n      swap1\n      tag_27\n      jump\t// in\n    tag_26:\n      tag_28\n      jump\t// in\n    tag_25:\n      mload(0x40)\n      tag_29\n      swap2\n      swap1\n      tag_30\n      jump\t// in\n    tag_29:\n      mload(0x40)\n      dup1\n      swap2\n      sub\n      swap1\n      return\n        /* \"04-Camps/08-UpChain_Camp_3_OpenSpace/0112_ERC20TokenBank/contracts/Bank.sol\":864:984  function getETHBalance(address _account) public view virtual returns (uint) {... */\n    tag_5:\n      callvalue\n      dup1\n      iszero\n      tag_31\n      jumpi\n      0x00\n      dup1\n      revert\n    tag_31:\n      pop\n      tag_32\n      0x04\n      dup1\n      calldatasize\n      sub\n      dup2\n      add\n      swap1\n      tag_33\n      swap2\n      swap1\n      tag_27\n      jump\t// in\n    tag_33:\n      tag_34\n      jump\t// in\n    tag_32:\n      mload(0x40)\n      tag_35\n      swap2\n      swap1\n      tag_30\n      jump\t// in\n    tag_35:\n      mload(0x40)\n      dup1\n      swap2\n      sub\n      swap1\n      return\n        /* \"04-Camps/08-UpChain_Camp_3_OpenSpace/0112_ERC20TokenBank/contracts/TokenBank.sol\":439:463  address public tokenAddr */\n    tag_6:\n      callvalue\n      dup1\n      iszero\n      tag_36\n      jumpi\n      0x00\n      dup1\n      revert\n    tag_36:\n      pop\n      tag_37\n      tag_38\n      jump\t// in\n    tag_37:\n      mload(0x40)\n      tag_39\n      swap2\n      swap1\n      tag_40\n      jump\t// in\n    tag_39:\n      mload(0x40)\n      dup1\n      swap2\n      sub\n      swap1\n      return\n        /* \"04-Camps/08-UpChain_Camp_3_OpenSpace/0112_ERC20TokenBank/contracts/TokenBank.sol\":721:1112  function depositToken(uint _tokenAmount) public {... */\n    tag_7:\n      callvalue\n      dup1\n      iszero\n      tag_41\n      jumpi\n      0x00\n      dup1\n      revert\n    tag_41:\n      pop\n      tag_42\n      0x04\n      dup1\n      calldatasize\n      sub\n      dup2\n      add\n      swap1\n      tag_43\n      swap2\n      swap1\n      tag_44\n      jump\t// in\n    tag_43:\n      tag_45\n      jump\t// in\n    tag_42:\n      stop\n        /* \"04-Camps/08-UpChain_Camp_3_OpenSpace/0112_ERC20TokenBank/contracts/Bank.sol\":365:385  address public owner */\n    tag_8:\n      callvalue\n      dup1\n      iszero\n      tag_46\n      jumpi\n      0x00\n      dup1\n      revert\n    tag_46:\n      pop\n      tag_47\n      tag_48\n      jump\t// in\n    tag_47:\n      mload(0x40)\n      tag_49\n      swap2\n      swap1\n      tag_40\n      jump\t// in\n    tag_49:\n      mload(0x40)\n      dup1\n      swap2\n      sub\n      swap1\n      return\n        /* \"04-Camps/08-UpChain_Camp_3_OpenSpace/0112_ERC20TokenBank/contracts/TokenBank.sol\":1356:1533  function getTokenTopThreeAccount()... */\n    tag_9:\n      callvalue\n      dup1\n      iszero\n      tag_50\n      jumpi\n      0x00\n      dup1\n      revert\n    tag_50:\n      pop\n      tag_51\n      tag_52\n      jump\t// in\n    tag_51:\n      mload(0x40)\n      tag_53\n      swap4\n      swap3\n      swap2\n      swap1\n      tag_23\n      jump\t// in\n    tag_53:\n      mload(0x40)\n      dup1\n      swap2\n      sub\n      swap1\n      return\n        /* \"04-Camps/08-UpChain_Camp_3_OpenSpace/0112_ERC20TokenBank/contracts/TokenBank.sol\":1118:1228  function withdrawToken() public onlyOwner {... */\n    tag_10:\n      callvalue\n      dup1\n      iszero\n      tag_54\n      jumpi\n      0x00\n      dup1\n      revert\n    tag_54:\n      pop\n      tag_55\n      tag_56\n      jump\t// in\n    tag_55:\n      stop\n        /* \"04-Camps/08-UpChain_Camp_3_OpenSpace/0112_ERC20TokenBank/contracts/Bank.sol\":755:858  function withdrawETH() public onlyOwner {... */\n    tag_11:\n      callvalue\n      dup1\n      iszero\n      tag_57\n      jumpi\n      0x00\n      dup1\n      revert\n    tag_57:\n      pop\n      tag_58\n      tag_59\n      jump\t// in\n    tag_58:\n      stop\n        /* \"04-Camps/08-UpChain_Camp_3_OpenSpace/0112_ERC20TokenBank/contracts/Bank.sol\":553:679  function depositETH() public payable {... */\n    tag_12:\n      tag_60\n      tag_18\n      jump\t// in\n    tag_60:\n      stop\n        /* \"04-Camps/08-UpChain_Camp_3_OpenSpace/0112_ERC20TokenBank/contracts/TokenBank.sol\":469:495  IERC20TokenGTT public IGTT */\n    tag_13:\n      callvalue\n      dup1\n      iszero\n      tag_61\n      jumpi\n      0x00\n      dup1\n      revert\n    tag_61:\n      pop\n      tag_62\n      tag_63\n      jump\t// in\n    tag_62:\n      mload(0x40)\n      tag_64\n      swap2\n      swap1\n      tag_65\n      jump\t// in\n    tag_64:\n      mload(0x40)\n      dup1\n      swap2\n      sub\n      swap1\n      return\n        /* \"04-Camps/08-UpChain_Camp_3_OpenSpace/0112_ERC20TokenBank/contracts/Bank.sol\":553:679  function depositETH() public payable {... */\n    tag_18:\n        /* \"04-Camps/08-UpChain_Camp_3_OpenSpace/0112_ERC20TokenBank/contracts/Bank.sol\":626:635  msg.value */\n      callvalue\n        /* \"04-Camps/08-UpChain_Camp_3_OpenSpace/0112_ERC20TokenBank/contracts/Bank.sol\":600:610  ETHBalance */\n      0x00\n        /* \"04-Camps/08-UpChain_Camp_3_OpenSpace/0112_ERC20TokenBank/contracts/Bank.sol\":600:622  ETHBalance[msg.sender] */\n      dup1\n        /* \"04-Camps/08-UpChain_Camp_3_OpenSpace/0112_ERC20TokenBank/contracts/Bank.sol\":611:621  msg.sender */\n      caller\n        /* \"04-Camps/08-UpChain_Camp_3_OpenSpace/0112_ERC20TokenBank/contracts/Bank.sol\":600:622  ETHBalance[msg.sender] */\n      0xffffffffffffffffffffffffffffffffffffffff\n      and\n      0xffffffffffffffffffffffffffffffffffffffff\n      and\n      dup2\n      mstore\n      0x20\n      add\n      swap1\n      dup2\n      mstore\n      0x20\n      add\n      0x00\n      keccak256\n      0x00\n        /* \"04-Camps/08-UpChain_Camp_3_OpenSpace/0112_ERC20TokenBank/contracts/Bank.sol\":600:635  ETHBalance[msg.sender] += msg.value */\n      dup3\n      dup3\n      sload\n      tag_67\n      swap2\n      swap1\n      tag_68\n      jump\t// in\n    tag_67:\n      swap3\n      pop\n      pop\n      dup2\n      swap1\n      sstore\n      pop\n        /* \"04-Camps/08-UpChain_Camp_3_OpenSpace/0112_ERC20TokenBank/contracts/Bank.sol\":645:672  _handleRankWhenDepositETH() */\n      tag_69\n        /* \"04-Camps/08-UpChain_Camp_3_OpenSpace/0112_ERC20TokenBank/contracts/Bank.sol\":645:670  _handleRankWhenDepositETH */\n      tag_70\n        /* \"04-Camps/08-UpChain_Camp_3_OpenSpace/0112_ERC20TokenBank/contracts/Bank.sol\":645:672  _handleRankWhenDepositETH() */\n      jump\t// in\n    tag_69:\n        /* \"04-Camps/08-UpChain_Camp_3_OpenSpace/0112_ERC20TokenBank/contracts/Bank.sol\":553:679  function depositETH() public payable {... */\n      jump\t// out\n        /* \"04-Camps/08-UpChain_Camp_3_OpenSpace/0112_ERC20TokenBank/contracts/Bank.sol\":990:1150  function getETHTopThreeAccount()... */\n    tag_21:\n        /* \"04-Camps/08-UpChain_Camp_3_OpenSpace/0112_ERC20TokenBank/contracts/Bank.sol\":1068:1075  address */\n      0x00\n        /* \"04-Camps/08-UpChain_Camp_3_OpenSpace/0112_ERC20TokenBank/contracts/Bank.sol\":1077:1084  address */\n      dup1\n        /* \"04-Camps/08-UpChain_Camp_3_OpenSpace/0112_ERC20TokenBank/contracts/Bank.sol\":1086:1093  address */\n      0x00\n        /* \"04-Camps/08-UpChain_Camp_3_OpenSpace/0112_ERC20TokenBank/contracts/Bank.sol\":1117:1121  rank */\n      0x01\n        /* \"04-Camps/08-UpChain_Camp_3_OpenSpace/0112_ERC20TokenBank/contracts/Bank.sol\":1122:1123  0 */\n      0x00\n        /* \"04-Camps/08-UpChain_Camp_3_OpenSpace/0112_ERC20TokenBank/contracts/Bank.sol\":1117:1124  rank[0] */\n      0x03\n      dup2\n      lt\n      tag_72\n      jumpi\n      tag_73\n      tag_74\n      jump\t// in\n    tag_73:\n    tag_72:\n      add\n      0x00\n      swap1\n      sload\n      swap1\n      0x0100\n      exp\n      swap1\n      div\n      0xffffffffffffffffffffffffffffffffffffffff\n      and\n        /* \"04-Camps/08-UpChain_Camp_3_OpenSpace/0112_ERC20TokenBank/contracts/Bank.sol\":1126:1130  rank */\n      0x01\n        /* \"04-Camps/08-UpChain_Camp_3_OpenSpace/0112_ERC20TokenBank/contracts/Bank.sol\":1131:1132  1 */\n      dup1\n        /* \"04-Camps/08-UpChain_Camp_3_OpenSpace/0112_ERC20TokenBank/contracts/Bank.sol\":1126:1133  rank[1] */\n      0x03\n      dup2\n      lt\n      tag_76\n      jumpi\n      tag_77\n      tag_74\n      jump\t// in\n    tag_77:\n    tag_76:\n      add\n      0x00\n      swap1\n      sload\n      swap1\n      0x0100\n      exp\n      swap1\n      div\n      0xffffffffffffffffffffffffffffffffffffffff\n      and\n        /* \"04-Camps/08-UpChain_Camp_3_OpenSpace/0112_ERC20TokenBank/contracts/Bank.sol\":1135:1139  rank */\n      0x01\n        /* \"04-Camps/08-UpChain_Camp_3_OpenSpace/0112_ERC20TokenBank/contracts/Bank.sol\":1140:1141  2 */\n      0x02\n        /* \"04-Camps/08-UpChain_Camp_3_OpenSpace/0112_ERC20TokenBank/contracts/Bank.sol\":1135:1142  rank[2] */\n      0x03\n      dup2\n      lt\n      tag_79\n      jumpi\n      tag_80\n      tag_74\n      jump\t// in\n    tag_80:\n    tag_79:\n      add\n      0x00\n      swap1\n      sload\n      swap1\n      0x0100\n      exp\n      swap1\n      div\n      0xffffffffffffffffffffffffffffffffffffffff\n      and\n        /* \"04-Camps/08-UpChain_Camp_3_OpenSpace/0112_ERC20TokenBank/contracts/Bank.sol\":1109:1143  return (rank[0], rank[1], rank[2]) */\n      swap3\n      pop\n      swap3\n      pop\n      swap3\n      pop\n        /* \"04-Camps/08-UpChain_Camp_3_OpenSpace/0112_ERC20TokenBank/contracts/Bank.sol\":990:1150  function getETHTopThreeAccount()... */\n      swap1\n      swap2\n      swap3\n      jump\t// out\n        /* \"04-Camps/08-UpChain_Camp_3_OpenSpace/0112_ERC20TokenBank/contracts/TokenBank.sol\":1234:1350  function getTokenBalance(address _account) public view returns (uint) {... */\n    tag_28:\n        /* \"04-Camps/08-UpChain_Camp_3_OpenSpace/0112_ERC20TokenBank/contracts/TokenBank.sol\":1298:1302  uint */\n      0x00\n        /* \"04-Camps/08-UpChain_Camp_3_OpenSpace/0112_ERC20TokenBank/contracts/TokenBank.sol\":1321:1333  tokenBalance */\n      0x05\n        /* \"04-Camps/08-UpChain_Camp_3_OpenSpace/0112_ERC20TokenBank/contracts/TokenBank.sol\":1321:1343  tokenBalance[_account] */\n      0x00\n        /* \"04-Camps/08-UpChain_Camp_3_OpenSpace/0112_ERC20TokenBank/contracts/TokenBank.sol\":1334:1342  _account */\n      dup4\n        /* \"04-Camps/08-UpChain_Camp_3_OpenSpace/0112_ERC20TokenBank/contracts/TokenBank.sol\":1321:1343  tokenBalance[_account] */\n      0xffffffffffffffffffffffffffffffffffffffff\n      and\n      0xffffffffffffffffffffffffffffffffffffffff\n      and\n      dup2\n      mstore\n      0x20\n      add\n      swap1\n      dup2\n      mstore\n      0x20\n      add\n      0x00\n      keccak256\n      sload\n        /* \"04-Camps/08-UpChain_Camp_3_OpenSpace/0112_ERC20TokenBank/contracts/TokenBank.sol\":1314:1343  return tokenBalance[_account] */\n      swap1\n      pop\n        /* \"04-Camps/08-UpChain_Camp_3_OpenSpace/0112_ERC20TokenBank/contracts/TokenBank.sol\":1234:1350  function getTokenBalance(address _account) public view returns (uint) {... */\n      swap2\n      swap1\n      pop\n      jump\t// out\n        /* \"04-Camps/08-UpChain_Camp_3_OpenSpace/0112_ERC20TokenBank/contracts/Bank.sol\":864:984  function getETHBalance(address _account) public view virtual returns (uint) {... */\n    tag_34:\n        /* \"04-Camps/08-UpChain_Camp_3_OpenSpace/0112_ERC20TokenBank/contracts/Bank.sol\":934:938  uint */\n      0x00\n        /* \"04-Camps/08-UpChain_Camp_3_OpenSpace/0112_ERC20TokenBank/contracts/Bank.sol\":957:967  ETHBalance */\n      dup1\n        /* \"04-Camps/08-UpChain_Camp_3_OpenSpace/0112_ERC20TokenBank/contracts/Bank.sol\":957:977  ETHBalance[_account] */\n      0x00\n        /* \"04-Camps/08-UpChain_Camp_3_OpenSpace/0112_ERC20TokenBank/contracts/Bank.sol\":968:976  _account */\n      dup4\n        /* \"04-Camps/08-UpChain_Camp_3_OpenSpace/0112_ERC20TokenBank/contracts/Bank.sol\":957:977  ETHBalance[_account] */\n      0xffffffffffffffffffffffffffffffffffffffff\n      and\n      0xffffffffffffffffffffffffffffffffffffffff\n      and\n      dup2\n      mstore\n      0x20\n      add\n      swap1\n      dup2\n      mstore\n      0x20\n      add\n      0x00\n      keccak256\n      sload\n        /* \"04-Camps/08-UpChain_Camp_3_OpenSpace/0112_ERC20TokenBank/contracts/Bank.sol\":950:977  return ETHBalance[_account] */\n      swap1\n      pop\n        /* \"04-Camps/08-UpChain_Camp_3_OpenSpace/0112_ERC20TokenBank/contracts/Bank.sol\":864:984  function getETHBalance(address _account) public view virtual returns (uint) {... */\n      swap2\n      swap1\n      pop\n      jump\t// out\n        /* \"04-Camps/08-UpChain_Camp_3_OpenSpace/0112_ERC20TokenBank/contracts/TokenBank.sol\":439:463  address public tokenAddr */\n    tag_38:\n      0x09\n      0x00\n      swap1\n      sload\n      swap1\n      0x0100\n      exp\n      swap1\n      div\n      0xffffffffffffffffffffffffffffffffffffffff\n      and\n      dup2\n      jump\t// out\n        /* \"04-Camps/08-UpChain_Camp_3_OpenSpace/0112_ERC20TokenBank/contracts/TokenBank.sol\":721:1112  function depositToken(uint _tokenAmount) public {... */\n    tag_45:\n        /* \"04-Camps/08-UpChain_Camp_3_OpenSpace/0112_ERC20TokenBank/contracts/TokenBank.sol\":779:799  bool transferSuccess */\n      0x00\n        /* \"04-Camps/08-UpChain_Camp_3_OpenSpace/0112_ERC20TokenBank/contracts/TokenBank.sol\":802:806  IGTT */\n      0x0a\n      0x00\n      swap1\n      sload\n      swap1\n      0x0100\n      exp\n      swap1\n      div\n      0xffffffffffffffffffffffffffffffffffffffff\n      and\n        /* \"04-Camps/08-UpChain_Camp_3_OpenSpace/0112_ERC20TokenBank/contracts/TokenBank.sol\":802:819  IGTT.transferFrom */\n      0xffffffffffffffffffffffffffffffffffffffff\n      and\n      0x23b872dd\n        /* \"04-Camps/08-UpChain_Camp_3_OpenSpace/0112_ERC20TokenBank/contracts/TokenBank.sol\":833:843  msg.sender */\n      caller\n        /* \"04-Camps/08-UpChain_Camp_3_OpenSpace/0112_ERC20TokenBank/contracts/TokenBank.sol\":865:869  this */\n      address\n        /* \"04-Camps/08-UpChain_Camp_3_OpenSpace/0112_ERC20TokenBank/contracts/TokenBank.sol\":884:896  _tokenAmount */\n      dup6\n        /* \"04-Camps/08-UpChain_Camp_3_OpenSpace/0112_ERC20TokenBank/contracts/TokenBank.sol\":802:906  IGTT.transferFrom(... */\n      mload(0x40)\n      dup5\n      0xffffffff\n      and\n      0xe0\n      shl\n      dup2\n      mstore\n      0x04\n      add\n      tag_85\n      swap4\n      swap3\n      swap2\n      swap1\n      tag_86\n      jump\t// in\n    tag_85:\n      0x20\n      mload(0x40)\n      dup1\n      dup4\n      sub\n      dup2\n      0x00\n      dup8\n      gas\n      call\n      iszero\n      dup1\n      iszero\n      tag_88\n      jumpi\n      returndatasize\n      0x00\n      dup1\n      returndatacopy\n      revert(0x00, returndatasize)\n    tag_88:\n      pop\n      pop\n      pop\n      pop\n      mload(0x40)\n      returndatasize\n      not(0x1f)\n      0x1f\n      dup3\n      add\n      and\n      dup3\n      add\n      dup1\n      0x40\n      mstore\n      pop\n      dup2\n      add\n      swap1\n      tag_89\n      swap2\n      swap1\n      tag_90\n      jump\t// in\n    tag_89:\n        /* \"04-Camps/08-UpChain_Camp_3_OpenSpace/0112_ERC20TokenBank/contracts/TokenBank.sol\":779:906  bool transferSuccess = IGTT.transferFrom(... */\n      swap1\n      pop\n        /* \"04-Camps/08-UpChain_Camp_3_OpenSpace/0112_ERC20TokenBank/contracts/TokenBank.sol\":921:936  transferSuccess */\n      dup1\n        /* \"04-Camps/08-UpChain_Camp_3_OpenSpace/0112_ERC20TokenBank/contracts/TokenBank.sol\":916:1016  if (!transferSuccess)... */\n      tag_91\n      jumpi\n        /* \"04-Camps/08-UpChain_Camp_3_OpenSpace/0112_ERC20TokenBank/contracts/TokenBank.sol\":975:987  _tokenAmount */\n      dup2\n        /* \"04-Camps/08-UpChain_Camp_3_OpenSpace/0112_ERC20TokenBank/contracts/TokenBank.sol\":989:993  IGTT */\n      0x0a\n      0x00\n      swap1\n      sload\n      swap1\n      0x0100\n      exp\n      swap1\n      div\n      0xffffffffffffffffffffffffffffffffffffffff\n      and\n        /* \"04-Camps/08-UpChain_Camp_3_OpenSpace/0112_ERC20TokenBank/contracts/TokenBank.sol\":989:1003  IGTT.balanceOf */\n      0xffffffffffffffffffffffffffffffffffffffff\n      and\n      0x70a08231\n        /* \"04-Camps/08-UpChain_Camp_3_OpenSpace/0112_ERC20TokenBank/contracts/TokenBank.sol\":1004:1014  msg.sender */\n      caller\n        /* \"04-Camps/08-UpChain_Camp_3_OpenSpace/0112_ERC20TokenBank/contracts/TokenBank.sol\":989:1015  IGTT.balanceOf(msg.sender) */\n      mload(0x40)\n      dup3\n      0xffffffff\n      and\n      0xe0\n      shl\n      dup2\n      mstore\n      0x04\n      add\n      tag_92\n      swap2\n      swap1\n      tag_40\n      jump\t// in\n    tag_92:\n      0x20\n      mload(0x40)\n      dup1\n      dup4\n      sub\n      dup2\n      dup7\n      gas\n      staticcall\n      iszero\n      dup1\n      iszero\n      tag_94\n      jumpi\n      returndatasize\n      0x00\n      dup1\n      returndatacopy\n      revert(0x00, returndatasize)\n    tag_94:\n      pop\n      pop\n      pop\n      pop\n      mload(0x40)\n      returndatasize\n      not(0x1f)\n      0x1f\n      dup3\n      add\n      and\n      dup3\n      add\n      dup1\n      0x40\n      mstore\n      pop\n      dup2\n      add\n      swap1\n      tag_95\n      swap2\n      swap1\n      tag_96\n      jump\t// in\n    tag_95:\n        /* \"04-Camps/08-UpChain_Camp_3_OpenSpace/0112_ERC20TokenBank/contracts/TokenBank.sol\":957:1016  TokenTransferFail(_tokenAmount, IGTT.balanceOf(msg.sender)) */\n      mload(0x40)\n      0x3a72b7f500000000000000000000000000000000000000000000000000000000\n      dup2\n      mstore\n      0x04\n      add\n      tag_97\n      swap3\n      swap2\n      swap1\n      tag_98\n      jump\t// in\n    tag_97:\n      mload(0x40)\n      dup1\n      swap2\n      sub\n      swap1\n      revert\n        /* \"04-Camps/08-UpChain_Camp_3_OpenSpace/0112_ERC20TokenBank/contracts/TokenBank.sol\":916:1016  if (!transferSuccess)... */\n    tag_91:\n        /* \"04-Camps/08-UpChain_Camp_3_OpenSpace/0112_ERC20TokenBank/contracts/TokenBank.sol\":1054:1066  _tokenAmount */\n      dup2\n        /* \"04-Camps/08-UpChain_Camp_3_OpenSpace/0112_ERC20TokenBank/contracts/TokenBank.sol\":1026:1038  tokenBalance */\n      0x05\n        /* \"04-Camps/08-UpChain_Camp_3_OpenSpace/0112_ERC20TokenBank/contracts/TokenBank.sol\":1026:1050  tokenBalance[msg.sender] */\n      0x00\n        /* \"04-Camps/08-UpChain_Camp_3_OpenSpace/0112_ERC20TokenBank/contracts/TokenBank.sol\":1039:1049  msg.sender */\n      caller\n        /* \"04-Camps/08-UpChain_Camp_3_OpenSpace/0112_ERC20TokenBank/contracts/TokenBank.sol\":1026:1050  tokenBalance[msg.sender] */\n      0xffffffffffffffffffffffffffffffffffffffff\n      and\n      0xffffffffffffffffffffffffffffffffffffffff\n      and\n      dup2\n      mstore\n      0x20\n      add\n      swap1\n      dup2\n      mstore\n      0x20\n      add\n      0x00\n      keccak256\n      0x00\n        /* \"04-Camps/08-UpChain_Camp_3_OpenSpace/0112_ERC20TokenBank/contracts/TokenBank.sol\":1026:1066  tokenBalance[msg.sender] += _tokenAmount */\n      dup3\n      dup3\n      sload\n      tag_99\n      swap2\n      swap1\n      tag_68\n      jump\t// in\n    tag_99:\n      swap3\n      pop\n      pop\n      dup2\n      swap1\n      sstore\n      pop\n        /* \"04-Camps/08-UpChain_Camp_3_OpenSpace/0112_ERC20TokenBank/contracts/TokenBank.sol\":1076:1105  _handleRankWhenDepositToken() */\n      tag_100\n        /* \"04-Camps/08-UpChain_Camp_3_OpenSpace/0112_ERC20TokenBank/contracts/TokenBank.sol\":1076:1103  _handleRankWhenDepositToken */\n      tag_101\n        /* \"04-Camps/08-UpChain_Camp_3_OpenSpace/0112_ERC20TokenBank/contracts/TokenBank.sol\":1076:1105  _handleRankWhenDepositToken() */\n      jump\t// in\n    tag_100:\n        /* \"04-Camps/08-UpChain_Camp_3_OpenSpace/0112_ERC20TokenBank/contracts/TokenBank.sol\":769:1112  {... */\n      pop\n        /* \"04-Camps/08-UpChain_Camp_3_OpenSpace/0112_ERC20TokenBank/contracts/TokenBank.sol\":721:1112  function depositToken(uint _tokenAmount) public {... */\n      pop\n      jump\t// out\n        /* \"04-Camps/08-UpChain_Camp_3_OpenSpace/0112_ERC20TokenBank/contracts/Bank.sol\":365:385  address public owner */\n    tag_48:\n      0x04\n      0x00\n      swap1\n      sload\n      swap1\n      0x0100\n      exp\n      swap1\n      div\n      0xffffffffffffffffffffffffffffffffffffffff\n      and\n      dup2\n      jump\t// out\n        /* \"04-Camps/08-UpChain_Camp_3_OpenSpace/0112_ERC20TokenBank/contracts/TokenBank.sol\":1356:1533  function getTokenTopThreeAccount()... */\n    tag_52:\n        /* \"04-Camps/08-UpChain_Camp_3_OpenSpace/0112_ERC20TokenBank/contracts/TokenBank.sol\":1436:1443  address */\n      0x00\n        /* \"04-Camps/08-UpChain_Camp_3_OpenSpace/0112_ERC20TokenBank/contracts/TokenBank.sol\":1445:1452  address */\n      dup1\n        /* \"04-Camps/08-UpChain_Camp_3_OpenSpace/0112_ERC20TokenBank/contracts/TokenBank.sol\":1454:1461  address */\n      0x00\n        /* \"04-Camps/08-UpChain_Camp_3_OpenSpace/0112_ERC20TokenBank/contracts/TokenBank.sol\":1485:1494  tokenRank */\n      0x06\n        /* \"04-Camps/08-UpChain_Camp_3_OpenSpace/0112_ERC20TokenBank/contracts/TokenBank.sol\":1495:1496  0 */\n      0x00\n        /* \"04-Camps/08-UpChain_Camp_3_OpenSpace/0112_ERC20TokenBank/contracts/TokenBank.sol\":1485:1497  tokenRank[0] */\n      0x03\n      dup2\n      lt\n      tag_103\n      jumpi\n      tag_104\n      tag_74\n      jump\t// in\n    tag_104:\n    tag_103:\n      add\n      0x00\n      swap1\n      sload\n      swap1\n      0x0100\n      exp\n      swap1\n      div\n      0xffffffffffffffffffffffffffffffffffffffff\n      and\n        /* \"04-Camps/08-UpChain_Camp_3_OpenSpace/0112_ERC20TokenBank/contracts/TokenBank.sol\":1499:1508  tokenRank */\n      0x06\n        /* \"04-Camps/08-UpChain_Camp_3_OpenSpace/0112_ERC20TokenBank/contracts/TokenBank.sol\":1509:1510  1 */\n      0x01\n        /* \"04-Camps/08-UpChain_Camp_3_OpenSpace/0112_ERC20TokenBank/contracts/TokenBank.sol\":1499:1511  tokenRank[1] */\n      0x03\n      dup2\n      lt\n      tag_106\n      jumpi\n      tag_107\n      tag_74\n      jump\t// in\n    tag_107:\n    tag_106:\n      add\n      0x00\n      swap1\n      sload\n      swap1\n      0x0100\n      exp\n      swap1\n      div\n      0xffffffffffffffffffffffffffffffffffffffff\n      and\n        /* \"04-Camps/08-UpChain_Camp_3_OpenSpace/0112_ERC20TokenBank/contracts/TokenBank.sol\":1513:1522  tokenRank */\n      0x06\n        /* \"04-Camps/08-UpChain_Camp_3_OpenSpace/0112_ERC20TokenBank/contracts/TokenBank.sol\":1523:1524  2 */\n      0x02\n        /* \"04-Camps/08-UpChain_Camp_3_OpenSpace/0112_ERC20TokenBank/contracts/TokenBank.sol\":1513:1525  tokenRank[2] */\n      0x03\n      dup2\n      lt\n      tag_109\n      jumpi\n      tag_110\n      tag_74\n      jump\t// in\n    tag_110:\n    tag_109:\n      add\n      0x00\n      swap1\n      sload\n      swap1\n      0x0100\n      exp\n      swap1\n      div\n      0xffffffffffffffffffffffffffffffffffffffff\n      and\n        /* \"04-Camps/08-UpChain_Camp_3_OpenSpace/0112_ERC20TokenBank/contracts/TokenBank.sol\":1477:1526  return (tokenRank[0], tokenRank[1], tokenRank[2]) */\n      swap3\n      pop\n      swap3\n      pop\n      swap3\n      pop\n        /* \"04-Camps/08-UpChain_Camp_3_OpenSpace/0112_ERC20TokenBank/contracts/TokenBank.sol\":1356:1533  function getTokenTopThreeAccount()... */\n      swap1\n      swap2\n      swap3\n      jump\t// out\n        /* \"04-Camps/08-UpChain_Camp_3_OpenSpace/0112_ERC20TokenBank/contracts/TokenBank.sol\":1118:1228  function withdrawToken() public onlyOwner {... */\n    tag_56:\n        /* \"04-Camps/08-UpChain_Camp_3_OpenSpace/0112_ERC20TokenBank/contracts/Bank.sol\":500:505  owner */\n      0x04\n      0x00\n      swap1\n      sload\n      swap1\n      0x0100\n      exp\n      swap1\n      div\n      0xffffffffffffffffffffffffffffffffffffffff\n      and\n        /* \"04-Camps/08-UpChain_Camp_3_OpenSpace/0112_ERC20TokenBank/contracts/Bank.sol\":486:505  msg.sender == owner */\n      0xffffffffffffffffffffffffffffffffffffffff\n      and\n        /* \"04-Camps/08-UpChain_Camp_3_OpenSpace/0112_ERC20TokenBank/contracts/Bank.sol\":486:496  msg.sender */\n      caller\n        /* \"04-Camps/08-UpChain_Camp_3_OpenSpace/0112_ERC20TokenBank/contracts/Bank.sol\":486:505  msg.sender == owner */\n      0xffffffffffffffffffffffffffffffffffffffff\n      and\n      eq\n        /* \"04-Camps/08-UpChain_Camp_3_OpenSpace/0112_ERC20TokenBank/contracts/Bank.sol\":478:529  require(msg.sender == owner, \"Only owner can call\") */\n      tag_113\n      jumpi\n      mload(0x40)\n      0x08c379a000000000000000000000000000000000000000000000000000000000\n      dup2\n      mstore\n      0x04\n      add\n      tag_114\n      swap1\n      tag_115\n      jump\t// in\n    tag_114:\n      mload(0x40)\n      dup1\n      swap2\n      sub\n      swap1\n      revert\n    tag_113:\n        /* \"04-Camps/08-UpChain_Camp_3_OpenSpace/0112_ERC20TokenBank/contracts/TokenBank.sol\":1170:1174  IGTT */\n      0x0a\n      0x00\n      swap1\n      sload\n      swap1\n      0x0100\n      exp\n      swap1\n      div\n      0xffffffffffffffffffffffffffffffffffffffff\n      and\n        /* \"04-Camps/08-UpChain_Camp_3_OpenSpace/0112_ERC20TokenBank/contracts/TokenBank.sol\":1170:1183  IGTT.transfer */\n      0xffffffffffffffffffffffffffffffffffffffff\n      and\n      0xa9059cbb\n        /* \"04-Camps/08-UpChain_Camp_3_OpenSpace/0112_ERC20TokenBank/contracts/TokenBank.sol\":1184:1189  owner */\n      0x04\n      0x00\n      swap1\n      sload\n      swap1\n      0x0100\n      exp\n      swap1\n      div\n      0xffffffffffffffffffffffffffffffffffffffff\n      and\n        /* \"04-Camps/08-UpChain_Camp_3_OpenSpace/0112_ERC20TokenBank/contracts/TokenBank.sol\":1191:1195  IGTT */\n      0x0a\n      0x00\n      swap1\n      sload\n      swap1\n      0x0100\n      exp\n      swap1\n      div\n      0xffffffffffffffffffffffffffffffffffffffff\n      and\n        /* \"04-Camps/08-UpChain_Camp_3_OpenSpace/0112_ERC20TokenBank/contracts/TokenBank.sol\":1191:1205  IGTT.balanceOf */\n      0xffffffffffffffffffffffffffffffffffffffff\n      and\n      0x70a08231\n        /* \"04-Camps/08-UpChain_Camp_3_OpenSpace/0112_ERC20TokenBank/contracts/TokenBank.sol\":1214:1218  this */\n      address\n        /* \"04-Camps/08-UpChain_Camp_3_OpenSpace/0112_ERC20TokenBank/contracts/TokenBank.sol\":1191:1220  IGTT.balanceOf(address(this)) */\n      mload(0x40)\n      dup3\n      0xffffffff\n      and\n      0xe0\n      shl\n      dup2\n      mstore\n      0x04\n      add\n      tag_117\n      swap2\n      swap1\n      tag_40\n      jump\t// in\n    tag_117:\n      0x20\n      mload(0x40)\n      dup1\n      dup4\n      sub\n      dup2\n      dup7\n      gas\n      staticcall\n      iszero\n      dup1\n      iszero\n      tag_119\n      jumpi\n      returndatasize\n      0x00\n      dup1\n      returndatacopy\n      revert(0x00, returndatasize)\n    tag_119:\n      pop\n      pop\n      pop\n      pop\n      mload(0x40)\n      returndatasize\n      not(0x1f)\n      0x1f\n      dup3\n      add\n      and\n      dup3\n      add\n      dup1\n      0x40\n      mstore\n      pop\n      dup2\n      add\n      swap1\n      tag_120\n      swap2\n      swap1\n      tag_96\n      jump\t// in\n    tag_120:\n        /* \"04-Camps/08-UpChain_Camp_3_OpenSpace/0112_ERC20TokenBank/contracts/TokenBank.sol\":1170:1221  IGTT.transfer(owner, IGTT.balanceOf(address(this))) */\n      mload(0x40)\n      dup4\n      0xffffffff\n      and\n      0xe0\n      shl\n      dup2\n      mstore\n      0x04\n      add\n      tag_121\n      swap3\n      swap2\n      swap1\n      tag_122\n      jump\t// in\n    tag_121:\n      0x20\n      mload(0x40)\n      dup1\n      dup4\n      sub\n      dup2\n      0x00\n      dup8\n      gas\n      call\n      iszero\n      dup1\n      iszero\n      tag_124\n      jumpi\n      returndatasize\n      0x00\n      dup1\n      returndatacopy\n      revert(0x00, returndatasize)\n    tag_124:\n      pop\n      pop\n      pop\n      pop\n      mload(0x40)\n      returndatasize\n      not(0x1f)\n      0x1f\n      dup3\n      add\n      and\n      dup3\n      add\n      dup1\n      0x40\n      mstore\n      pop\n      dup2\n      add\n      swap1\n      tag_125\n      swap2\n      swap1\n      tag_90\n      jump\t// in\n    tag_125:\n      pop\n        /* \"04-Camps/08-UpChain_Camp_3_OpenSpace/0112_ERC20TokenBank/contracts/TokenBank.sol\":1118:1228  function withdrawToken() public onlyOwner {... */\n      jump\t// out\n        /* \"04-Camps/08-UpChain_Camp_3_OpenSpace/0112_ERC20TokenBank/contracts/Bank.sol\":755:858  function withdrawETH() public onlyOwner {... */\n    tag_59:\n        /* \"04-Camps/08-UpChain_Camp_3_OpenSpace/0112_ERC20TokenBank/contracts/Bank.sol\":500:505  owner */\n      0x04\n      0x00\n      swap1\n      sload\n      swap1\n      0x0100\n      exp\n      swap1\n      div\n      0xffffffffffffffffffffffffffffffffffffffff\n      and\n        /* \"04-Camps/08-UpChain_Camp_3_OpenSpace/0112_ERC20TokenBank/contracts/Bank.sol\":486:505  msg.sender == owner */\n      0xffffffffffffffffffffffffffffffffffffffff\n      and\n        /* \"04-Camps/08-UpChain_Camp_3_OpenSpace/0112_ERC20TokenBank/contracts/Bank.sol\":486:496  msg.sender */\n      caller\n        /* \"04-Camps/08-UpChain_Camp_3_OpenSpace/0112_ERC20TokenBank/contracts/Bank.sol\":486:505  msg.sender == owner */\n      0xffffffffffffffffffffffffffffffffffffffff\n      and\n      eq\n        /* \"04-Camps/08-UpChain_Camp_3_OpenSpace/0112_ERC20TokenBank/contracts/Bank.sol\":478:529  require(msg.sender == owner, \"Only owner can call\") */\n      tag_127\n      jumpi\n      mload(0x40)\n      0x08c379a000000000000000000000000000000000000000000000000000000000\n      dup2\n      mstore\n      0x04\n      add\n      tag_128\n      swap1\n      tag_115\n      jump\t// in\n    tag_128:\n      mload(0x40)\n      dup1\n      swap2\n      sub\n      swap1\n      revert\n    tag_127:\n        /* \"04-Camps/08-UpChain_Camp_3_OpenSpace/0112_ERC20TokenBank/contracts/Bank.sol\":813:818  owner */\n      0x04\n      0x00\n      swap1\n      sload\n      swap1\n      0x0100\n      exp\n      swap1\n      div\n      0xffffffffffffffffffffffffffffffffffffffff\n      and\n        /* \"04-Camps/08-UpChain_Camp_3_OpenSpace/0112_ERC20TokenBank/contracts/Bank.sol\":805:828  payable(owner).transfer */\n      0xffffffffffffffffffffffffffffffffffffffff\n      and\n        /* \"04-Camps/08-UpChain_Camp_3_OpenSpace/0112_ERC20TokenBank/contracts/Bank.sol\":805:851  payable(owner).transfer(address(this).balance) */\n      0x08fc\n        /* \"04-Camps/08-UpChain_Camp_3_OpenSpace/0112_ERC20TokenBank/contracts/Bank.sol\":829:850  address(this).balance */\n      selfbalance\n        /* \"04-Camps/08-UpChain_Camp_3_OpenSpace/0112_ERC20TokenBank/contracts/Bank.sol\":805:851  payable(owner).transfer(address(this).balance) */\n      swap1\n      dup2\n      iszero\n      mul\n      swap1\n      mload(0x40)\n      0x00\n      mload(0x40)\n      dup1\n      dup4\n      sub\n      dup2\n      dup6\n      dup9\n      dup9\n      call\n      swap4\n      pop\n      pop\n      pop\n      pop\n      iszero\n      dup1\n      iszero\n      tag_131\n      jumpi\n      returndatasize\n      0x00\n      dup1\n      returndatacopy\n      revert(0x00, returndatasize)\n    tag_131:\n      pop\n        /* \"04-Camps/08-UpChain_Camp_3_OpenSpace/0112_ERC20TokenBank/contracts/Bank.sol\":755:858  function withdrawETH() public onlyOwner {... */\n      jump\t// out\n        /* \"04-Camps/08-UpChain_Camp_3_OpenSpace/0112_ERC20TokenBank/contracts/TokenBank.sol\":469:495  IERC20TokenGTT public IGTT */\n    tag_63:\n      0x0a\n      0x00\n      swap1\n      sload\n      swap1\n      0x0100\n      exp\n      swap1\n      div\n      0xffffffffffffffffffffffffffffffffffffffff\n      and\n      dup2\n      jump\t// out\n        /* \"04-Camps/08-UpChain_Camp_3_OpenSpace/0112_ERC20TokenBank/contracts/Bank.sol\":1156:3068  function _handleRankWhenDepositETH() internal {... */\n    tag_70:\n        /* \"04-Camps/08-UpChain_Camp_3_OpenSpace/0112_ERC20TokenBank/contracts/Bank.sol\":1212:1232  uint membershipIndex */\n      0x00\n        /* \"04-Camps/08-UpChain_Camp_3_OpenSpace/0112_ERC20TokenBank/contracts/Bank.sol\":1235:1260  _checkETHRankMembership() */\n      tag_133\n        /* \"04-Camps/08-UpChain_Camp_3_OpenSpace/0112_ERC20TokenBank/contracts/Bank.sol\":1235:1258  _checkETHRankMembership */\n      tag_134\n        /* \"04-Camps/08-UpChain_Camp_3_OpenSpace/0112_ERC20TokenBank/contracts/Bank.sol\":1235:1260  _checkETHRankMembership() */\n      jump\t// in\n    tag_133:\n        /* \"04-Camps/08-UpChain_Camp_3_OpenSpace/0112_ERC20TokenBank/contracts/Bank.sol\":1212:1260  uint membershipIndex = _checkETHRankMembership() */\n      swap1\n      pop\n        /* \"04-Camps/08-UpChain_Camp_3_OpenSpace/0112_ERC20TokenBank/contracts/Bank.sol\":1270:1289  uint convertedIndex */\n      0x00\n        /* \"04-Camps/08-UpChain_Camp_3_OpenSpace/0112_ERC20TokenBank/contracts/Bank.sol\":1299:1315  uint indexRecord */\n      dup1\n        /* \"04-Camps/08-UpChain_Camp_3_OpenSpace/0112_ERC20TokenBank/contracts/Bank.sol\":1318:1321  777 */\n      0x0309\n        /* \"04-Camps/08-UpChain_Camp_3_OpenSpace/0112_ERC20TokenBank/contracts/Bank.sol\":1299:1321  uint indexRecord = 777 */\n      swap1\n      pop\n        /* \"04-Camps/08-UpChain_Camp_3_OpenSpace/0112_ERC20TokenBank/contracts/Bank.sol\":1354:1357  999 */\n      0x03e7\n        /* \"04-Camps/08-UpChain_Camp_3_OpenSpace/0112_ERC20TokenBank/contracts/Bank.sol\":1335:1350  membershipIndex */\n      dup4\n        /* \"04-Camps/08-UpChain_Camp_3_OpenSpace/0112_ERC20TokenBank/contracts/Bank.sol\":1335:1357  membershipIndex != 999 */\n      eq\n        /* \"04-Camps/08-UpChain_Camp_3_OpenSpace/0112_ERC20TokenBank/contracts/Bank.sol\":1331:3062  if (membershipIndex != 999) {... */\n      tag_135\n      jumpi\n        /* \"04-Camps/08-UpChain_Camp_3_OpenSpace/0112_ERC20TokenBank/contracts/Bank.sol\":1475:1476  4 */\n      0x04\n        /* \"04-Camps/08-UpChain_Camp_3_OpenSpace/0112_ERC20TokenBank/contracts/Bank.sol\":1457:1472  membershipIndex */\n      dup4\n        /* \"04-Camps/08-UpChain_Camp_3_OpenSpace/0112_ERC20TokenBank/contracts/Bank.sol\":1457:1476  membershipIndex + 4 */\n      tag_136\n      swap2\n      swap1\n      tag_68\n      jump\t// in\n    tag_136:\n        /* \"04-Camps/08-UpChain_Camp_3_OpenSpace/0112_ERC20TokenBank/contracts/Bank.sol\":1440:1476  convertedIndex = membershipIndex + 4 */\n      swap2\n      pop\n        /* \"04-Camps/08-UpChain_Camp_3_OpenSpace/0112_ERC20TokenBank/contracts/Bank.sol\":1495:1501  uint i */\n      0x00\n        /* \"04-Camps/08-UpChain_Camp_3_OpenSpace/0112_ERC20TokenBank/contracts/Bank.sol\":1521:1522  3 */\n      0x03\n        /* \"04-Camps/08-UpChain_Camp_3_OpenSpace/0112_ERC20TokenBank/contracts/Bank.sol\":1504:1518  convertedIndex */\n      dup4\n        /* \"04-Camps/08-UpChain_Camp_3_OpenSpace/0112_ERC20TokenBank/contracts/Bank.sol\":1504:1522  convertedIndex - 3 */\n      tag_140\n      swap2\n      swap1\n      tag_141\n      jump\t// in\n    tag_140:\n        /* \"04-Camps/08-UpChain_Camp_3_OpenSpace/0112_ERC20TokenBank/contracts/Bank.sol\":1495:1522  uint i = convertedIndex - 3 */\n      swap1\n      pop\n        /* \"04-Camps/08-UpChain_Camp_3_OpenSpace/0112_ERC20TokenBank/contracts/Bank.sol\":1490:2236  for (uint i = convertedIndex - 3; i > 1; i--) {... */\n    tag_137:\n        /* \"04-Camps/08-UpChain_Camp_3_OpenSpace/0112_ERC20TokenBank/contracts/Bank.sol\":1528:1529  1 */\n      0x01\n        /* \"04-Camps/08-UpChain_Camp_3_OpenSpace/0112_ERC20TokenBank/contracts/Bank.sol\":1524:1525  i */\n      dup2\n        /* \"04-Camps/08-UpChain_Camp_3_OpenSpace/0112_ERC20TokenBank/contracts/Bank.sol\":1524:1529  i > 1 */\n      gt\n        /* \"04-Camps/08-UpChain_Camp_3_OpenSpace/0112_ERC20TokenBank/contracts/Bank.sol\":1490:2236  for (uint i = convertedIndex - 3; i > 1; i--) {... */\n      iszero\n      tag_138\n      jumpi\n        /* \"04-Camps/08-UpChain_Camp_3_OpenSpace/0112_ERC20TokenBank/contracts/Bank.sol\":1577:1578  0 */\n      0x00\n        /* \"04-Camps/08-UpChain_Camp_3_OpenSpace/0112_ERC20TokenBank/contracts/Bank.sol\":1558:1573  membershipIndex */\n      dup5\n        /* \"04-Camps/08-UpChain_Camp_3_OpenSpace/0112_ERC20TokenBank/contracts/Bank.sol\":1558:1578  membershipIndex != 0 */\n      eq\n        /* \"04-Camps/08-UpChain_Camp_3_OpenSpace/0112_ERC20TokenBank/contracts/Bank.sol\":1554:2222  if (membershipIndex != 0) {... */\n      tag_142\n      jumpi\n        /* \"04-Camps/08-UpChain_Camp_3_OpenSpace/0112_ERC20TokenBank/contracts/Bank.sol\":1631:1641  ETHBalance */\n      0x00\n        /* \"04-Camps/08-UpChain_Camp_3_OpenSpace/0112_ERC20TokenBank/contracts/Bank.sol\":1631:1654  ETHBalance[rank[i - 2]] */\n      dup1\n        /* \"04-Camps/08-UpChain_Camp_3_OpenSpace/0112_ERC20TokenBank/contracts/Bank.sol\":1642:1646  rank */\n      0x01\n        /* \"04-Camps/08-UpChain_Camp_3_OpenSpace/0112_ERC20TokenBank/contracts/Bank.sol\":1651:1652  2 */\n      0x02\n        /* \"04-Camps/08-UpChain_Camp_3_OpenSpace/0112_ERC20TokenBank/contracts/Bank.sol\":1647:1648  i */\n      dup5\n        /* \"04-Camps/08-UpChain_Camp_3_OpenSpace/0112_ERC20TokenBank/contracts/Bank.sol\":1647:1652  i - 2 */\n      tag_143\n      swap2\n      swap1\n      tag_141\n      jump\t// in\n    tag_143:\n        /* \"04-Camps/08-UpChain_Camp_3_OpenSpace/0112_ERC20TokenBank/contracts/Bank.sol\":1642:1653  rank[i - 2] */\n      0x03\n      dup2\n      lt\n      tag_144\n      jumpi\n      tag_145\n      tag_74\n      jump\t// in\n    tag_145:\n    tag_144:\n      add\n      0x00\n      swap1\n      sload\n      swap1\n      0x0100\n      exp\n      swap1\n      div\n      0xffffffffffffffffffffffffffffffffffffffff\n      and\n        /* \"04-Camps/08-UpChain_Camp_3_OpenSpace/0112_ERC20TokenBank/contracts/Bank.sol\":1631:1654  ETHBalance[rank[i - 2]] */\n      0xffffffffffffffffffffffffffffffffffffffff\n      and\n      0xffffffffffffffffffffffffffffffffffffffff\n      and\n      dup2\n      mstore\n      0x20\n      add\n      swap1\n      dup2\n      mstore\n      0x20\n      add\n      0x00\n      keccak256\n      sload\n        /* \"04-Camps/08-UpChain_Camp_3_OpenSpace/0112_ERC20TokenBank/contracts/Bank.sol\":1606:1616  ETHBalance */\n      0x00\n        /* \"04-Camps/08-UpChain_Camp_3_OpenSpace/0112_ERC20TokenBank/contracts/Bank.sol\":1606:1628  ETHBalance[msg.sender] */\n      dup1\n        /* \"04-Camps/08-UpChain_Camp_3_OpenSpace/0112_ERC20TokenBank/contracts/Bank.sol\":1617:1627  msg.sender */\n      caller\n        /* \"04-Camps/08-UpChain_Camp_3_OpenSpace/0112_ERC20TokenBank/contracts/Bank.sol\":1606:1628  ETHBalance[msg.sender] */\n      0xffffffffffffffffffffffffffffffffffffffff\n      and\n      0xffffffffffffffffffffffffffffffffffffffff\n      and\n      dup2\n      mstore\n      0x20\n      add\n      swap1\n      dup2\n      mstore\n      0x20\n      add\n      0x00\n      keccak256\n      sload\n        /* \"04-Camps/08-UpChain_Camp_3_OpenSpace/0112_ERC20TokenBank/contracts/Bank.sol\":1606:1654  ETHBalance[msg.sender] > ETHBalance[rank[i - 2]] */\n      gt\n        /* \"04-Camps/08-UpChain_Camp_3_OpenSpace/0112_ERC20TokenBank/contracts/Bank.sol\":1602:2204  if (ETHBalance[msg.sender] > ETHBalance[rank[i - 2]]) {... */\n      iszero\n      tag_147\n      jumpi\n        /* \"04-Camps/08-UpChain_Camp_3_OpenSpace/0112_ERC20TokenBank/contracts/Bank.sol\":1700:1701  2 */\n      0x02\n        /* \"04-Camps/08-UpChain_Camp_3_OpenSpace/0112_ERC20TokenBank/contracts/Bank.sol\":1696:1697  i */\n      dup2\n        /* \"04-Camps/08-UpChain_Camp_3_OpenSpace/0112_ERC20TokenBank/contracts/Bank.sol\":1696:1701  i - 2 */\n      tag_148\n      swap2\n      swap1\n      tag_141\n      jump\t// in\n    tag_148:\n        /* \"04-Camps/08-UpChain_Camp_3_OpenSpace/0112_ERC20TokenBank/contracts/Bank.sol\":1682:1701  indexRecord = i - 2 */\n      swap2\n      pop\n        /* \"04-Camps/08-UpChain_Camp_3_OpenSpace/0112_ERC20TokenBank/contracts/Bank.sol\":1732:1738  uint j */\n      0x00\n        /* \"04-Camps/08-UpChain_Camp_3_OpenSpace/0112_ERC20TokenBank/contracts/Bank.sol\":1741:1742  2 */\n      0x02\n        /* \"04-Camps/08-UpChain_Camp_3_OpenSpace/0112_ERC20TokenBank/contracts/Bank.sol\":1732:1742  uint j = 2 */\n      swap1\n      pop\n        /* \"04-Camps/08-UpChain_Camp_3_OpenSpace/0112_ERC20TokenBank/contracts/Bank.sol\":1727:1838  for (uint j = 2; j > i - 2; j--) {... */\n    tag_149:\n        /* \"04-Camps/08-UpChain_Camp_3_OpenSpace/0112_ERC20TokenBank/contracts/Bank.sol\":1752:1753  2 */\n      0x02\n        /* \"04-Camps/08-UpChain_Camp_3_OpenSpace/0112_ERC20TokenBank/contracts/Bank.sol\":1748:1749  i */\n      dup3\n        /* \"04-Camps/08-UpChain_Camp_3_OpenSpace/0112_ERC20TokenBank/contracts/Bank.sol\":1748:1753  i - 2 */\n      tag_152\n      swap2\n      swap1\n      tag_141\n      jump\t// in\n    tag_152:\n        /* \"04-Camps/08-UpChain_Camp_3_OpenSpace/0112_ERC20TokenBank/contracts/Bank.sol\":1744:1745  j */\n      dup2\n        /* \"04-Camps/08-UpChain_Camp_3_OpenSpace/0112_ERC20TokenBank/contracts/Bank.sol\":1744:1753  j > i - 2 */\n      gt\n        /* \"04-Camps/08-UpChain_Camp_3_OpenSpace/0112_ERC20TokenBank/contracts/Bank.sol\":1727:1838  for (uint j = 2; j > i - 2; j--) {... */\n      iszero\n      tag_150\n      jumpi\n        /* \"04-Camps/08-UpChain_Camp_3_OpenSpace/0112_ERC20TokenBank/contracts/Bank.sol\":1800:1804  rank */\n      0x01\n        /* \"04-Camps/08-UpChain_Camp_3_OpenSpace/0112_ERC20TokenBank/contracts/Bank.sol\":1809:1810  1 */\n      dup1\n        /* \"04-Camps/08-UpChain_Camp_3_OpenSpace/0112_ERC20TokenBank/contracts/Bank.sol\":1805:1806  j */\n      dup3\n        /* \"04-Camps/08-UpChain_Camp_3_OpenSpace/0112_ERC20TokenBank/contracts/Bank.sol\":1805:1810  j - 1 */\n      tag_153\n      swap2\n      swap1\n      tag_141\n      jump\t// in\n    tag_153:\n        /* \"04-Camps/08-UpChain_Camp_3_OpenSpace/0112_ERC20TokenBank/contracts/Bank.sol\":1800:1811  rank[j - 1] */\n      0x03\n      dup2\n      lt\n      tag_154\n      jumpi\n      tag_155\n      tag_74\n      jump\t// in\n    tag_155:\n    tag_154:\n      add\n      0x00\n      swap1\n      sload\n      swap1\n      0x0100\n      exp\n      swap1\n      div\n      0xffffffffffffffffffffffffffffffffffffffff\n      and\n        /* \"04-Camps/08-UpChain_Camp_3_OpenSpace/0112_ERC20TokenBank/contracts/Bank.sol\":1790:1794  rank */\n      0x01\n        /* \"04-Camps/08-UpChain_Camp_3_OpenSpace/0112_ERC20TokenBank/contracts/Bank.sol\":1795:1796  j */\n      dup3\n        /* \"04-Camps/08-UpChain_Camp_3_OpenSpace/0112_ERC20TokenBank/contracts/Bank.sol\":1790:1797  rank[j] */\n      0x03\n      dup2\n      lt\n      tag_157\n      jumpi\n      tag_158\n      tag_74\n      jump\t// in\n    tag_158:\n    tag_157:\n      add\n      0x00\n        /* \"04-Camps/08-UpChain_Camp_3_OpenSpace/0112_ERC20TokenBank/contracts/Bank.sol\":1790:1811  rank[j] = rank[j - 1] */\n      0x0100\n      exp\n      dup2\n      sload\n      dup2\n      0xffffffffffffffffffffffffffffffffffffffff\n      mul\n      not\n      and\n      swap1\n      dup4\n      0xffffffffffffffffffffffffffffffffffffffff\n      and\n      mul\n      or\n      swap1\n      sstore\n      pop\n        /* \"04-Camps/08-UpChain_Camp_3_OpenSpace/0112_ERC20TokenBank/contracts/Bank.sol\":1755:1758  j-- */\n      dup1\n      dup1\n      tag_160\n      swap1\n      tag_161\n      jump\t// in\n    tag_160:\n      swap2\n      pop\n      pop\n        /* \"04-Camps/08-UpChain_Camp_3_OpenSpace/0112_ERC20TokenBank/contracts/Bank.sol\":1727:1838  for (uint j = 2; j > i - 2; j--) {... */\n      jump(tag_149)\n    tag_150:\n      pop\n        /* \"04-Camps/08-UpChain_Camp_3_OpenSpace/0112_ERC20TokenBank/contracts/Bank.sol\":1927:1928  0 */\n      0x00\n        /* \"04-Camps/08-UpChain_Camp_3_OpenSpace/0112_ERC20TokenBank/contracts/Bank.sol\":1912:1923  indexRecord */\n      dup3\n        /* \"04-Camps/08-UpChain_Camp_3_OpenSpace/0112_ERC20TokenBank/contracts/Bank.sol\":1912:1928  indexRecord == 0 */\n      sub\n        /* \"04-Camps/08-UpChain_Camp_3_OpenSpace/0112_ERC20TokenBank/contracts/Bank.sol\":1908:2017  if (indexRecord == 0) {... */\n      tag_162\n      jumpi\n        /* \"04-Camps/08-UpChain_Camp_3_OpenSpace/0112_ERC20TokenBank/contracts/Bank.sol\":1980:1990  msg.sender */\n      caller\n        /* \"04-Camps/08-UpChain_Camp_3_OpenSpace/0112_ERC20TokenBank/contracts/Bank.sol\":1960:1964  rank */\n      0x01\n        /* \"04-Camps/08-UpChain_Camp_3_OpenSpace/0112_ERC20TokenBank/contracts/Bank.sol\":1965:1976  indexRecord */\n      dup4\n        /* \"04-Camps/08-UpChain_Camp_3_OpenSpace/0112_ERC20TokenBank/contracts/Bank.sol\":1960:1977  rank[indexRecord] */\n      0x03\n      dup2\n      lt\n      tag_163\n      jumpi\n      tag_164\n      tag_74\n      jump\t// in\n    tag_164:\n    tag_163:\n      add\n      0x00\n        /* \"04-Camps/08-UpChain_Camp_3_OpenSpace/0112_ERC20TokenBank/contracts/Bank.sol\":1960:1990  rank[indexRecord] = msg.sender */\n      0x0100\n      exp\n      dup2\n      sload\n      dup2\n      0xffffffffffffffffffffffffffffffffffffffff\n      mul\n      not\n      and\n      swap1\n      dup4\n      0xffffffffffffffffffffffffffffffffffffffff\n      and\n      mul\n      or\n      swap1\n      sstore\n      pop\n        /* \"04-Camps/08-UpChain_Camp_3_OpenSpace/0112_ERC20TokenBank/contracts/Bank.sol\":1908:2017  if (indexRecord == 0) {... */\n    tag_162:\n        /* \"04-Camps/08-UpChain_Camp_3_OpenSpace/0112_ERC20TokenBank/contracts/Bank.sol\":1602:2204  if (ETHBalance[msg.sender] > ETHBalance[rank[i - 2]]) {... */\n      jump(tag_166)\n    tag_147:\n        /* \"04-Camps/08-UpChain_Camp_3_OpenSpace/0112_ERC20TokenBank/contracts/Bank.sol\":2090:2093  777 */\n      0x0309\n        /* \"04-Camps/08-UpChain_Camp_3_OpenSpace/0112_ERC20TokenBank/contracts/Bank.sol\":2075:2086  indexRecord */\n      dup3\n        /* \"04-Camps/08-UpChain_Camp_3_OpenSpace/0112_ERC20TokenBank/contracts/Bank.sol\":2075:2093  indexRecord != 777 */\n      eq\n        /* \"04-Camps/08-UpChain_Camp_3_OpenSpace/0112_ERC20TokenBank/contracts/Bank.sol\":2071:2182  if (indexRecord != 777) {... */\n      tag_167\n      jumpi\n        /* \"04-Camps/08-UpChain_Camp_3_OpenSpace/0112_ERC20TokenBank/contracts/Bank.sol\":2145:2155  msg.sender */\n      caller\n        /* \"04-Camps/08-UpChain_Camp_3_OpenSpace/0112_ERC20TokenBank/contracts/Bank.sol\":2125:2129  rank */\n      0x01\n        /* \"04-Camps/08-UpChain_Camp_3_OpenSpace/0112_ERC20TokenBank/contracts/Bank.sol\":2130:2141  indexRecord */\n      dup4\n        /* \"04-Camps/08-UpChain_Camp_3_OpenSpace/0112_ERC20TokenBank/contracts/Bank.sol\":2125:2142  rank[indexRecord] */\n      0x03\n      dup2\n      lt\n      tag_168\n      jumpi\n      tag_169\n      tag_74\n      jump\t// in\n    tag_169:\n    tag_168:\n      add\n      0x00\n        /* \"04-Camps/08-UpChain_Camp_3_OpenSpace/0112_ERC20TokenBank/contracts/Bank.sol\":2125:2155  rank[indexRecord] = msg.sender */\n      0x0100\n      exp\n      dup2\n      sload\n      dup2\n      0xffffffffffffffffffffffffffffffffffffffff\n      mul\n      not\n      and\n      swap1\n      dup4\n      0xffffffffffffffffffffffffffffffffffffffff\n      and\n      mul\n      or\n      swap1\n      sstore\n      pop\n        /* \"04-Camps/08-UpChain_Camp_3_OpenSpace/0112_ERC20TokenBank/contracts/Bank.sol\":2071:2182  if (indexRecord != 777) {... */\n    tag_167:\n        /* \"04-Camps/08-UpChain_Camp_3_OpenSpace/0112_ERC20TokenBank/contracts/Bank.sol\":1602:2204  if (ETHBalance[msg.sender] > ETHBalance[rank[i - 2]]) {... */\n    tag_166:\n        /* \"04-Camps/08-UpChain_Camp_3_OpenSpace/0112_ERC20TokenBank/contracts/Bank.sol\":1554:2222  if (membershipIndex != 0) {... */\n    tag_142:\n        /* \"04-Camps/08-UpChain_Camp_3_OpenSpace/0112_ERC20TokenBank/contracts/Bank.sol\":1531:1534  i-- */\n      dup1\n      dup1\n      tag_171\n      swap1\n      tag_161\n      jump\t// in\n    tag_171:\n      swap2\n      pop\n      pop\n        /* \"04-Camps/08-UpChain_Camp_3_OpenSpace/0112_ERC20TokenBank/contracts/Bank.sol\":1490:2236  for (uint i = convertedIndex - 3; i > 1; i--) {... */\n      jump(tag_137)\n    tag_138:\n      pop\n        /* \"04-Camps/08-UpChain_Camp_3_OpenSpace/0112_ERC20TokenBank/contracts/Bank.sol\":1331:3062  if (membershipIndex != 999) {... */\n      jump(tag_172)\n    tag_135:\n        /* \"04-Camps/08-UpChain_Camp_3_OpenSpace/0112_ERC20TokenBank/contracts/Bank.sol\":2334:2340  uint i */\n      0x00\n        /* \"04-Camps/08-UpChain_Camp_3_OpenSpace/0112_ERC20TokenBank/contracts/Bank.sol\":2343:2344  3 */\n      0x03\n        /* \"04-Camps/08-UpChain_Camp_3_OpenSpace/0112_ERC20TokenBank/contracts/Bank.sol\":2334:2344  uint i = 3 */\n      swap1\n      pop\n        /* \"04-Camps/08-UpChain_Camp_3_OpenSpace/0112_ERC20TokenBank/contracts/Bank.sol\":2329:3052  for (uint i = 3; i > 0; i--) {... */\n    tag_173:\n        /* \"04-Camps/08-UpChain_Camp_3_OpenSpace/0112_ERC20TokenBank/contracts/Bank.sol\":2350:2351  0 */\n      0x00\n        /* \"04-Camps/08-UpChain_Camp_3_OpenSpace/0112_ERC20TokenBank/contracts/Bank.sol\":2346:2347  i */\n      dup2\n        /* \"04-Camps/08-UpChain_Camp_3_OpenSpace/0112_ERC20TokenBank/contracts/Bank.sol\":2346:2351  i > 0 */\n      gt\n        /* \"04-Camps/08-UpChain_Camp_3_OpenSpace/0112_ERC20TokenBank/contracts/Bank.sol\":2329:3052  for (uint i = 3; i > 0; i--) {... */\n      iszero\n      tag_174\n      jumpi\n        /* \"04-Camps/08-UpChain_Camp_3_OpenSpace/0112_ERC20TokenBank/contracts/Bank.sol\":2405:2415  ETHBalance */\n      0x00\n        /* \"04-Camps/08-UpChain_Camp_3_OpenSpace/0112_ERC20TokenBank/contracts/Bank.sol\":2405:2428  ETHBalance[rank[i - 1]] */\n      dup1\n        /* \"04-Camps/08-UpChain_Camp_3_OpenSpace/0112_ERC20TokenBank/contracts/Bank.sol\":2416:2420  rank */\n      0x01\n        /* \"04-Camps/08-UpChain_Camp_3_OpenSpace/0112_ERC20TokenBank/contracts/Bank.sol\":2425:2426  1 */\n      dup1\n        /* \"04-Camps/08-UpChain_Camp_3_OpenSpace/0112_ERC20TokenBank/contracts/Bank.sol\":2421:2422  i */\n      dup5\n        /* \"04-Camps/08-UpChain_Camp_3_OpenSpace/0112_ERC20TokenBank/contracts/Bank.sol\":2421:2426  i - 1 */\n      tag_176\n      swap2\n      swap1\n      tag_141\n      jump\t// in\n    tag_176:\n        /* \"04-Camps/08-UpChain_Camp_3_OpenSpace/0112_ERC20TokenBank/contracts/Bank.sol\":2416:2427  rank[i - 1] */\n      0x03\n      dup2\n      lt\n      tag_177\n      jumpi\n      tag_178\n      tag_74\n      jump\t// in\n    tag_178:\n    tag_177:\n      add\n      0x00\n      swap1\n      sload\n      swap1\n      0x0100\n      exp\n      swap1\n      div\n      0xffffffffffffffffffffffffffffffffffffffff\n      and\n        /* \"04-Camps/08-UpChain_Camp_3_OpenSpace/0112_ERC20TokenBank/contracts/Bank.sol\":2405:2428  ETHBalance[rank[i - 1]] */\n      0xffffffffffffffffffffffffffffffffffffffff\n      and\n      0xffffffffffffffffffffffffffffffffffffffff\n      and\n      dup2\n      mstore\n      0x20\n      add\n      swap1\n      dup2\n      mstore\n      0x20\n      add\n      0x00\n      keccak256\n      sload\n        /* \"04-Camps/08-UpChain_Camp_3_OpenSpace/0112_ERC20TokenBank/contracts/Bank.sol\":2380:2390  ETHBalance */\n      0x00\n        /* \"04-Camps/08-UpChain_Camp_3_OpenSpace/0112_ERC20TokenBank/contracts/Bank.sol\":2380:2402  ETHBalance[msg.sender] */\n      dup1\n        /* \"04-Camps/08-UpChain_Camp_3_OpenSpace/0112_ERC20TokenBank/contracts/Bank.sol\":2391:2401  msg.sender */\n      caller\n        /* \"04-Camps/08-UpChain_Camp_3_OpenSpace/0112_ERC20TokenBank/contracts/Bank.sol\":2380:2402  ETHBalance[msg.sender] */\n      0xffffffffffffffffffffffffffffffffffffffff\n      and\n      0xffffffffffffffffffffffffffffffffffffffff\n      and\n      dup2\n      mstore\n      0x20\n      add\n      swap1\n      dup2\n      mstore\n      0x20\n      add\n      0x00\n      keccak256\n      sload\n        /* \"04-Camps/08-UpChain_Camp_3_OpenSpace/0112_ERC20TokenBank/contracts/Bank.sol\":2380:2428  ETHBalance[msg.sender] > ETHBalance[rank[i - 1]] */\n      gt\n        /* \"04-Camps/08-UpChain_Camp_3_OpenSpace/0112_ERC20TokenBank/contracts/Bank.sol\":2376:3038  if (ETHBalance[msg.sender] > ETHBalance[rank[i - 1]]) {... */\n      iszero\n      tag_180\n      jumpi\n        /* \"04-Camps/08-UpChain_Camp_3_OpenSpace/0112_ERC20TokenBank/contracts/Bank.sol\":2470:2471  1 */\n      0x01\n        /* \"04-Camps/08-UpChain_Camp_3_OpenSpace/0112_ERC20TokenBank/contracts/Bank.sol\":2466:2467  i */\n      dup2\n        /* \"04-Camps/08-UpChain_Camp_3_OpenSpace/0112_ERC20TokenBank/contracts/Bank.sol\":2466:2471  i - 1 */\n      tag_181\n      swap2\n      swap1\n      tag_141\n      jump\t// in\n    tag_181:\n        /* \"04-Camps/08-UpChain_Camp_3_OpenSpace/0112_ERC20TokenBank/contracts/Bank.sol\":2452:2471  indexRecord = i - 1 */\n      swap2\n      pop\n        /* \"04-Camps/08-UpChain_Camp_3_OpenSpace/0112_ERC20TokenBank/contracts/Bank.sol\":2610:2616  uint j */\n      0x00\n        /* \"04-Camps/08-UpChain_Camp_3_OpenSpace/0112_ERC20TokenBank/contracts/Bank.sol\":2619:2620  2 */\n      0x02\n        /* \"04-Camps/08-UpChain_Camp_3_OpenSpace/0112_ERC20TokenBank/contracts/Bank.sol\":2610:2620  uint j = 2 */\n      swap1\n      pop\n        /* \"04-Camps/08-UpChain_Camp_3_OpenSpace/0112_ERC20TokenBank/contracts/Bank.sol\":2605:2708  for (uint j = 2; j > i - 1; j--) {... */\n    tag_182:\n        /* \"04-Camps/08-UpChain_Camp_3_OpenSpace/0112_ERC20TokenBank/contracts/Bank.sol\":2630:2631  1 */\n      0x01\n        /* \"04-Camps/08-UpChain_Camp_3_OpenSpace/0112_ERC20TokenBank/contracts/Bank.sol\":2626:2627  i */\n      dup3\n        /* \"04-Camps/08-UpChain_Camp_3_OpenSpace/0112_ERC20TokenBank/contracts/Bank.sol\":2626:2631  i - 1 */\n      tag_185\n      swap2\n      swap1\n      tag_141\n      jump\t// in\n    tag_185:\n        /* \"04-Camps/08-UpChain_Camp_3_OpenSpace/0112_ERC20TokenBank/contracts/Bank.sol\":2622:2623  j */\n      dup2\n        /* \"04-Camps/08-UpChain_Camp_3_OpenSpace/0112_ERC20TokenBank/contracts/Bank.sol\":2622:2631  j > i - 1 */\n      gt\n        /* \"04-Camps/08-UpChain_Camp_3_OpenSpace/0112_ERC20TokenBank/contracts/Bank.sol\":2605:2708  for (uint j = 2; j > i - 1; j--) {... */\n      iszero\n      tag_183\n      jumpi\n        /* \"04-Camps/08-UpChain_Camp_3_OpenSpace/0112_ERC20TokenBank/contracts/Bank.sol\":2674:2678  rank */\n      0x01\n        /* \"04-Camps/08-UpChain_Camp_3_OpenSpace/0112_ERC20TokenBank/contracts/Bank.sol\":2683:2684  1 */\n      dup1\n        /* \"04-Camps/08-UpChain_Camp_3_OpenSpace/0112_ERC20TokenBank/contracts/Bank.sol\":2679:2680  j */\n      dup3\n        /* \"04-Camps/08-UpChain_Camp_3_OpenSpace/0112_ERC20TokenBank/contracts/Bank.sol\":2679:2684  j - 1 */\n      tag_186\n      swap2\n      swap1\n      tag_141\n      jump\t// in\n    tag_186:\n        /* \"04-Camps/08-UpChain_Camp_3_OpenSpace/0112_ERC20TokenBank/contracts/Bank.sol\":2674:2685  rank[j - 1] */\n      0x03\n      dup2\n      lt\n      tag_187\n      jumpi\n      tag_188\n      tag_74\n      jump\t// in\n    tag_188:\n    tag_187:\n      add\n      0x00\n      swap1\n      sload\n      swap1\n      0x0100\n      exp\n      swap1\n      div\n      0xffffffffffffffffffffffffffffffffffffffff\n      and\n        /* \"04-Camps/08-UpChain_Camp_3_OpenSpace/0112_ERC20TokenBank/contracts/Bank.sol\":2664:2668  rank */\n      0x01\n        /* \"04-Camps/08-UpChain_Camp_3_OpenSpace/0112_ERC20TokenBank/contracts/Bank.sol\":2669:2670  j */\n      dup3\n        /* \"04-Camps/08-UpChain_Camp_3_OpenSpace/0112_ERC20TokenBank/contracts/Bank.sol\":2664:2671  rank[j] */\n      0x03\n      dup2\n      lt\n      tag_190\n      jumpi\n      tag_191\n      tag_74\n      jump\t// in\n    tag_191:\n    tag_190:\n      add\n      0x00\n        /* \"04-Camps/08-UpChain_Camp_3_OpenSpace/0112_ERC20TokenBank/contracts/Bank.sol\":2664:2685  rank[j] = rank[j - 1] */\n      0x0100\n      exp\n      dup2\n      sload\n      dup2\n      0xffffffffffffffffffffffffffffffffffffffff\n      mul\n      not\n      and\n      swap1\n      dup4\n      0xffffffffffffffffffffffffffffffffffffffff\n      and\n      mul\n      or\n      swap1\n      sstore\n      pop\n        /* \"04-Camps/08-UpChain_Camp_3_OpenSpace/0112_ERC20TokenBank/contracts/Bank.sol\":2633:2636  j-- */\n      dup1\n      dup1\n      tag_193\n      swap1\n      tag_161\n      jump\t// in\n    tag_193:\n      swap2\n      pop\n      pop\n        /* \"04-Camps/08-UpChain_Camp_3_OpenSpace/0112_ERC20TokenBank/contracts/Bank.sol\":2605:2708  for (uint j = 2; j > i - 1; j--) {... */\n      jump(tag_182)\n    tag_183:\n      pop\n        /* \"04-Camps/08-UpChain_Camp_3_OpenSpace/0112_ERC20TokenBank/contracts/Bank.sol\":2789:2790  0 */\n      0x00\n        /* \"04-Camps/08-UpChain_Camp_3_OpenSpace/0112_ERC20TokenBank/contracts/Bank.sol\":2774:2785  indexRecord */\n      dup3\n        /* \"04-Camps/08-UpChain_Camp_3_OpenSpace/0112_ERC20TokenBank/contracts/Bank.sol\":2774:2790  indexRecord == 0 */\n      sub\n        /* \"04-Camps/08-UpChain_Camp_3_OpenSpace/0112_ERC20TokenBank/contracts/Bank.sol\":2770:2871  if (indexRecord == 0) {... */\n      tag_194\n      jumpi\n        /* \"04-Camps/08-UpChain_Camp_3_OpenSpace/0112_ERC20TokenBank/contracts/Bank.sol\":2838:2848  msg.sender */\n      caller\n        /* \"04-Camps/08-UpChain_Camp_3_OpenSpace/0112_ERC20TokenBank/contracts/Bank.sol\":2818:2822  rank */\n      0x01\n        /* \"04-Camps/08-UpChain_Camp_3_OpenSpace/0112_ERC20TokenBank/contracts/Bank.sol\":2823:2834  indexRecord */\n      dup4\n        /* \"04-Camps/08-UpChain_Camp_3_OpenSpace/0112_ERC20TokenBank/contracts/Bank.sol\":2818:2835  rank[indexRecord] */\n      0x03\n      dup2\n      lt\n      tag_195\n      jumpi\n      tag_196\n      tag_74\n      jump\t// in\n    tag_196:\n    tag_195:\n      add\n      0x00\n        /* \"04-Camps/08-UpChain_Camp_3_OpenSpace/0112_ERC20TokenBank/contracts/Bank.sol\":2818:2848  rank[indexRecord] = msg.sender */\n      0x0100\n      exp\n      dup2\n      sload\n      dup2\n      0xffffffffffffffffffffffffffffffffffffffff\n      mul\n      not\n      and\n      swap1\n      dup4\n      0xffffffffffffffffffffffffffffffffffffffff\n      and\n      mul\n      or\n      swap1\n      sstore\n      pop\n        /* \"04-Camps/08-UpChain_Camp_3_OpenSpace/0112_ERC20TokenBank/contracts/Bank.sol\":2770:2871  if (indexRecord == 0) {... */\n    tag_194:\n        /* \"04-Camps/08-UpChain_Camp_3_OpenSpace/0112_ERC20TokenBank/contracts/Bank.sol\":2376:3038  if (ETHBalance[msg.sender] > ETHBalance[rank[i - 1]]) {... */\n      jump(tag_198)\n    tag_180:\n        /* \"04-Camps/08-UpChain_Camp_3_OpenSpace/0112_ERC20TokenBank/contracts/Bank.sol\":2936:2939  777 */\n      0x0309\n        /* \"04-Camps/08-UpChain_Camp_3_OpenSpace/0112_ERC20TokenBank/contracts/Bank.sol\":2921:2932  indexRecord */\n      dup3\n        /* \"04-Camps/08-UpChain_Camp_3_OpenSpace/0112_ERC20TokenBank/contracts/Bank.sol\":2921:2939  indexRecord != 777 */\n      eq\n        /* \"04-Camps/08-UpChain_Camp_3_OpenSpace/0112_ERC20TokenBank/contracts/Bank.sol\":2917:3020  if (indexRecord != 777) {... */\n      tag_199\n      jumpi\n        /* \"04-Camps/08-UpChain_Camp_3_OpenSpace/0112_ERC20TokenBank/contracts/Bank.sol\":2987:2997  msg.sender */\n      caller\n        /* \"04-Camps/08-UpChain_Camp_3_OpenSpace/0112_ERC20TokenBank/contracts/Bank.sol\":2967:2971  rank */\n      0x01\n        /* \"04-Camps/08-UpChain_Camp_3_OpenSpace/0112_ERC20TokenBank/contracts/Bank.sol\":2972:2983  indexRecord */\n      dup4\n        /* \"04-Camps/08-UpChain_Camp_3_OpenSpace/0112_ERC20TokenBank/contracts/Bank.sol\":2967:2984  rank[indexRecord] */\n      0x03\n      dup2\n      lt\n      tag_200\n      jumpi\n      tag_201\n      tag_74\n      jump\t// in\n    tag_201:\n    tag_200:\n      add\n      0x00\n        /* \"04-Camps/08-UpChain_Camp_3_OpenSpace/0112_ERC20TokenBank/contracts/Bank.sol\":2967:2997  rank[indexRecord] = msg.sender */\n      0x0100\n      exp\n      dup2\n      sload\n      dup2\n      0xffffffffffffffffffffffffffffffffffffffff\n      mul\n      not\n      and\n      swap1\n      dup4\n      0xffffffffffffffffffffffffffffffffffffffff\n      and\n      mul\n      or\n      swap1\n      sstore\n      pop\n        /* \"04-Camps/08-UpChain_Camp_3_OpenSpace/0112_ERC20TokenBank/contracts/Bank.sol\":2917:3020  if (indexRecord != 777) {... */\n    tag_199:\n        /* \"04-Camps/08-UpChain_Camp_3_OpenSpace/0112_ERC20TokenBank/contracts/Bank.sol\":2376:3038  if (ETHBalance[msg.sender] > ETHBalance[rank[i - 1]]) {... */\n    tag_198:\n        /* \"04-Camps/08-UpChain_Camp_3_OpenSpace/0112_ERC20TokenBank/contracts/Bank.sol\":2353:2356  i-- */\n      dup1\n      dup1\n      tag_203\n      swap1\n      tag_161\n      jump\t// in\n    tag_203:\n      swap2\n      pop\n      pop\n        /* \"04-Camps/08-UpChain_Camp_3_OpenSpace/0112_ERC20TokenBank/contracts/Bank.sol\":2329:3052  for (uint i = 3; i > 0; i--) {... */\n      jump(tag_173)\n    tag_174:\n      pop\n        /* \"04-Camps/08-UpChain_Camp_3_OpenSpace/0112_ERC20TokenBank/contracts/Bank.sol\":1331:3062  if (membershipIndex != 999) {... */\n    tag_172:\n        /* \"04-Camps/08-UpChain_Camp_3_OpenSpace/0112_ERC20TokenBank/contracts/Bank.sol\":1202:3068  {... */\n      pop\n      pop\n      pop\n        /* \"04-Camps/08-UpChain_Camp_3_OpenSpace/0112_ERC20TokenBank/contracts/Bank.sol\":1156:3068  function _handleRankWhenDepositETH() internal {... */\n      jump\t// out\n        /* \"04-Camps/08-UpChain_Camp_3_OpenSpace/0112_ERC20TokenBank/contracts/TokenBank.sol\":1539:3583  function _handleRankWhenDepositToken() internal {... */\n    tag_101:\n        /* \"04-Camps/08-UpChain_Camp_3_OpenSpace/0112_ERC20TokenBank/contracts/TokenBank.sol\":1597:1617  uint membershipIndex */\n      0x00\n        /* \"04-Camps/08-UpChain_Camp_3_OpenSpace/0112_ERC20TokenBank/contracts/TokenBank.sol\":1620:1647  _checkTokenRankMembership() */\n      tag_205\n        /* \"04-Camps/08-UpChain_Camp_3_OpenSpace/0112_ERC20TokenBank/contracts/TokenBank.sol\":1620:1645  _checkTokenRankMembership */\n      tag_206\n        /* \"04-Camps/08-UpChain_Camp_3_OpenSpace/0112_ERC20TokenBank/contracts/TokenBank.sol\":1620:1647  _checkTokenRankMembership() */\n      jump\t// in\n    tag_205:\n        /* \"04-Camps/08-UpChain_Camp_3_OpenSpace/0112_ERC20TokenBank/contracts/TokenBank.sol\":1597:1647  uint membershipIndex = _checkTokenRankMembership() */\n      swap1\n      pop\n        /* \"04-Camps/08-UpChain_Camp_3_OpenSpace/0112_ERC20TokenBank/contracts/TokenBank.sol\":1657:1676  uint convertedIndex */\n      0x00\n        /* \"04-Camps/08-UpChain_Camp_3_OpenSpace/0112_ERC20TokenBank/contracts/TokenBank.sol\":1686:1702  uint indexRecord */\n      dup1\n        /* \"04-Camps/08-UpChain_Camp_3_OpenSpace/0112_ERC20TokenBank/contracts/TokenBank.sol\":1705:1708  777 */\n      0x0309\n        /* \"04-Camps/08-UpChain_Camp_3_OpenSpace/0112_ERC20TokenBank/contracts/TokenBank.sol\":1686:1708  uint indexRecord = 777 */\n      swap1\n      pop\n        /* \"04-Camps/08-UpChain_Camp_3_OpenSpace/0112_ERC20TokenBank/contracts/TokenBank.sol\":1741:1744  999 */\n      0x03e7\n        /* \"04-Camps/08-UpChain_Camp_3_OpenSpace/0112_ERC20TokenBank/contracts/TokenBank.sol\":1722:1737  membershipIndex */\n      dup4\n        /* \"04-Camps/08-UpChain_Camp_3_OpenSpace/0112_ERC20TokenBank/contracts/TokenBank.sol\":1722:1744  membershipIndex != 999 */\n      eq\n        /* \"04-Camps/08-UpChain_Camp_3_OpenSpace/0112_ERC20TokenBank/contracts/TokenBank.sol\":1718:3577  if (membershipIndex != 999) {... */\n      tag_207\n      jumpi\n        /* \"04-Camps/08-UpChain_Camp_3_OpenSpace/0112_ERC20TokenBank/contracts/TokenBank.sol\":1862:1863  4 */\n      0x04\n        /* \"04-Camps/08-UpChain_Camp_3_OpenSpace/0112_ERC20TokenBank/contracts/TokenBank.sol\":1844:1859  membershipIndex */\n      dup4\n        /* \"04-Camps/08-UpChain_Camp_3_OpenSpace/0112_ERC20TokenBank/contracts/TokenBank.sol\":1844:1863  membershipIndex + 4 */\n      tag_208\n      swap2\n      swap1\n      tag_68\n      jump\t// in\n    tag_208:\n        /* \"04-Camps/08-UpChain_Camp_3_OpenSpace/0112_ERC20TokenBank/contracts/TokenBank.sol\":1827:1863  convertedIndex = membershipIndex + 4 */\n      swap2\n      pop\n        /* \"04-Camps/08-UpChain_Camp_3_OpenSpace/0112_ERC20TokenBank/contracts/TokenBank.sol\":1882:1888  uint i */\n      0x00\n        /* \"04-Camps/08-UpChain_Camp_3_OpenSpace/0112_ERC20TokenBank/contracts/TokenBank.sol\":1908:1909  3 */\n      0x03\n        /* \"04-Camps/08-UpChain_Camp_3_OpenSpace/0112_ERC20TokenBank/contracts/TokenBank.sol\":1891:1905  convertedIndex */\n      dup4\n        /* \"04-Camps/08-UpChain_Camp_3_OpenSpace/0112_ERC20TokenBank/contracts/TokenBank.sol\":1891:1909  convertedIndex - 3 */\n      tag_212\n      swap2\n      swap1\n      tag_141\n      jump\t// in\n    tag_212:\n        /* \"04-Camps/08-UpChain_Camp_3_OpenSpace/0112_ERC20TokenBank/contracts/TokenBank.sol\":1882:1909  uint i = convertedIndex - 3 */\n      swap1\n      pop\n        /* \"04-Camps/08-UpChain_Camp_3_OpenSpace/0112_ERC20TokenBank/contracts/TokenBank.sol\":1877:2722  for (uint i = convertedIndex - 3; i > 1; i--) {... */\n    tag_209:\n        /* \"04-Camps/08-UpChain_Camp_3_OpenSpace/0112_ERC20TokenBank/contracts/TokenBank.sol\":1915:1916  1 */\n      0x01\n        /* \"04-Camps/08-UpChain_Camp_3_OpenSpace/0112_ERC20TokenBank/contracts/TokenBank.sol\":1911:1912  i */\n      dup2\n        /* \"04-Camps/08-UpChain_Camp_3_OpenSpace/0112_ERC20TokenBank/contracts/TokenBank.sol\":1911:1916  i > 1 */\n      gt\n        /* \"04-Camps/08-UpChain_Camp_3_OpenSpace/0112_ERC20TokenBank/contracts/TokenBank.sol\":1877:2722  for (uint i = convertedIndex - 3; i > 1; i--) {... */\n      iszero\n      tag_210\n      jumpi\n        /* \"04-Camps/08-UpChain_Camp_3_OpenSpace/0112_ERC20TokenBank/contracts/TokenBank.sol\":1964:1965  0 */\n      0x00\n        /* \"04-Camps/08-UpChain_Camp_3_OpenSpace/0112_ERC20TokenBank/contracts/TokenBank.sol\":1945:1960  membershipIndex */\n      dup5\n        /* \"04-Camps/08-UpChain_Camp_3_OpenSpace/0112_ERC20TokenBank/contracts/TokenBank.sol\":1945:1965  membershipIndex != 0 */\n      eq\n        /* \"04-Camps/08-UpChain_Camp_3_OpenSpace/0112_ERC20TokenBank/contracts/TokenBank.sol\":1941:2708  if (membershipIndex != 0) {... */\n      tag_213\n      jumpi\n        /* \"04-Camps/08-UpChain_Camp_3_OpenSpace/0112_ERC20TokenBank/contracts/TokenBank.sol\":2069:2081  tokenBalance */\n      0x05\n        /* \"04-Camps/08-UpChain_Camp_3_OpenSpace/0112_ERC20TokenBank/contracts/TokenBank.sol\":2069:2099  tokenBalance[tokenRank[i - 2]] */\n      0x00\n        /* \"04-Camps/08-UpChain_Camp_3_OpenSpace/0112_ERC20TokenBank/contracts/TokenBank.sol\":2082:2091  tokenRank */\n      0x06\n        /* \"04-Camps/08-UpChain_Camp_3_OpenSpace/0112_ERC20TokenBank/contracts/TokenBank.sol\":2096:2097  2 */\n      0x02\n        /* \"04-Camps/08-UpChain_Camp_3_OpenSpace/0112_ERC20TokenBank/contracts/TokenBank.sol\":2092:2093  i */\n      dup5\n        /* \"04-Camps/08-UpChain_Camp_3_OpenSpace/0112_ERC20TokenBank/contracts/TokenBank.sol\":2092:2097  i - 2 */\n      tag_214\n      swap2\n      swap1\n      tag_141\n      jump\t// in\n    tag_214:\n        /* \"04-Camps/08-UpChain_Camp_3_OpenSpace/0112_ERC20TokenBank/contracts/TokenBank.sol\":2082:2098  tokenRank[i - 2] */\n      0x03\n      dup2\n      lt\n      tag_215\n      jumpi\n      tag_216\n      tag_74\n      jump\t// in\n    tag_216:\n    tag_215:\n      add\n      0x00\n      swap1\n      sload\n      swap1\n      0x0100\n      exp\n      swap1\n      div\n      0xffffffffffffffffffffffffffffffffffffffff\n      and\n        /* \"04-Camps/08-UpChain_Camp_3_OpenSpace/0112_ERC20TokenBank/contracts/TokenBank.sol\":2069:2099  tokenBalance[tokenRank[i - 2]] */\n      0xffffffffffffffffffffffffffffffffffffffff\n      and\n      0xffffffffffffffffffffffffffffffffffffffff\n      and\n      dup2\n      mstore\n      0x20\n      add\n      swap1\n      dup2\n      mstore\n      0x20\n      add\n      0x00\n      keccak256\n      sload\n        /* \"04-Camps/08-UpChain_Camp_3_OpenSpace/0112_ERC20TokenBank/contracts/TokenBank.sol\":2018:2030  tokenBalance */\n      0x05\n        /* \"04-Camps/08-UpChain_Camp_3_OpenSpace/0112_ERC20TokenBank/contracts/TokenBank.sol\":2018:2042  tokenBalance[msg.sender] */\n      0x00\n        /* \"04-Camps/08-UpChain_Camp_3_OpenSpace/0112_ERC20TokenBank/contracts/TokenBank.sol\":2031:2041  msg.sender */\n      caller\n        /* \"04-Camps/08-UpChain_Camp_3_OpenSpace/0112_ERC20TokenBank/contracts/TokenBank.sol\":2018:2042  tokenBalance[msg.sender] */\n      0xffffffffffffffffffffffffffffffffffffffff\n      and\n      0xffffffffffffffffffffffffffffffffffffffff\n      and\n      dup2\n      mstore\n      0x20\n      add\n      swap1\n      dup2\n      mstore\n      0x20\n      add\n      0x00\n      keccak256\n      sload\n        /* \"04-Camps/08-UpChain_Camp_3_OpenSpace/0112_ERC20TokenBank/contracts/TokenBank.sol\":2018:2099  tokenBalance[msg.sender] >... */\n      gt\n        /* \"04-Camps/08-UpChain_Camp_3_OpenSpace/0112_ERC20TokenBank/contracts/TokenBank.sol\":1989:2690  if (... */\n      iszero\n      tag_218\n      jumpi\n        /* \"04-Camps/08-UpChain_Camp_3_OpenSpace/0112_ERC20TokenBank/contracts/TokenBank.sol\":2166:2167  2 */\n      0x02\n        /* \"04-Camps/08-UpChain_Camp_3_OpenSpace/0112_ERC20TokenBank/contracts/TokenBank.sol\":2162:2163  i */\n      dup2\n        /* \"04-Camps/08-UpChain_Camp_3_OpenSpace/0112_ERC20TokenBank/contracts/TokenBank.sol\":2162:2167  i - 2 */\n      tag_219\n      swap2\n      swap1\n      tag_141\n      jump\t// in\n    tag_219:\n        /* \"04-Camps/08-UpChain_Camp_3_OpenSpace/0112_ERC20TokenBank/contracts/TokenBank.sol\":2148:2167  indexRecord = i - 2 */\n      swap2\n      pop\n        /* \"04-Camps/08-UpChain_Camp_3_OpenSpace/0112_ERC20TokenBank/contracts/TokenBank.sol\":2198:2204  uint j */\n      0x00\n        /* \"04-Camps/08-UpChain_Camp_3_OpenSpace/0112_ERC20TokenBank/contracts/TokenBank.sol\":2207:2208  2 */\n      0x02\n        /* \"04-Camps/08-UpChain_Camp_3_OpenSpace/0112_ERC20TokenBank/contracts/TokenBank.sol\":2198:2208  uint j = 2 */\n      swap1\n      pop\n        /* \"04-Camps/08-UpChain_Camp_3_OpenSpace/0112_ERC20TokenBank/contracts/TokenBank.sol\":2193:2314  for (uint j = 2; j > i - 2; j--) {... */\n    tag_220:\n        /* \"04-Camps/08-UpChain_Camp_3_OpenSpace/0112_ERC20TokenBank/contracts/TokenBank.sol\":2218:2219  2 */\n      0x02\n        /* \"04-Camps/08-UpChain_Camp_3_OpenSpace/0112_ERC20TokenBank/contracts/TokenBank.sol\":2214:2215  i */\n      dup3\n        /* \"04-Camps/08-UpChain_Camp_3_OpenSpace/0112_ERC20TokenBank/contracts/TokenBank.sol\":2214:2219  i - 2 */\n      tag_223\n      swap2\n      swap1\n      tag_141\n      jump\t// in\n    tag_223:\n        /* \"04-Camps/08-UpChain_Camp_3_OpenSpace/0112_ERC20TokenBank/contracts/TokenBank.sol\":2210:2211  j */\n      dup2\n        /* \"04-Camps/08-UpChain_Camp_3_OpenSpace/0112_ERC20TokenBank/contracts/TokenBank.sol\":2210:2219  j > i - 2 */\n      gt\n        /* \"04-Camps/08-UpChain_Camp_3_OpenSpace/0112_ERC20TokenBank/contracts/TokenBank.sol\":2193:2314  for (uint j = 2; j > i - 2; j--) {... */\n      iszero\n      tag_221\n      jumpi\n        /* \"04-Camps/08-UpChain_Camp_3_OpenSpace/0112_ERC20TokenBank/contracts/TokenBank.sol\":2271:2280  tokenRank */\n      0x06\n        /* \"04-Camps/08-UpChain_Camp_3_OpenSpace/0112_ERC20TokenBank/contracts/TokenBank.sol\":2285:2286  1 */\n      0x01\n        /* \"04-Camps/08-UpChain_Camp_3_OpenSpace/0112_ERC20TokenBank/contracts/TokenBank.sol\":2281:2282  j */\n      dup3\n        /* \"04-Camps/08-UpChain_Camp_3_OpenSpace/0112_ERC20TokenBank/contracts/TokenBank.sol\":2281:2286  j - 1 */\n      tag_224\n      swap2\n      swap1\n      tag_141\n      jump\t// in\n    tag_224:\n        /* \"04-Camps/08-UpChain_Camp_3_OpenSpace/0112_ERC20TokenBank/contracts/TokenBank.sol\":2271:2287  tokenRank[j - 1] */\n      0x03\n      dup2\n      lt\n      tag_225\n      jumpi\n      tag_226\n      tag_74\n      jump\t// in\n    tag_226:\n    tag_225:\n      add\n      0x00\n      swap1\n      sload\n      swap1\n      0x0100\n      exp\n      swap1\n      div\n      0xffffffffffffffffffffffffffffffffffffffff\n      and\n        /* \"04-Camps/08-UpChain_Camp_3_OpenSpace/0112_ERC20TokenBank/contracts/TokenBank.sol\":2256:2265  tokenRank */\n      0x06\n        /* \"04-Camps/08-UpChain_Camp_3_OpenSpace/0112_ERC20TokenBank/contracts/TokenBank.sol\":2266:2267  j */\n      dup3\n        /* \"04-Camps/08-UpChain_Camp_3_OpenSpace/0112_ERC20TokenBank/contracts/TokenBank.sol\":2256:2268  tokenRank[j] */\n      0x03\n      dup2\n      lt\n      tag_228\n      jumpi\n      tag_229\n      tag_74\n      jump\t// in\n    tag_229:\n    tag_228:\n      add\n      0x00\n        /* \"04-Camps/08-UpChain_Camp_3_OpenSpace/0112_ERC20TokenBank/contracts/TokenBank.sol\":2256:2287  tokenRank[j] = tokenRank[j - 1] */\n      0x0100\n      exp\n      dup2\n      sload\n      dup2\n      0xffffffffffffffffffffffffffffffffffffffff\n      mul\n      not\n      and\n      swap1\n      dup4\n      0xffffffffffffffffffffffffffffffffffffffff\n      and\n      mul\n      or\n      swap1\n      sstore\n      pop\n        /* \"04-Camps/08-UpChain_Camp_3_OpenSpace/0112_ERC20TokenBank/contracts/TokenBank.sol\":2221:2224  j-- */\n      dup1\n      dup1\n      tag_231\n      swap1\n      tag_161\n      jump\t// in\n    tag_231:\n      swap2\n      pop\n      pop\n        /* \"04-Camps/08-UpChain_Camp_3_OpenSpace/0112_ERC20TokenBank/contracts/TokenBank.sol\":2193:2314  for (uint j = 2; j > i - 2; j--) {... */\n      jump(tag_220)\n    tag_221:\n      pop\n        /* \"04-Camps/08-UpChain_Camp_3_OpenSpace/0112_ERC20TokenBank/contracts/TokenBank.sol\":2403:2404  0 */\n      0x00\n        /* \"04-Camps/08-UpChain_Camp_3_OpenSpace/0112_ERC20TokenBank/contracts/TokenBank.sol\":2388:2399  indexRecord */\n      dup3\n        /* \"04-Camps/08-UpChain_Camp_3_OpenSpace/0112_ERC20TokenBank/contracts/TokenBank.sol\":2388:2404  indexRecord == 0 */\n      sub\n        /* \"04-Camps/08-UpChain_Camp_3_OpenSpace/0112_ERC20TokenBank/contracts/TokenBank.sol\":2384:2498  if (indexRecord == 0) {... */\n      tag_232\n      jumpi\n        /* \"04-Camps/08-UpChain_Camp_3_OpenSpace/0112_ERC20TokenBank/contracts/TokenBank.sol\":2461:2471  msg.sender */\n      caller\n        /* \"04-Camps/08-UpChain_Camp_3_OpenSpace/0112_ERC20TokenBank/contracts/TokenBank.sol\":2436:2445  tokenRank */\n      0x06\n        /* \"04-Camps/08-UpChain_Camp_3_OpenSpace/0112_ERC20TokenBank/contracts/TokenBank.sol\":2446:2457  indexRecord */\n      dup4\n        /* \"04-Camps/08-UpChain_Camp_3_OpenSpace/0112_ERC20TokenBank/contracts/TokenBank.sol\":2436:2458  tokenRank[indexRecord] */\n      0x03\n      dup2\n      lt\n      tag_233\n      jumpi\n      tag_234\n      tag_74\n      jump\t// in\n    tag_234:\n    tag_233:\n      add\n      0x00\n        /* \"04-Camps/08-UpChain_Camp_3_OpenSpace/0112_ERC20TokenBank/contracts/TokenBank.sol\":2436:2471  tokenRank[indexRecord] = msg.sender */\n      0x0100\n      exp\n      dup2\n      sload\n      dup2\n      0xffffffffffffffffffffffffffffffffffffffff\n      mul\n      not\n      and\n      swap1\n      dup4\n      0xffffffffffffffffffffffffffffffffffffffff\n      and\n      mul\n      or\n      swap1\n      sstore\n      pop\n        /* \"04-Camps/08-UpChain_Camp_3_OpenSpace/0112_ERC20TokenBank/contracts/TokenBank.sol\":2384:2498  if (indexRecord == 0) {... */\n    tag_232:\n        /* \"04-Camps/08-UpChain_Camp_3_OpenSpace/0112_ERC20TokenBank/contracts/TokenBank.sol\":1989:2690  if (... */\n      jump(tag_236)\n    tag_218:\n        /* \"04-Camps/08-UpChain_Camp_3_OpenSpace/0112_ERC20TokenBank/contracts/TokenBank.sol\":2571:2574  777 */\n      0x0309\n        /* \"04-Camps/08-UpChain_Camp_3_OpenSpace/0112_ERC20TokenBank/contracts/TokenBank.sol\":2556:2567  indexRecord */\n      dup3\n        /* \"04-Camps/08-UpChain_Camp_3_OpenSpace/0112_ERC20TokenBank/contracts/TokenBank.sol\":2556:2574  indexRecord != 777 */\n      eq\n        /* \"04-Camps/08-UpChain_Camp_3_OpenSpace/0112_ERC20TokenBank/contracts/TokenBank.sol\":2552:2668  if (indexRecord != 777) {... */\n      tag_237\n      jumpi\n        /* \"04-Camps/08-UpChain_Camp_3_OpenSpace/0112_ERC20TokenBank/contracts/TokenBank.sol\":2631:2641  msg.sender */\n      caller\n        /* \"04-Camps/08-UpChain_Camp_3_OpenSpace/0112_ERC20TokenBank/contracts/TokenBank.sol\":2606:2615  tokenRank */\n      0x06\n        /* \"04-Camps/08-UpChain_Camp_3_OpenSpace/0112_ERC20TokenBank/contracts/TokenBank.sol\":2616:2627  indexRecord */\n      dup4\n        /* \"04-Camps/08-UpChain_Camp_3_OpenSpace/0112_ERC20TokenBank/contracts/TokenBank.sol\":2606:2628  tokenRank[indexRecord] */\n      0x03\n      dup2\n      lt\n      tag_238\n      jumpi\n      tag_239\n      tag_74\n      jump\t// in\n    tag_239:\n    tag_238:\n      add\n      0x00\n        /* \"04-Camps/08-UpChain_Camp_3_OpenSpace/0112_ERC20TokenBank/contracts/TokenBank.sol\":2606:2641  tokenRank[indexRecord] = msg.sender */\n      0x0100\n      exp\n      dup2\n      sload\n      dup2\n      0xffffffffffffffffffffffffffffffffffffffff\n      mul\n      not\n      and\n      swap1\n      dup4\n      0xffffffffffffffffffffffffffffffffffffffff\n      and\n      mul\n      or\n      swap1\n      sstore\n      pop\n        /* \"04-Camps/08-UpChain_Camp_3_OpenSpace/0112_ERC20TokenBank/contracts/TokenBank.sol\":2552:2668  if (indexRecord != 777) {... */\n    tag_237:\n        /* \"04-Camps/08-UpChain_Camp_3_OpenSpace/0112_ERC20TokenBank/contracts/TokenBank.sol\":1989:2690  if (... */\n    tag_236:\n        /* \"04-Camps/08-UpChain_Camp_3_OpenSpace/0112_ERC20TokenBank/contracts/TokenBank.sol\":1941:2708  if (membershipIndex != 0) {... */\n    tag_213:\n        /* \"04-Camps/08-UpChain_Camp_3_OpenSpace/0112_ERC20TokenBank/contracts/TokenBank.sol\":1918:1921  i-- */\n      dup1\n      dup1\n      tag_241\n      swap1\n      tag_161\n      jump\t// in\n    tag_241:\n      swap2\n      pop\n      pop\n        /* \"04-Camps/08-UpChain_Camp_3_OpenSpace/0112_ERC20TokenBank/contracts/TokenBank.sol\":1877:2722  for (uint i = convertedIndex - 3; i > 1; i--) {... */\n      jump(tag_209)\n    tag_210:\n      pop\n        /* \"04-Camps/08-UpChain_Camp_3_OpenSpace/0112_ERC20TokenBank/contracts/TokenBank.sol\":1718:3577  if (membershipIndex != 999) {... */\n      jump(tag_242)\n    tag_207:\n        /* \"04-Camps/08-UpChain_Camp_3_OpenSpace/0112_ERC20TokenBank/contracts/TokenBank.sol\":2820:2826  uint i */\n      0x00\n        /* \"04-Camps/08-UpChain_Camp_3_OpenSpace/0112_ERC20TokenBank/contracts/TokenBank.sol\":2829:2830  3 */\n      0x03\n        /* \"04-Camps/08-UpChain_Camp_3_OpenSpace/0112_ERC20TokenBank/contracts/TokenBank.sol\":2820:2830  uint i = 3 */\n      swap1\n      pop\n        /* \"04-Camps/08-UpChain_Camp_3_OpenSpace/0112_ERC20TokenBank/contracts/TokenBank.sol\":2815:3567  for (uint i = 3; i > 0; i--) {... */\n    tag_243:\n        /* \"04-Camps/08-UpChain_Camp_3_OpenSpace/0112_ERC20TokenBank/contracts/TokenBank.sol\":2836:2837  0 */\n      0x00\n        /* \"04-Camps/08-UpChain_Camp_3_OpenSpace/0112_ERC20TokenBank/contracts/TokenBank.sol\":2832:2833  i */\n      dup2\n        /* \"04-Camps/08-UpChain_Camp_3_OpenSpace/0112_ERC20TokenBank/contracts/TokenBank.sol\":2832:2837  i > 0 */\n      gt\n        /* \"04-Camps/08-UpChain_Camp_3_OpenSpace/0112_ERC20TokenBank/contracts/TokenBank.sol\":2815:3567  for (uint i = 3; i > 0; i--) {... */\n      iszero\n      tag_244\n      jumpi\n        /* \"04-Camps/08-UpChain_Camp_3_OpenSpace/0112_ERC20TokenBank/contracts/TokenBank.sol\":2893:2905  tokenBalance */\n      0x05\n        /* \"04-Camps/08-UpChain_Camp_3_OpenSpace/0112_ERC20TokenBank/contracts/TokenBank.sol\":2893:2923  tokenBalance[tokenRank[i - 1]] */\n      0x00\n        /* \"04-Camps/08-UpChain_Camp_3_OpenSpace/0112_ERC20TokenBank/contracts/TokenBank.sol\":2906:2915  tokenRank */\n      0x06\n        /* \"04-Camps/08-UpChain_Camp_3_OpenSpace/0112_ERC20TokenBank/contracts/TokenBank.sol\":2920:2921  1 */\n      0x01\n        /* \"04-Camps/08-UpChain_Camp_3_OpenSpace/0112_ERC20TokenBank/contracts/TokenBank.sol\":2916:2917  i */\n      dup5\n        /* \"04-Camps/08-UpChain_Camp_3_OpenSpace/0112_ERC20TokenBank/contracts/TokenBank.sol\":2916:2921  i - 1 */\n      tag_246\n      swap2\n      swap1\n      tag_141\n      jump\t// in\n    tag_246:\n        /* \"04-Camps/08-UpChain_Camp_3_OpenSpace/0112_ERC20TokenBank/contracts/TokenBank.sol\":2906:2922  tokenRank[i - 1] */\n      0x03\n      dup2\n      lt\n      tag_247\n      jumpi\n      tag_248\n      tag_74\n      jump\t// in\n    tag_248:\n    tag_247:\n      add\n      0x00\n      swap1\n      sload\n      swap1\n      0x0100\n      exp\n      swap1\n      div\n      0xffffffffffffffffffffffffffffffffffffffff\n      and\n        /* \"04-Camps/08-UpChain_Camp_3_OpenSpace/0112_ERC20TokenBank/contracts/TokenBank.sol\":2893:2923  tokenBalance[tokenRank[i - 1]] */\n      0xffffffffffffffffffffffffffffffffffffffff\n      and\n      0xffffffffffffffffffffffffffffffffffffffff\n      and\n      dup2\n      mstore\n      0x20\n      add\n      swap1\n      dup2\n      mstore\n      0x20\n      add\n      0x00\n      keccak256\n      sload\n        /* \"04-Camps/08-UpChain_Camp_3_OpenSpace/0112_ERC20TokenBank/contracts/TokenBank.sol\":2866:2878  tokenBalance */\n      0x05\n        /* \"04-Camps/08-UpChain_Camp_3_OpenSpace/0112_ERC20TokenBank/contracts/TokenBank.sol\":2866:2890  tokenBalance[msg.sender] */\n      0x00\n        /* \"04-Camps/08-UpChain_Camp_3_OpenSpace/0112_ERC20TokenBank/contracts/TokenBank.sol\":2879:2889  msg.sender */\n      caller\n        /* \"04-Camps/08-UpChain_Camp_3_OpenSpace/0112_ERC20TokenBank/contracts/TokenBank.sol\":2866:2890  tokenBalance[msg.sender] */\n      0xffffffffffffffffffffffffffffffffffffffff\n      and\n      0xffffffffffffffffffffffffffffffffffffffff\n      and\n      dup2\n      mstore\n      0x20\n      add\n      swap1\n      dup2\n      mstore\n      0x20\n      add\n      0x00\n      keccak256\n      sload\n        /* \"04-Camps/08-UpChain_Camp_3_OpenSpace/0112_ERC20TokenBank/contracts/TokenBank.sol\":2866:2923  tokenBalance[msg.sender] > tokenBalance[tokenRank[i - 1]] */\n      gt\n        /* \"04-Camps/08-UpChain_Camp_3_OpenSpace/0112_ERC20TokenBank/contracts/TokenBank.sol\":2862:3553  if (tokenBalance[msg.sender] > tokenBalance[tokenRank[i - 1]]) {... */\n      iszero\n      tag_250\n      jumpi\n        /* \"04-Camps/08-UpChain_Camp_3_OpenSpace/0112_ERC20TokenBank/contracts/TokenBank.sol\":2965:2966  1 */\n      0x01\n        /* \"04-Camps/08-UpChain_Camp_3_OpenSpace/0112_ERC20TokenBank/contracts/TokenBank.sol\":2961:2962  i */\n      dup2\n        /* \"04-Camps/08-UpChain_Camp_3_OpenSpace/0112_ERC20TokenBank/contracts/TokenBank.sol\":2961:2966  i - 1 */\n      tag_251\n      swap2\n      swap1\n      tag_141\n      jump\t// in\n    tag_251:\n        /* \"04-Camps/08-UpChain_Camp_3_OpenSpace/0112_ERC20TokenBank/contracts/TokenBank.sol\":2947:2966  indexRecord = i - 1 */\n      swap2\n      pop\n        /* \"04-Camps/08-UpChain_Camp_3_OpenSpace/0112_ERC20TokenBank/contracts/TokenBank.sol\":3105:3111  uint j */\n      0x00\n        /* \"04-Camps/08-UpChain_Camp_3_OpenSpace/0112_ERC20TokenBank/contracts/TokenBank.sol\":3114:3115  2 */\n      0x02\n        /* \"04-Camps/08-UpChain_Camp_3_OpenSpace/0112_ERC20TokenBank/contracts/TokenBank.sol\":3105:3115  uint j = 2 */\n      swap1\n      pop\n        /* \"04-Camps/08-UpChain_Camp_3_OpenSpace/0112_ERC20TokenBank/contracts/TokenBank.sol\":3100:3213  for (uint j = 2; j > i - 1; j--) {... */\n    tag_252:\n        /* \"04-Camps/08-UpChain_Camp_3_OpenSpace/0112_ERC20TokenBank/contracts/TokenBank.sol\":3125:3126  1 */\n      0x01\n        /* \"04-Camps/08-UpChain_Camp_3_OpenSpace/0112_ERC20TokenBank/contracts/TokenBank.sol\":3121:3122  i */\n      dup3\n        /* \"04-Camps/08-UpChain_Camp_3_OpenSpace/0112_ERC20TokenBank/contracts/TokenBank.sol\":3121:3126  i - 1 */\n      tag_255\n      swap2\n      swap1\n      tag_141\n      jump\t// in\n    tag_255:\n        /* \"04-Camps/08-UpChain_Camp_3_OpenSpace/0112_ERC20TokenBank/contracts/TokenBank.sol\":3117:3118  j */\n      dup2\n        /* \"04-Camps/08-UpChain_Camp_3_OpenSpace/0112_ERC20TokenBank/contracts/TokenBank.sol\":3117:3126  j > i - 1 */\n      gt\n        /* \"04-Camps/08-UpChain_Camp_3_OpenSpace/0112_ERC20TokenBank/contracts/TokenBank.sol\":3100:3213  for (uint j = 2; j > i - 1; j--) {... */\n      iszero\n      tag_253\n      jumpi\n        /* \"04-Camps/08-UpChain_Camp_3_OpenSpace/0112_ERC20TokenBank/contracts/TokenBank.sol\":3174:3183  tokenRank */\n      0x06\n        /* \"04-Camps/08-UpChain_Camp_3_OpenSpace/0112_ERC20TokenBank/contracts/TokenBank.sol\":3188:3189  1 */\n      0x01\n        /* \"04-Camps/08-UpChain_Camp_3_OpenSpace/0112_ERC20TokenBank/contracts/TokenBank.sol\":3184:3185  j */\n      dup3\n        /* \"04-Camps/08-UpChain_Camp_3_OpenSpace/0112_ERC20TokenBank/contracts/TokenBank.sol\":3184:3189  j - 1 */\n      tag_256\n      swap2\n      swap1\n      tag_141\n      jump\t// in\n    tag_256:\n        /* \"04-Camps/08-UpChain_Camp_3_OpenSpace/0112_ERC20TokenBank/contracts/TokenBank.sol\":3174:3190  tokenRank[j - 1] */\n      0x03\n      dup2\n      lt\n      tag_257\n      jumpi\n      tag_258\n      tag_74\n      jump\t// in\n    tag_258:\n    tag_257:\n      add\n      0x00\n      swap1\n      sload\n      swap1\n      0x0100\n      exp\n      swap1\n      div\n      0xffffffffffffffffffffffffffffffffffffffff\n      and\n        /* \"04-Camps/08-UpChain_Camp_3_OpenSpace/0112_ERC20TokenBank/contracts/TokenBank.sol\":3159:3168  tokenRank */\n      0x06\n        /* \"04-Camps/08-UpChain_Camp_3_OpenSpace/0112_ERC20TokenBank/contracts/TokenBank.sol\":3169:3170  j */\n      dup3\n        /* \"04-Camps/08-UpChain_Camp_3_OpenSpace/0112_ERC20TokenBank/contracts/TokenBank.sol\":3159:3171  tokenRank[j] */\n      0x03\n      dup2\n      lt\n      tag_260\n      jumpi\n      tag_261\n      tag_74\n      jump\t// in\n    tag_261:\n    tag_260:\n      add\n      0x00\n        /* \"04-Camps/08-UpChain_Camp_3_OpenSpace/0112_ERC20TokenBank/contracts/TokenBank.sol\":3159:3190  tokenRank[j] = tokenRank[j - 1] */\n      0x0100\n      exp\n      dup2\n      sload\n      dup2\n      0xffffffffffffffffffffffffffffffffffffffff\n      mul\n      not\n      and\n      swap1\n      dup4\n      0xffffffffffffffffffffffffffffffffffffffff\n      and\n      mul\n      or\n      swap1\n      sstore\n      pop\n        /* \"04-Camps/08-UpChain_Camp_3_OpenSpace/0112_ERC20TokenBank/contracts/TokenBank.sol\":3128:3131  j-- */\n      dup1\n      dup1\n      tag_263\n      swap1\n      tag_161\n      jump\t// in\n    tag_263:\n      swap2\n      pop\n      pop\n        /* \"04-Camps/08-UpChain_Camp_3_OpenSpace/0112_ERC20TokenBank/contracts/TokenBank.sol\":3100:3213  for (uint j = 2; j > i - 1; j--) {... */\n      jump(tag_252)\n    tag_253:\n      pop\n        /* \"04-Camps/08-UpChain_Camp_3_OpenSpace/0112_ERC20TokenBank/contracts/TokenBank.sol\":3294:3295  0 */\n      0x00\n        /* \"04-Camps/08-UpChain_Camp_3_OpenSpace/0112_ERC20TokenBank/contracts/TokenBank.sol\":3279:3290  indexRecord */\n      dup3\n        /* \"04-Camps/08-UpChain_Camp_3_OpenSpace/0112_ERC20TokenBank/contracts/TokenBank.sol\":3279:3295  indexRecord == 0 */\n      sub\n        /* \"04-Camps/08-UpChain_Camp_3_OpenSpace/0112_ERC20TokenBank/contracts/TokenBank.sol\":3275:3381  if (indexRecord == 0) {... */\n      tag_264\n      jumpi\n        /* \"04-Camps/08-UpChain_Camp_3_OpenSpace/0112_ERC20TokenBank/contracts/TokenBank.sol\":3348:3358  msg.sender */\n      caller\n        /* \"04-Camps/08-UpChain_Camp_3_OpenSpace/0112_ERC20TokenBank/contracts/TokenBank.sol\":3323:3332  tokenRank */\n      0x06\n        /* \"04-Camps/08-UpChain_Camp_3_OpenSpace/0112_ERC20TokenBank/contracts/TokenBank.sol\":3333:3344  indexRecord */\n      dup4\n        /* \"04-Camps/08-UpChain_Camp_3_OpenSpace/0112_ERC20TokenBank/contracts/TokenBank.sol\":3323:3345  tokenRank[indexRecord] */\n      0x03\n      dup2\n      lt\n      tag_265\n      jumpi\n      tag_266\n      tag_74\n      jump\t// in\n    tag_266:\n    tag_265:\n      add\n      0x00\n        /* \"04-Camps/08-UpChain_Camp_3_OpenSpace/0112_ERC20TokenBank/contracts/TokenBank.sol\":3323:3358  tokenRank[indexRecord] = msg.sender */\n      0x0100\n      exp\n      dup2\n      sload\n      dup2\n      0xffffffffffffffffffffffffffffffffffffffff\n      mul\n      not\n      and\n      swap1\n      dup4\n      0xffffffffffffffffffffffffffffffffffffffff\n      and\n      mul\n      or\n      swap1\n      sstore\n      pop\n        /* \"04-Camps/08-UpChain_Camp_3_OpenSpace/0112_ERC20TokenBank/contracts/TokenBank.sol\":3275:3381  if (indexRecord == 0) {... */\n    tag_264:\n        /* \"04-Camps/08-UpChain_Camp_3_OpenSpace/0112_ERC20TokenBank/contracts/TokenBank.sol\":2862:3553  if (tokenBalance[msg.sender] > tokenBalance[tokenRank[i - 1]]) {... */\n      jump(tag_268)\n    tag_250:\n        /* \"04-Camps/08-UpChain_Camp_3_OpenSpace/0112_ERC20TokenBank/contracts/TokenBank.sol\":3446:3449  777 */\n      0x0309\n        /* \"04-Camps/08-UpChain_Camp_3_OpenSpace/0112_ERC20TokenBank/contracts/TokenBank.sol\":3431:3442  indexRecord */\n      dup3\n        /* \"04-Camps/08-UpChain_Camp_3_OpenSpace/0112_ERC20TokenBank/contracts/TokenBank.sol\":3431:3449  indexRecord != 777 */\n      eq\n        /* \"04-Camps/08-UpChain_Camp_3_OpenSpace/0112_ERC20TokenBank/contracts/TokenBank.sol\":3427:3535  if (indexRecord != 777) {... */\n      tag_269\n      jumpi\n        /* \"04-Camps/08-UpChain_Camp_3_OpenSpace/0112_ERC20TokenBank/contracts/TokenBank.sol\":3502:3512  msg.sender */\n      caller\n        /* \"04-Camps/08-UpChain_Camp_3_OpenSpace/0112_ERC20TokenBank/contracts/TokenBank.sol\":3477:3486  tokenRank */\n      0x06\n        /* \"04-Camps/08-UpChain_Camp_3_OpenSpace/0112_ERC20TokenBank/contracts/TokenBank.sol\":3487:3498  indexRecord */\n      dup4\n        /* \"04-Camps/08-UpChain_Camp_3_OpenSpace/0112_ERC20TokenBank/contracts/TokenBank.sol\":3477:3499  tokenRank[indexRecord] */\n      0x03\n      dup2\n      lt\n      tag_270\n      jumpi\n      tag_271\n      tag_74\n      jump\t// in\n    tag_271:\n    tag_270:\n      add\n      0x00\n        /* \"04-Camps/08-UpChain_Camp_3_OpenSpace/0112_ERC20TokenBank/contracts/TokenBank.sol\":3477:3512  tokenRank[indexRecord] = msg.sender */\n      0x0100\n      exp\n      dup2\n      sload\n      dup2\n      0xffffffffffffffffffffffffffffffffffffffff\n      mul\n      not\n      and\n      swap1\n      dup4\n      0xffffffffffffffffffffffffffffffffffffffff\n      and\n      mul\n      or\n      swap1\n      sstore\n      pop\n        /* \"04-Camps/08-UpChain_Camp_3_OpenSpace/0112_ERC20TokenBank/contracts/TokenBank.sol\":3427:3535  if (indexRecord != 777) {... */\n    tag_269:\n        /* \"04-Camps/08-UpChain_Camp_3_OpenSpace/0112_ERC20TokenBank/contracts/TokenBank.sol\":2862:3553  if (tokenBalance[msg.sender] > tokenBalance[tokenRank[i - 1]]) {... */\n    tag_268:\n        /* \"04-Camps/08-UpChain_Camp_3_OpenSpace/0112_ERC20TokenBank/contracts/TokenBank.sol\":2839:2842  i-- */\n      dup1\n      dup1\n      tag_273\n      swap1\n      tag_161\n      jump\t// in\n    tag_273:\n      swap2\n      pop\n      pop\n        /* \"04-Camps/08-UpChain_Camp_3_OpenSpace/0112_ERC20TokenBank/contracts/TokenBank.sol\":2815:3567  for (uint i = 3; i > 0; i--) {... */\n      jump(tag_243)\n    tag_244:\n      pop\n        /* \"04-Camps/08-UpChain_Camp_3_OpenSpace/0112_ERC20TokenBank/contracts/TokenBank.sol\":1718:3577  if (membershipIndex != 999) {... */\n    tag_242:\n        /* \"04-Camps/08-UpChain_Camp_3_OpenSpace/0112_ERC20TokenBank/contracts/TokenBank.sol\":1587:3583  {... */\n      pop\n      pop\n      pop\n        /* \"04-Camps/08-UpChain_Camp_3_OpenSpace/0112_ERC20TokenBank/contracts/TokenBank.sol\":1539:3583  function _handleRankWhenDepositToken() internal {... */\n      jump\t// out\n        /* \"04-Camps/08-UpChain_Camp_3_OpenSpace/0112_ERC20TokenBank/contracts/Bank.sol\":3074:3347  function _checkETHRankMembership() internal view returns (uint) {... */\n    tag_134:\n        /* \"04-Camps/08-UpChain_Camp_3_OpenSpace/0112_ERC20TokenBank/contracts/Bank.sol\":3132:3136  uint */\n      0x00\n        /* \"04-Camps/08-UpChain_Camp_3_OpenSpace/0112_ERC20TokenBank/contracts/Bank.sol\":3148:3158  uint index */\n      dup1\n        /* \"04-Camps/08-UpChain_Camp_3_OpenSpace/0112_ERC20TokenBank/contracts/Bank.sol\":3161:3164  999 */\n      0x03e7\n        /* \"04-Camps/08-UpChain_Camp_3_OpenSpace/0112_ERC20TokenBank/contracts/Bank.sol\":3148:3164  uint index = 999 */\n      swap1\n      pop\n        /* \"04-Camps/08-UpChain_Camp_3_OpenSpace/0112_ERC20TokenBank/contracts/Bank.sol\":3179:3185  uint i */\n      0x00\n        /* \"04-Camps/08-UpChain_Camp_3_OpenSpace/0112_ERC20TokenBank/contracts/Bank.sol\":3174:3319  for (uint i = 0; i < 3; i++) {... */\n    tag_275:\n        /* \"04-Camps/08-UpChain_Camp_3_OpenSpace/0112_ERC20TokenBank/contracts/Bank.sol\":3195:3196  3 */\n      0x03\n        /* \"04-Camps/08-UpChain_Camp_3_OpenSpace/0112_ERC20TokenBank/contracts/Bank.sol\":3191:3192  i */\n      dup2\n        /* \"04-Camps/08-UpChain_Camp_3_OpenSpace/0112_ERC20TokenBank/contracts/Bank.sol\":3191:3196  i < 3 */\n      lt\n        /* \"04-Camps/08-UpChain_Camp_3_OpenSpace/0112_ERC20TokenBank/contracts/Bank.sol\":3174:3319  for (uint i = 0; i < 3; i++) {... */\n      iszero\n      tag_276\n      jumpi\n        /* \"04-Camps/08-UpChain_Camp_3_OpenSpace/0112_ERC20TokenBank/contracts/Bank.sol\":3232:3242  msg.sender */\n      caller\n        /* \"04-Camps/08-UpChain_Camp_3_OpenSpace/0112_ERC20TokenBank/contracts/Bank.sol\":3221:3242  rank[i] == msg.sender */\n      0xffffffffffffffffffffffffffffffffffffffff\n      and\n        /* \"04-Camps/08-UpChain_Camp_3_OpenSpace/0112_ERC20TokenBank/contracts/Bank.sol\":3221:3225  rank */\n      0x01\n        /* \"04-Camps/08-UpChain_Camp_3_OpenSpace/0112_ERC20TokenBank/contracts/Bank.sol\":3226:3227  i */\n      dup3\n        /* \"04-Camps/08-UpChain_Camp_3_OpenSpace/0112_ERC20TokenBank/contracts/Bank.sol\":3221:3228  rank[i] */\n      0x03\n      dup2\n      lt\n      tag_278\n      jumpi\n      tag_279\n      tag_74\n      jump\t// in\n    tag_279:\n    tag_278:\n      add\n      0x00\n      swap1\n      sload\n      swap1\n      0x0100\n      exp\n      swap1\n      div\n      0xffffffffffffffffffffffffffffffffffffffff\n      and\n        /* \"04-Camps/08-UpChain_Camp_3_OpenSpace/0112_ERC20TokenBank/contracts/Bank.sol\":3221:3242  rank[i] == msg.sender */\n      0xffffffffffffffffffffffffffffffffffffffff\n      and\n      sub\n        /* \"04-Camps/08-UpChain_Camp_3_OpenSpace/0112_ERC20TokenBank/contracts/Bank.sol\":3217:3309  if (rank[i] == msg.sender) {... */\n      tag_281\n      jumpi\n        /* \"04-Camps/08-UpChain_Camp_3_OpenSpace/0112_ERC20TokenBank/contracts/Bank.sol\":3270:3271  i */\n      dup1\n        /* \"04-Camps/08-UpChain_Camp_3_OpenSpace/0112_ERC20TokenBank/contracts/Bank.sol\":3262:3271  index = i */\n      swap2\n      pop\n        /* \"04-Camps/08-UpChain_Camp_3_OpenSpace/0112_ERC20TokenBank/contracts/Bank.sol\":3289:3294  break */\n      jump(tag_276)\n        /* \"04-Camps/08-UpChain_Camp_3_OpenSpace/0112_ERC20TokenBank/contracts/Bank.sol\":3217:3309  if (rank[i] == msg.sender) {... */\n    tag_281:\n        /* \"04-Camps/08-UpChain_Camp_3_OpenSpace/0112_ERC20TokenBank/contracts/Bank.sol\":3198:3201  i++ */\n      dup1\n      dup1\n      tag_282\n      swap1\n      tag_283\n      jump\t// in\n    tag_282:\n      swap2\n      pop\n      pop\n        /* \"04-Camps/08-UpChain_Camp_3_OpenSpace/0112_ERC20TokenBank/contracts/Bank.sol\":3174:3319  for (uint i = 0; i < 3; i++) {... */\n      jump(tag_275)\n    tag_276:\n      pop\n        /* \"04-Camps/08-UpChain_Camp_3_OpenSpace/0112_ERC20TokenBank/contracts/Bank.sol\":3335:3340  index */\n      dup1\n        /* \"04-Camps/08-UpChain_Camp_3_OpenSpace/0112_ERC20TokenBank/contracts/Bank.sol\":3328:3340  return index */\n      swap2\n      pop\n      pop\n        /* \"04-Camps/08-UpChain_Camp_3_OpenSpace/0112_ERC20TokenBank/contracts/Bank.sol\":3074:3347  function _checkETHRankMembership() internal view returns (uint) {... */\n      swap1\n      jump\t// out\n        /* \"04-Camps/08-UpChain_Camp_3_OpenSpace/0112_ERC20TokenBank/contracts/TokenBank.sol\":3589:3869  function _checkTokenRankMembership() internal view returns (uint) {... */\n    tag_206:\n        /* \"04-Camps/08-UpChain_Camp_3_OpenSpace/0112_ERC20TokenBank/contracts/TokenBank.sol\":3649:3653  uint */\n      0x00\n        /* \"04-Camps/08-UpChain_Camp_3_OpenSpace/0112_ERC20TokenBank/contracts/TokenBank.sol\":3665:3675  uint index */\n      dup1\n        /* \"04-Camps/08-UpChain_Camp_3_OpenSpace/0112_ERC20TokenBank/contracts/TokenBank.sol\":3678:3681  999 */\n      0x03e7\n        /* \"04-Camps/08-UpChain_Camp_3_OpenSpace/0112_ERC20TokenBank/contracts/TokenBank.sol\":3665:3681  uint index = 999 */\n      swap1\n      pop\n        /* \"04-Camps/08-UpChain_Camp_3_OpenSpace/0112_ERC20TokenBank/contracts/TokenBank.sol\":3696:3702  uint i */\n      0x00\n        /* \"04-Camps/08-UpChain_Camp_3_OpenSpace/0112_ERC20TokenBank/contracts/TokenBank.sol\":3691:3841  for (uint i = 0; i < 3; i++) {... */\n    tag_285:\n        /* \"04-Camps/08-UpChain_Camp_3_OpenSpace/0112_ERC20TokenBank/contracts/TokenBank.sol\":3712:3713  3 */\n      0x03\n        /* \"04-Camps/08-UpChain_Camp_3_OpenSpace/0112_ERC20TokenBank/contracts/TokenBank.sol\":3708:3709  i */\n      dup2\n        /* \"04-Camps/08-UpChain_Camp_3_OpenSpace/0112_ERC20TokenBank/contracts/TokenBank.sol\":3708:3713  i < 3 */\n      lt\n        /* \"04-Camps/08-UpChain_Camp_3_OpenSpace/0112_ERC20TokenBank/contracts/TokenBank.sol\":3691:3841  for (uint i = 0; i < 3; i++) {... */\n      iszero\n      tag_286\n      jumpi\n        /* \"04-Camps/08-UpChain_Camp_3_OpenSpace/0112_ERC20TokenBank/contracts/TokenBank.sol\":3754:3764  msg.sender */\n      caller\n        /* \"04-Camps/08-UpChain_Camp_3_OpenSpace/0112_ERC20TokenBank/contracts/TokenBank.sol\":3738:3764  tokenRank[i] == msg.sender */\n      0xffffffffffffffffffffffffffffffffffffffff\n      and\n        /* \"04-Camps/08-UpChain_Camp_3_OpenSpace/0112_ERC20TokenBank/contracts/TokenBank.sol\":3738:3747  tokenRank */\n      0x06\n        /* \"04-Camps/08-UpChain_Camp_3_OpenSpace/0112_ERC20TokenBank/contracts/TokenBank.sol\":3748:3749  i */\n      dup3\n        /* \"04-Camps/08-UpChain_Camp_3_OpenSpace/0112_ERC20TokenBank/contracts/TokenBank.sol\":3738:3750  tokenRank[i] */\n      0x03\n      dup2\n      lt\n      tag_288\n      jumpi\n      tag_289\n      tag_74\n      jump\t// in\n    tag_289:\n    tag_288:\n      add\n      0x00\n      swap1\n      sload\n      swap1\n      0x0100\n      exp\n      swap1\n      div\n      0xffffffffffffffffffffffffffffffffffffffff\n      and\n        /* \"04-Camps/08-UpChain_Camp_3_OpenSpace/0112_ERC20TokenBank/contracts/TokenBank.sol\":3738:3764  tokenRank[i] == msg.sender */\n      0xffffffffffffffffffffffffffffffffffffffff\n      and\n      sub\n        /* \"04-Camps/08-UpChain_Camp_3_OpenSpace/0112_ERC20TokenBank/contracts/TokenBank.sol\":3734:3831  if (tokenRank[i] == msg.sender) {... */\n      tag_291\n      jumpi\n        /* \"04-Camps/08-UpChain_Camp_3_OpenSpace/0112_ERC20TokenBank/contracts/TokenBank.sol\":3792:3793  i */\n      dup1\n        /* \"04-Camps/08-UpChain_Camp_3_OpenSpace/0112_ERC20TokenBank/contracts/TokenBank.sol\":3784:3793  index = i */\n      swap2\n      pop\n        /* \"04-Camps/08-UpChain_Camp_3_OpenSpace/0112_ERC20TokenBank/contracts/TokenBank.sol\":3811:3816  break */\n      jump(tag_286)\n        /* \"04-Camps/08-UpChain_Camp_3_OpenSpace/0112_ERC20TokenBank/contracts/TokenBank.sol\":3734:3831  if (tokenRank[i] == msg.sender) {... */\n    tag_291:\n        /* \"04-Camps/08-UpChain_Camp_3_OpenSpace/0112_ERC20TokenBank/contracts/TokenBank.sol\":3715:3718  i++ */\n      dup1\n      dup1\n      tag_292\n      swap1\n      tag_283\n      jump\t// in\n    tag_292:\n      swap2\n      pop\n      pop\n        /* \"04-Camps/08-UpChain_Camp_3_OpenSpace/0112_ERC20TokenBank/contracts/TokenBank.sol\":3691:3841  for (uint i = 0; i < 3; i++) {... */\n      jump(tag_285)\n    tag_286:\n      pop\n        /* \"04-Camps/08-UpChain_Camp_3_OpenSpace/0112_ERC20TokenBank/contracts/TokenBank.sol\":3857:3862  index */\n      dup1\n        /* \"04-Camps/08-UpChain_Camp_3_OpenSpace/0112_ERC20TokenBank/contracts/TokenBank.sol\":3850:3862  return index */\n      swap2\n      pop\n      pop\n        /* \"04-Camps/08-UpChain_Camp_3_OpenSpace/0112_ERC20TokenBank/contracts/TokenBank.sol\":3589:3869  function _checkTokenRankMembership() internal view returns (uint) {... */\n      swap1\n      jump\t// out\n        /* \"#utility.yul\":7:133   */\n    tag_293:\n        /* \"#utility.yul\":44:51   */\n      0x00\n        /* \"#utility.yul\":84:126   */\n      0xffffffffffffffffffffffffffffffffffffffff\n        /* \"#utility.yul\":77:82   */\n      dup3\n        /* \"#utility.yul\":73:127   */\n      and\n        /* \"#utility.yul\":62:127   */\n      swap1\n      pop\n        /* \"#utility.yul\":7:133   */\n      swap2\n      swap1\n      pop\n      jump\t// out\n        /* \"#utility.yul\":139:235   */\n    tag_294:\n        /* \"#utility.yul\":176:183   */\n      0x00\n        /* \"#utility.yul\":205:229   */\n      tag_321\n        /* \"#utility.yul\":223:228   */\n      dup3\n        /* \"#utility.yul\":205:229   */\n      tag_293\n      jump\t// in\n    tag_321:\n        /* \"#utility.yul\":194:229   */\n      swap1\n      pop\n        /* \"#utility.yul\":139:235   */\n      swap2\n      swap1\n      pop\n      jump\t// out\n        /* \"#utility.yul\":241:359   */\n    tag_295:\n        /* \"#utility.yul\":328:352   */\n      tag_323\n        /* \"#utility.yul\":346:351   */\n      dup2\n        /* \"#utility.yul\":328:352   */\n      tag_294\n      jump\t// in\n    tag_323:\n        /* \"#utility.yul\":323:326   */\n      dup3\n        /* \"#utility.yul\":316:353   */\n      mstore\n        /* \"#utility.yul\":241:359   */\n      pop\n      pop\n      jump\t// out\n        /* \"#utility.yul\":365:807   */\n    tag_23:\n        /* \"#utility.yul\":514:518   */\n      0x00\n        /* \"#utility.yul\":552:554   */\n      0x60\n        /* \"#utility.yul\":541:550   */\n      dup3\n        /* \"#utility.yul\":537:555   */\n      add\n        /* \"#utility.yul\":529:555   */\n      swap1\n      pop\n        /* \"#utility.yul\":565:636   */\n      tag_325\n        /* \"#utility.yul\":633:634   */\n      0x00\n        /* \"#utility.yul\":622:631   */\n      dup4\n        /* \"#utility.yul\":618:635   */\n      add\n        /* \"#utility.yul\":609:615   */\n      dup7\n        /* \"#utility.yul\":565:636   */\n      tag_295\n      jump\t// in\n    tag_325:\n        /* \"#utility.yul\":646:718   */\n      tag_326\n        /* \"#utility.yul\":714:716   */\n      0x20\n        /* \"#utility.yul\":703:712   */\n      dup4\n        /* \"#utility.yul\":699:717   */\n      add\n        /* \"#utility.yul\":690:696   */\n      dup6\n        /* \"#utility.yul\":646:718   */\n      tag_295\n      jump\t// in\n    tag_326:\n        /* \"#utility.yul\":728:800   */\n      tag_327\n        /* \"#utility.yul\":796:798   */\n      0x40\n        /* \"#utility.yul\":785:794   */\n      dup4\n        /* \"#utility.yul\":781:799   */\n      add\n        /* \"#utility.yul\":772:778   */\n      dup5\n        /* \"#utility.yul\":728:800   */\n      tag_295\n      jump\t// in\n    tag_327:\n        /* \"#utility.yul\":365:807   */\n      swap5\n      swap4\n      pop\n      pop\n      pop\n      pop\n      jump\t// out\n        /* \"#utility.yul\":894:1011   */\n    tag_297:\n        /* \"#utility.yul\":1003:1004   */\n      0x00\n        /* \"#utility.yul\":1000:1001   */\n      dup1\n        /* \"#utility.yul\":993:1005   */\n      revert\n        /* \"#utility.yul\":1140:1262   */\n    tag_299:\n        /* \"#utility.yul\":1213:1237   */\n      tag_332\n        /* \"#utility.yul\":1231:1236   */\n      dup2\n        /* \"#utility.yul\":1213:1237   */\n      tag_294\n      jump\t// in\n    tag_332:\n        /* \"#utility.yul\":1206:1211   */\n      dup2\n        /* \"#utility.yul\":1203:1238   */\n      eq\n        /* \"#utility.yul\":1193:1256   */\n      tag_333\n      jumpi\n        /* \"#utility.yul\":1252:1253   */\n      0x00\n        /* \"#utility.yul\":1249:1250   */\n      dup1\n        /* \"#utility.yul\":1242:1254   */\n      revert\n        /* \"#utility.yul\":1193:1256   */\n    tag_333:\n        /* \"#utility.yul\":1140:1262   */\n      pop\n      jump\t// out\n        /* \"#utility.yul\":1268:1407   */\n    tag_300:\n        /* \"#utility.yul\":1314:1319   */\n      0x00\n        /* \"#utility.yul\":1352:1358   */\n      dup2\n        /* \"#utility.yul\":1339:1359   */\n      calldataload\n        /* \"#utility.yul\":1330:1359   */\n      swap1\n      pop\n        /* \"#utility.yul\":1368:1401   */\n      tag_335\n        /* \"#utility.yul\":1395:1400   */\n      dup2\n        /* \"#utility.yul\":1368:1401   */\n      tag_299\n      jump\t// in\n    tag_335:\n        /* \"#utility.yul\":1268:1407   */\n      swap3\n      swap2\n      pop\n      pop\n      jump\t// out\n        /* \"#utility.yul\":1413:1742   */\n    tag_27:\n        /* \"#utility.yul\":1472:1478   */\n      0x00\n        /* \"#utility.yul\":1521:1523   */\n      0x20\n        /* \"#utility.yul\":1509:1518   */\n      dup3\n        /* \"#utility.yul\":1500:1507   */\n      dup5\n        /* \"#utility.yul\":1496:1519   */\n      sub\n        /* \"#utility.yul\":1492:1524   */\n      slt\n        /* \"#utility.yul\":1489:1608   */\n      iszero\n      tag_337\n      jumpi\n        /* \"#utility.yul\":1527:1606   */\n      tag_338\n      tag_297\n      jump\t// in\n    tag_338:\n        /* \"#utility.yul\":1489:1608   */\n    tag_337:\n        /* \"#utility.yul\":1647:1648   */\n      0x00\n        /* \"#utility.yul\":1672:1725   */\n      tag_339\n        /* \"#utility.yul\":1717:1724   */\n      dup5\n        /* \"#utility.yul\":1708:1714   */\n      dup3\n        /* \"#utility.yul\":1697:1706   */\n      dup6\n        /* \"#utility.yul\":1693:1715   */\n      add\n        /* \"#utility.yul\":1672:1725   */\n      tag_300\n      jump\t// in\n    tag_339:\n        /* \"#utility.yul\":1662:1725   */\n      swap2\n      pop\n        /* \"#utility.yul\":1618:1735   */\n      pop\n        /* \"#utility.yul\":1413:1742   */\n      swap3\n      swap2\n      pop\n      pop\n      jump\t// out\n        /* \"#utility.yul\":1748:1825   */\n    tag_301:\n        /* \"#utility.yul\":1785:1792   */\n      0x00\n        /* \"#utility.yul\":1814:1819   */\n      dup2\n        /* \"#utility.yul\":1803:1819   */\n      swap1\n      pop\n        /* \"#utility.yul\":1748:1825   */\n      swap2\n      swap1\n      pop\n      jump\t// out\n        /* \"#utility.yul\":1831:1949   */\n    tag_302:\n        /* \"#utility.yul\":1918:1942   */\n      tag_342\n        /* \"#utility.yul\":1936:1941   */\n      dup2\n        /* \"#utility.yul\":1918:1942   */\n      tag_301\n      jump\t// in\n    tag_342:\n        /* \"#utility.yul\":1913:1916   */\n      dup3\n        /* \"#utility.yul\":1906:1943   */\n      mstore\n        /* \"#utility.yul\":1831:1949   */\n      pop\n      pop\n      jump\t// out\n        /* \"#utility.yul\":1955:2177   */\n    tag_30:\n        /* \"#utility.yul\":2048:2052   */\n      0x00\n        /* \"#utility.yul\":2086:2088   */\n      0x20\n        /* \"#utility.yul\":2075:2084   */\n      dup3\n        /* \"#utility.yul\":2071:2089   */\n      add\n        /* \"#utility.yul\":2063:2089   */\n      swap1\n      pop\n        /* \"#utility.yul\":2099:2170   */\n      tag_344\n        /* \"#utility.yul\":2167:2168   */\n      0x00\n        /* \"#utility.yul\":2156:2165   */\n      dup4\n        /* \"#utility.yul\":2152:2169   */\n      add\n        /* \"#utility.yul\":2143:2149   */\n      dup5\n        /* \"#utility.yul\":2099:2170   */\n      tag_302\n      jump\t// in\n    tag_344:\n        /* \"#utility.yul\":1955:2177   */\n      swap3\n      swap2\n      pop\n      pop\n      jump\t// out\n        /* \"#utility.yul\":2183:2405   */\n    tag_40:\n        /* \"#utility.yul\":2276:2280   */\n      0x00\n        /* \"#utility.yul\":2314:2316   */\n      0x20\n        /* \"#utility.yul\":2303:2312   */\n      dup3\n        /* \"#utility.yul\":2299:2317   */\n      add\n        /* \"#utility.yul\":2291:2317   */\n      swap1\n      pop\n        /* \"#utility.yul\":2327:2398   */\n      tag_346\n        /* \"#utility.yul\":2395:2396   */\n      0x00\n        /* \"#utility.yul\":2384:2393   */\n      dup4\n        /* \"#utility.yul\":2380:2397   */\n      add\n        /* \"#utility.yul\":2371:2377   */\n      dup5\n        /* \"#utility.yul\":2327:2398   */\n      tag_295\n      jump\t// in\n    tag_346:\n        /* \"#utility.yul\":2183:2405   */\n      swap3\n      swap2\n      pop\n      pop\n      jump\t// out\n        /* \"#utility.yul\":2411:2533   */\n    tag_303:\n        /* \"#utility.yul\":2484:2508   */\n      tag_348\n        /* \"#utility.yul\":2502:2507   */\n      dup2\n        /* \"#utility.yul\":2484:2508   */\n      tag_301\n      jump\t// in\n    tag_348:\n        /* \"#utility.yul\":2477:2482   */\n      dup2\n        /* \"#utility.yul\":2474:2509   */\n      eq\n        /* \"#utility.yul\":2464:2527   */\n      tag_349\n      jumpi\n        /* \"#utility.yul\":2523:2524   */\n      0x00\n        /* \"#utility.yul\":2520:2521   */\n      dup1\n        /* \"#utility.yul\":2513:2525   */\n      revert\n        /* \"#utility.yul\":2464:2527   */\n    tag_349:\n        /* \"#utility.yul\":2411:2533   */\n      pop\n      jump\t// out\n        /* \"#utility.yul\":2539:2678   */\n    tag_304:\n        /* \"#utility.yul\":2585:2590   */\n      0x00\n        /* \"#utility.yul\":2623:2629   */\n      dup2\n        /* \"#utility.yul\":2610:2630   */\n      calldataload\n        /* \"#utility.yul\":2601:2630   */\n      swap1\n      pop\n        /* \"#utility.yul\":2639:2672   */\n      tag_351\n        /* \"#utility.yul\":2666:2671   */\n      dup2\n        /* \"#utility.yul\":2639:2672   */\n      tag_303\n      jump\t// in\n    tag_351:\n        /* \"#utility.yul\":2539:2678   */\n      swap3\n      swap2\n      pop\n      pop\n      jump\t// out\n        /* \"#utility.yul\":2684:3013   */\n    tag_44:\n        /* \"#utility.yul\":2743:2749   */\n      0x00\n        /* \"#utility.yul\":2792:2794   */\n      0x20\n        /* \"#utility.yul\":2780:2789   */\n      dup3\n        /* \"#utility.yul\":2771:2778   */\n      dup5\n        /* \"#utility.yul\":2767:2790   */\n      sub\n        /* \"#utility.yul\":2763:2795   */\n      slt\n        /* \"#utility.yul\":2760:2879   */\n      iszero\n      tag_353\n      jumpi\n        /* \"#utility.yul\":2798:2877   */\n      tag_354\n      tag_297\n      jump\t// in\n    tag_354:\n        /* \"#utility.yul\":2760:2879   */\n    tag_353:\n        /* \"#utility.yul\":2918:2919   */\n      0x00\n        /* \"#utility.yul\":2943:2996   */\n      tag_355\n        /* \"#utility.yul\":2988:2995   */\n      dup5\n        /* \"#utility.yul\":2979:2985   */\n      dup3\n        /* \"#utility.yul\":2968:2977   */\n      dup6\n        /* \"#utility.yul\":2964:2986   */\n      add\n        /* \"#utility.yul\":2943:2996   */\n      tag_304\n      jump\t// in\n    tag_355:\n        /* \"#utility.yul\":2933:2996   */\n      swap2\n      pop\n        /* \"#utility.yul\":2889:3006   */\n      pop\n        /* \"#utility.yul\":2684:3013   */\n      swap3\n      swap2\n      pop\n      pop\n      jump\t// out\n        /* \"#utility.yul\":3019:3079   */\n    tag_305:\n        /* \"#utility.yul\":3047:3050   */\n      0x00\n        /* \"#utility.yul\":3068:3073   */\n      dup2\n        /* \"#utility.yul\":3061:3073   */\n      swap1\n      pop\n        /* \"#utility.yul\":3019:3079   */\n      swap2\n      swap1\n      pop\n      jump\t// out\n        /* \"#utility.yul\":3085:3227   */\n    tag_306:\n        /* \"#utility.yul\":3135:3144   */\n      0x00\n        /* \"#utility.yul\":3168:3221   */\n      tag_358\n        /* \"#utility.yul\":3186:3220   */\n      tag_359\n        /* \"#utility.yul\":3195:3219   */\n      tag_360\n        /* \"#utility.yul\":3213:3218   */\n      dup5\n        /* \"#utility.yul\":3195:3219   */\n      tag_293\n      jump\t// in\n    tag_360:\n        /* \"#utility.yul\":3186:3220   */\n      tag_305\n      jump\t// in\n    tag_359:\n        /* \"#utility.yul\":3168:3221   */\n      tag_293\n      jump\t// in\n    tag_358:\n        /* \"#utility.yul\":3155:3221   */\n      swap1\n      pop\n        /* \"#utility.yul\":3085:3227   */\n      swap2\n      swap1\n      pop\n      jump\t// out\n        /* \"#utility.yul\":3233:3359   */\n    tag_307:\n        /* \"#utility.yul\":3283:3292   */\n      0x00\n        /* \"#utility.yul\":3316:3353   */\n      tag_362\n        /* \"#utility.yul\":3347:3352   */\n      dup3\n        /* \"#utility.yul\":3316:3353   */\n      tag_306\n      jump\t// in\n    tag_362:\n        /* \"#utility.yul\":3303:3353   */\n      swap1\n      pop\n        /* \"#utility.yul\":3233:3359   */\n      swap2\n      swap1\n      pop\n      jump\t// out\n        /* \"#utility.yul\":3365:3513   */\n    tag_308:\n        /* \"#utility.yul\":3437:3446   */\n      0x00\n        /* \"#utility.yul\":3470:3507   */\n      tag_364\n        /* \"#utility.yul\":3501:3506   */\n      dup3\n        /* \"#utility.yul\":3470:3507   */\n      tag_307\n      jump\t// in\n    tag_364:\n        /* \"#utility.yul\":3457:3507   */\n      swap1\n      pop\n        /* \"#utility.yul\":3365:3513   */\n      swap2\n      swap1\n      pop\n      jump\t// out\n        /* \"#utility.yul\":3519:3694   */\n    tag_309:\n        /* \"#utility.yul\":3628:3687   */\n      tag_366\n        /* \"#utility.yul\":3681:3686   */\n      dup2\n        /* \"#utility.yul\":3628:3687   */\n      tag_308\n      jump\t// in\n    tag_366:\n        /* \"#utility.yul\":3623:3626   */\n      dup3\n        /* \"#utility.yul\":3616:3688   */\n      mstore\n        /* \"#utility.yul\":3519:3694   */\n      pop\n      pop\n      jump\t// out\n        /* \"#utility.yul\":3700:3966   */\n    tag_65:\n        /* \"#utility.yul\":3815:3819   */\n      0x00\n        /* \"#utility.yul\":3853:3855   */\n      0x20\n        /* \"#utility.yul\":3842:3851   */\n      dup3\n        /* \"#utility.yul\":3838:3856   */\n      add\n        /* \"#utility.yul\":3830:3856   */\n      swap1\n      pop\n        /* \"#utility.yul\":3866:3959   */\n      tag_368\n        /* \"#utility.yul\":3956:3957   */\n      0x00\n        /* \"#utility.yul\":3945:3954   */\n      dup4\n        /* \"#utility.yul\":3941:3958   */\n      add\n        /* \"#utility.yul\":3932:3938   */\n      dup5\n        /* \"#utility.yul\":3866:3959   */\n      tag_309\n      jump\t// in\n    tag_368:\n        /* \"#utility.yul\":3700:3966   */\n      swap3\n      swap2\n      pop\n      pop\n      jump\t// out\n        /* \"#utility.yul\":3972:4152   */\n    tag_310:\n        /* \"#utility.yul\":4020:4097   */\n      0x4e487b7100000000000000000000000000000000000000000000000000000000\n        /* \"#utility.yul\":4017:4018   */\n      0x00\n        /* \"#utility.yul\":4010:4098   */\n      mstore\n        /* \"#utility.yul\":4117:4121   */\n      0x11\n        /* \"#utility.yul\":4114:4115   */\n      0x04\n        /* \"#utility.yul\":4107:4122   */\n      mstore\n        /* \"#utility.yul\":4141:4145   */\n      0x24\n        /* \"#utility.yul\":4138:4139   */\n      0x00\n        /* \"#utility.yul\":4131:4146   */\n      revert\n        /* \"#utility.yul\":4158:4349   */\n    tag_68:\n        /* \"#utility.yul\":4198:4201   */\n      0x00\n        /* \"#utility.yul\":4217:4237   */\n      tag_371\n        /* \"#utility.yul\":4235:4236   */\n      dup3\n        /* \"#utility.yul\":4217:4237   */\n      tag_301\n      jump\t// in\n    tag_371:\n        /* \"#utility.yul\":4212:4237   */\n      swap2\n      pop\n        /* \"#utility.yul\":4251:4271   */\n      tag_372\n        /* \"#utility.yul\":4269:4270   */\n      dup4\n        /* \"#utility.yul\":4251:4271   */\n      tag_301\n      jump\t// in\n    tag_372:\n        /* \"#utility.yul\":4246:4271   */\n      swap3\n      pop\n        /* \"#utility.yul\":4294:4295   */\n      dup3\n        /* \"#utility.yul\":4291:4292   */\n      dup3\n        /* \"#utility.yul\":4287:4296   */\n      add\n        /* \"#utility.yul\":4280:4296   */\n      swap1\n      pop\n        /* \"#utility.yul\":4315:4318   */\n      dup1\n        /* \"#utility.yul\":4312:4313   */\n      dup3\n        /* \"#utility.yul\":4309:4319   */\n      gt\n        /* \"#utility.yul\":4306:4342   */\n      iszero\n      tag_373\n      jumpi\n        /* \"#utility.yul\":4322:4340   */\n      tag_374\n      tag_310\n      jump\t// in\n    tag_374:\n        /* \"#utility.yul\":4306:4342   */\n    tag_373:\n        /* \"#utility.yul\":4158:4349   */\n      swap3\n      swap2\n      pop\n      pop\n      jump\t// out\n        /* \"#utility.yul\":4355:4535   */\n    tag_74:\n        /* \"#utility.yul\":4403:4480   */\n      0x4e487b7100000000000000000000000000000000000000000000000000000000\n        /* \"#utility.yul\":4400:4401   */\n      0x00\n        /* \"#utility.yul\":4393:4481   */\n      mstore\n        /* \"#utility.yul\":4500:4504   */\n      0x32\n        /* \"#utility.yul\":4497:4498   */\n      0x04\n        /* \"#utility.yul\":4490:4505   */\n      mstore\n        /* \"#utility.yul\":4524:4528   */\n      0x24\n        /* \"#utility.yul\":4521:4522   */\n      0x00\n        /* \"#utility.yul\":4514:4529   */\n      revert\n        /* \"#utility.yul\":4541:4983   */\n    tag_86:\n        /* \"#utility.yul\":4690:4694   */\n      0x00\n        /* \"#utility.yul\":4728:4730   */\n      0x60\n        /* \"#utility.yul\":4717:4726   */\n      dup3\n        /* \"#utility.yul\":4713:4731   */\n      add\n        /* \"#utility.yul\":4705:4731   */\n      swap1\n      pop\n        /* \"#utility.yul\":4741:4812   */\n      tag_377\n        /* \"#utility.yul\":4809:4810   */\n      0x00\n        /* \"#utility.yul\":4798:4807   */\n      dup4\n        /* \"#utility.yul\":4794:4811   */\n      add\n        /* \"#utility.yul\":4785:4791   */\n      dup7\n        /* \"#utility.yul\":4741:4812   */\n      tag_295\n      jump\t// in\n    tag_377:\n        /* \"#utility.yul\":4822:4894   */\n      tag_378\n        /* \"#utility.yul\":4890:4892   */\n      0x20\n        /* \"#utility.yul\":4879:4888   */\n      dup4\n        /* \"#utility.yul\":4875:4893   */\n      add\n        /* \"#utility.yul\":4866:4872   */\n      dup6\n        /* \"#utility.yul\":4822:4894   */\n      tag_295\n      jump\t// in\n    tag_378:\n        /* \"#utility.yul\":4904:4976   */\n      tag_379\n        /* \"#utility.yul\":4972:4974   */\n      0x40\n        /* \"#utility.yul\":4961:4970   */\n      dup4\n        /* \"#utility.yul\":4957:4975   */\n      add\n        /* \"#utility.yul\":4948:4954   */\n      dup5\n        /* \"#utility.yul\":4904:4976   */\n      tag_302\n      jump\t// in\n    tag_379:\n        /* \"#utility.yul\":4541:4983   */\n      swap5\n      swap4\n      pop\n      pop\n      pop\n      pop\n      jump\t// out\n        /* \"#utility.yul\":4989:5079   */\n    tag_311:\n        /* \"#utility.yul\":5023:5030   */\n      0x00\n        /* \"#utility.yul\":5066:5071   */\n      dup2\n        /* \"#utility.yul\":5059:5072   */\n      iszero\n        /* \"#utility.yul\":5052:5073   */\n      iszero\n        /* \"#utility.yul\":5041:5073   */\n      swap1\n      pop\n        /* \"#utility.yul\":4989:5079   */\n      swap2\n      swap1\n      pop\n      jump\t// out\n        /* \"#utility.yul\":5085:5201   */\n    tag_312:\n        /* \"#utility.yul\":5155:5176   */\n      tag_382\n        /* \"#utility.yul\":5170:5175   */\n      dup2\n        /* \"#utility.yul\":5155:5176   */\n      tag_311\n      jump\t// in\n    tag_382:\n        /* \"#utility.yul\":5148:5153   */\n      dup2\n        /* \"#utility.yul\":5145:5177   */\n      eq\n        /* \"#utility.yul\":5135:5195   */\n      tag_383\n      jumpi\n        /* \"#utility.yul\":5191:5192   */\n      0x00\n        /* \"#utility.yul\":5188:5189   */\n      dup1\n        /* \"#utility.yul\":5181:5193   */\n      revert\n        /* \"#utility.yul\":5135:5195   */\n    tag_383:\n        /* \"#utility.yul\":5085:5201   */\n      pop\n      jump\t// out\n        /* \"#utility.yul\":5207:5344   */\n    tag_313:\n        /* \"#utility.yul\":5261:5266   */\n      0x00\n        /* \"#utility.yul\":5292:5298   */\n      dup2\n        /* \"#utility.yul\":5286:5299   */\n      mload\n        /* \"#utility.yul\":5277:5299   */\n      swap1\n      pop\n        /* \"#utility.yul\":5308:5338   */\n      tag_385\n        /* \"#utility.yul\":5332:5337   */\n      dup2\n        /* \"#utility.yul\":5308:5338   */\n      tag_312\n      jump\t// in\n    tag_385:\n        /* \"#utility.yul\":5207:5344   */\n      swap3\n      swap2\n      pop\n      pop\n      jump\t// out\n        /* \"#utility.yul\":5350:5695   */\n    tag_90:\n        /* \"#utility.yul\":5417:5423   */\n      0x00\n        /* \"#utility.yul\":5466:5468   */\n      0x20\n        /* \"#utility.yul\":5454:5463   */\n      dup3\n        /* \"#utility.yul\":5445:5452   */\n      dup5\n        /* \"#utility.yul\":5441:5464   */\n      sub\n        /* \"#utility.yul\":5437:5469   */\n      slt\n        /* \"#utility.yul\":5434:5553   */\n      iszero\n      tag_387\n      jumpi\n        /* \"#utility.yul\":5472:5551   */\n      tag_388\n      tag_297\n      jump\t// in\n    tag_388:\n        /* \"#utility.yul\":5434:5553   */\n    tag_387:\n        /* \"#utility.yul\":5592:5593   */\n      0x00\n        /* \"#utility.yul\":5617:5678   */\n      tag_389\n        /* \"#utility.yul\":5670:5677   */\n      dup5\n        /* \"#utility.yul\":5661:5667   */\n      dup3\n        /* \"#utility.yul\":5650:5659   */\n      dup6\n        /* \"#utility.yul\":5646:5668   */\n      add\n        /* \"#utility.yul\":5617:5678   */\n      tag_313\n      jump\t// in\n    tag_389:\n        /* \"#utility.yul\":5607:5678   */\n      swap2\n      pop\n        /* \"#utility.yul\":5563:5688   */\n      pop\n        /* \"#utility.yul\":5350:5695   */\n      swap3\n      swap2\n      pop\n      pop\n      jump\t// out\n        /* \"#utility.yul\":5701:5844   */\n    tag_314:\n        /* \"#utility.yul\":5758:5763   */\n      0x00\n        /* \"#utility.yul\":5789:5795   */\n      dup2\n        /* \"#utility.yul\":5783:5796   */\n      mload\n        /* \"#utility.yul\":5774:5796   */\n      swap1\n      pop\n        /* \"#utility.yul\":5805:5838   */\n      tag_391\n        /* \"#utility.yul\":5832:5837   */\n      dup2\n        /* \"#utility.yul\":5805:5838   */\n      tag_303\n      jump\t// in\n    tag_391:\n        /* \"#utility.yul\":5701:5844   */\n      swap3\n      swap2\n      pop\n      pop\n      jump\t// out\n        /* \"#utility.yul\":5850:6201   */\n    tag_96:\n        /* \"#utility.yul\":5920:5926   */\n      0x00\n        /* \"#utility.yul\":5969:5971   */\n      0x20\n        /* \"#utility.yul\":5957:5966   */\n      dup3\n        /* \"#utility.yul\":5948:5955   */\n      dup5\n        /* \"#utility.yul\":5944:5967   */\n      sub\n        /* \"#utility.yul\":5940:5972   */\n      slt\n        /* \"#utility.yul\":5937:6056   */\n      iszero\n      tag_393\n      jumpi\n        /* \"#utility.yul\":5975:6054   */\n      tag_394\n      tag_297\n      jump\t// in\n    tag_394:\n        /* \"#utility.yul\":5937:6056   */\n    tag_393:\n        /* \"#utility.yul\":6095:6096   */\n      0x00\n        /* \"#utility.yul\":6120:6184   */\n      tag_395\n        /* \"#utility.yul\":6176:6183   */\n      dup5\n        /* \"#utility.yul\":6167:6173   */\n      dup3\n        /* \"#utility.yul\":6156:6165   */\n      dup6\n        /* \"#utility.yul\":6152:6174   */\n      add\n        /* \"#utility.yul\":6120:6184   */\n      tag_314\n      jump\t// in\n    tag_395:\n        /* \"#utility.yul\":6110:6184   */\n      swap2\n      pop\n        /* \"#utility.yul\":6066:6194   */\n      pop\n        /* \"#utility.yul\":5850:6201   */\n      swap3\n      swap2\n      pop\n      pop\n      jump\t// out\n        /* \"#utility.yul\":6207:6539   */\n    tag_98:\n        /* \"#utility.yul\":6328:6332   */\n      0x00\n        /* \"#utility.yul\":6366:6368   */\n      0x40\n        /* \"#utility.yul\":6355:6364   */\n      dup3\n        /* \"#utility.yul\":6351:6369   */\n      add\n        /* \"#utility.yul\":6343:6369   */\n      swap1\n      pop\n        /* \"#utility.yul\":6379:6450   */\n      tag_397\n        /* \"#utility.yul\":6447:6448   */\n      0x00\n        /* \"#utility.yul\":6436:6445   */\n      dup4\n        /* \"#utility.yul\":6432:6449   */\n      add\n        /* \"#utility.yul\":6423:6429   */\n      dup6\n        /* \"#utility.yul\":6379:6450   */\n      tag_302\n      jump\t// in\n    tag_397:\n        /* \"#utility.yul\":6460:6532   */\n      tag_398\n        /* \"#utility.yul\":6528:6530   */\n      0x20\n        /* \"#utility.yul\":6517:6526   */\n      dup4\n        /* \"#utility.yul\":6513:6531   */\n      add\n        /* \"#utility.yul\":6504:6510   */\n      dup5\n        /* \"#utility.yul\":6460:6532   */\n      tag_302\n      jump\t// in\n    tag_398:\n        /* \"#utility.yul\":6207:6539   */\n      swap4\n      swap3\n      pop\n      pop\n      pop\n      jump\t// out\n        /* \"#utility.yul\":6545:6714   */\n    tag_315:\n        /* \"#utility.yul\":6629:6640   */\n      0x00\n        /* \"#utility.yul\":6663:6669   */\n      dup3\n        /* \"#utility.yul\":6658:6661   */\n      dup3\n        /* \"#utility.yul\":6651:6670   */\n      mstore\n        /* \"#utility.yul\":6703:6707   */\n      0x20\n        /* \"#utility.yul\":6698:6701   */\n      dup3\n        /* \"#utility.yul\":6694:6708   */\n      add\n        /* \"#utility.yul\":6679:6708   */\n      swap1\n      pop\n        /* \"#utility.yul\":6545:6714   */\n      swap3\n      swap2\n      pop\n      pop\n      jump\t// out\n        /* \"#utility.yul\":6720:6889   */\n    tag_316:\n        /* \"#utility.yul\":6860:6881   */\n      0x4f6e6c79206f776e65722063616e2063616c6c00000000000000000000000000\n        /* \"#utility.yul\":6856:6857   */\n      0x00\n        /* \"#utility.yul\":6848:6854   */\n      dup3\n        /* \"#utility.yul\":6844:6858   */\n      add\n        /* \"#utility.yul\":6837:6882   */\n      mstore\n        /* \"#utility.yul\":6720:6889   */\n      pop\n      jump\t// out\n        /* \"#utility.yul\":6895:7261   */\n    tag_317:\n        /* \"#utility.yul\":7037:7040   */\n      0x00\n        /* \"#utility.yul\":7058:7125   */\n      tag_402\n        /* \"#utility.yul\":7122:7124   */\n      0x13\n        /* \"#utility.yul\":7117:7120   */\n      dup4\n        /* \"#utility.yul\":7058:7125   */\n      tag_315\n      jump\t// in\n    tag_402:\n        /* \"#utility.yul\":7051:7125   */\n      swap2\n      pop\n        /* \"#utility.yul\":7134:7227   */\n      tag_403\n        /* \"#utility.yul\":7223:7226   */\n      dup3\n        /* \"#utility.yul\":7134:7227   */\n      tag_316\n      jump\t// in\n    tag_403:\n        /* \"#utility.yul\":7252:7254   */\n      0x20\n        /* \"#utility.yul\":7247:7250   */\n      dup3\n        /* \"#utility.yul\":7243:7255   */\n      add\n        /* \"#utility.yul\":7236:7255   */\n      swap1\n      pop\n        /* \"#utility.yul\":6895:7261   */\n      swap2\n      swap1\n      pop\n      jump\t// out\n        /* \"#utility.yul\":7267:7686   */\n    tag_115:\n        /* \"#utility.yul\":7433:7437   */\n      0x00\n        /* \"#utility.yul\":7471:7473   */\n      0x20\n        /* \"#utility.yul\":7460:7469   */\n      dup3\n        /* \"#utility.yul\":7456:7474   */\n      add\n        /* \"#utility.yul\":7448:7474   */\n      swap1\n      pop\n        /* \"#utility.yul\":7520:7529   */\n      dup2\n        /* \"#utility.yul\":7514:7518   */\n      dup2\n        /* \"#utility.yul\":7510:7530   */\n      sub\n        /* \"#utility.yul\":7506:7507   */\n      0x00\n        /* \"#utility.yul\":7495:7504   */\n      dup4\n        /* \"#utility.yul\":7491:7508   */\n      add\n        /* \"#utility.yul\":7484:7531   */\n      mstore\n        /* \"#utility.yul\":7548:7679   */\n      tag_405\n        /* \"#utility.yul\":7674:7678   */\n      dup2\n        /* \"#utility.yul\":7548:7679   */\n      tag_317\n      jump\t// in\n    tag_405:\n        /* \"#utility.yul\":7540:7679   */\n      swap1\n      pop\n        /* \"#utility.yul\":7267:7686   */\n      swap2\n      swap1\n      pop\n      jump\t// out\n        /* \"#utility.yul\":7692:8024   */\n    tag_122:\n        /* \"#utility.yul\":7813:7817   */\n      0x00\n        /* \"#utility.yul\":7851:7853   */\n      0x40\n        /* \"#utility.yul\":7840:7849   */\n      dup3\n        /* \"#utility.yul\":7836:7854   */\n      add\n        /* \"#utility.yul\":7828:7854   */\n      swap1\n      pop\n        /* \"#utility.yul\":7864:7935   */\n      tag_407\n        /* \"#utility.yul\":7932:7933   */\n      0x00\n        /* \"#utility.yul\":7921:7930   */\n      dup4\n        /* \"#utility.yul\":7917:7934   */\n      add\n        /* \"#utility.yul\":7908:7914   */\n      dup6\n        /* \"#utility.yul\":7864:7935   */\n      tag_295\n      jump\t// in\n    tag_407:\n        /* \"#utility.yul\":7945:8017   */\n      tag_408\n        /* \"#utility.yul\":8013:8015   */\n      0x20\n        /* \"#utility.yul\":8002:8011   */\n      dup4\n        /* \"#utility.yul\":7998:8016   */\n      add\n        /* \"#utility.yul\":7989:7995   */\n      dup5\n        /* \"#utility.yul\":7945:8017   */\n      tag_302\n      jump\t// in\n    tag_408:\n        /* \"#utility.yul\":7692:8024   */\n      swap4\n      swap3\n      pop\n      pop\n      pop\n      jump\t// out\n        /* \"#utility.yul\":8030:8224   */\n    tag_141:\n        /* \"#utility.yul\":8070:8074   */\n      0x00\n        /* \"#utility.yul\":8090:8110   */\n      tag_410\n        /* \"#utility.yul\":8108:8109   */\n      dup3\n        /* \"#utility.yul\":8090:8110   */\n      tag_301\n      jump\t// in\n    tag_410:\n        /* \"#utility.yul\":8085:8110   */\n      swap2\n      pop\n        /* \"#utility.yul\":8124:8144   */\n      tag_411\n        /* \"#utility.yul\":8142:8143   */\n      dup4\n        /* \"#utility.yul\":8124:8144   */\n      tag_301\n      jump\t// in\n    tag_411:\n        /* \"#utility.yul\":8119:8144   */\n      swap3\n      pop\n        /* \"#utility.yul\":8168:8169   */\n      dup3\n        /* \"#utility.yul\":8165:8166   */\n      dup3\n        /* \"#utility.yul\":8161:8170   */\n      sub\n        /* \"#utility.yul\":8153:8170   */\n      swap1\n      pop\n        /* \"#utility.yul\":8192:8193   */\n      dup2\n        /* \"#utility.yul\":8186:8190   */\n      dup2\n        /* \"#utility.yul\":8183:8194   */\n      gt\n        /* \"#utility.yul\":8180:8217   */\n      iszero\n      tag_412\n      jumpi\n        /* \"#utility.yul\":8197:8215   */\n      tag_413\n      tag_310\n      jump\t// in\n    tag_413:\n        /* \"#utility.yul\":8180:8217   */\n    tag_412:\n        /* \"#utility.yul\":8030:8224   */\n      swap3\n      swap2\n      pop\n      pop\n      jump\t// out\n        /* \"#utility.yul\":8230:8401   */\n    tag_161:\n        /* \"#utility.yul\":8269:8272   */\n      0x00\n        /* \"#utility.yul\":8292:8316   */\n      tag_415\n        /* \"#utility.yul\":8310:8315   */\n      dup3\n        /* \"#utility.yul\":8292:8316   */\n      tag_301\n      jump\t// in\n    tag_415:\n        /* \"#utility.yul\":8283:8316   */\n      swap2\n      pop\n        /* \"#utility.yul\":8338:8342   */\n      0x00\n        /* \"#utility.yul\":8331:8336   */\n      dup3\n        /* \"#utility.yul\":8328:8343   */\n      sub\n        /* \"#utility.yul\":8325:8366   */\n      tag_416\n      jumpi\n        /* \"#utility.yul\":8346:8364   */\n      tag_417\n      tag_310\n      jump\t// in\n    tag_417:\n        /* \"#utility.yul\":8325:8366   */\n    tag_416:\n        /* \"#utility.yul\":8393:8394   */\n      0x01\n        /* \"#utility.yul\":8386:8391   */\n      dup3\n        /* \"#utility.yul\":8382:8395   */\n      sub\n        /* \"#utility.yul\":8375:8395   */\n      swap1\n      pop\n        /* \"#utility.yul\":8230:8401   */\n      swap2\n      swap1\n      pop\n      jump\t// out\n        /* \"#utility.yul\":8407:8640   */\n    tag_283:\n        /* \"#utility.yul\":8446:8449   */\n      0x00\n        /* \"#utility.yul\":8469:8493   */\n      tag_419\n        /* \"#utility.yul\":8487:8492   */\n      dup3\n        /* \"#utility.yul\":8469:8493   */\n      tag_301\n      jump\t// in\n    tag_419:\n        /* \"#utility.yul\":8460:8493   */\n      swap2\n      pop\n        /* \"#utility.yul\":8515:8581   */\n      0xffffffffffffffffffffffffffffffffffffffffffffffffffffffffffffffff\n        /* \"#utility.yul\":8508:8513   */\n      dup3\n        /* \"#utility.yul\":8505:8582   */\n      sub\n        /* \"#utility.yul\":8502:8605   */\n      tag_420\n      jumpi\n        /* \"#utility.yul\":8585:8603   */\n      tag_421\n      tag_310\n      jump\t// in\n    tag_421:\n        /* \"#utility.yul\":8502:8605   */\n    tag_420:\n        /* \"#utility.yul\":8632:8633   */\n      0x01\n        /* \"#utility.yul\":8625:8630   */\n      dup3\n        /* \"#utility.yul\":8621:8634   */\n      add\n        /* \"#utility.yul\":8614:8634   */\n      swap1\n      pop\n        /* \"#utility.yul\":8407:8640   */\n      swap2\n      swap1\n      pop\n      jump\t// out\n\n    auxdata: 0xa2646970667358221220be940729cc4bfef77684747579cfac63f676f5ea21cc13a0ec46a36caa4229d964736f6c63430008150033\n}\n",
				"bytecode": {
					"linkReferences": {},
					"object": "608060405234801562000010575f80fd5b5060405162001c3438038062001c348339818101604052810190620000369190620001c3565b3360045f6101000a81548173ffffffffffffffffffffffffffffffffffffffff021916908373ffffffffffffffffffffffffffffffffffffffff1602179055508060095f6101000a81548173ffffffffffffffffffffffffffffffffffffffff021916908373ffffffffffffffffffffffffffffffffffffffff1602179055503360045f6101000a81548173ffffffffffffffffffffffffffffffffffffffff021916908373ffffffffffffffffffffffffffffffffffffffff16021790555060095f9054906101000a900473ffffffffffffffffffffffffffffffffffffffff16600a5f6101000a81548173ffffffffffffffffffffffffffffffffffffffff021916908373ffffffffffffffffffffffffffffffffffffffff16021790555050620001f3565b5f80fd5b5f73ffffffffffffffffffffffffffffffffffffffff82169050919050565b5f6200018d8262000162565b9050919050565b6200019f8162000181565b8114620001aa575f80fd5b50565b5f81519050620001bd8162000194565b92915050565b5f60208284031215620001db57620001da6200015e565b5b5f620001ea84828501620001ad565b91505092915050565b611a3380620002015f395ff3fe60806040526004361061009f575f3560e01c80638da5cb5b116100635780638da5cb5b146101a8578063b254b80a146101d2578063ca628c78146101fe578063e086e5ec14610214578063f6326fb31461022a578063ff2c034e14610234576100ae565b80632b7e8faf146100b25780633aecd0e3146100de5780633bb66a7b1461011a5780635fbe4d1d146101565780636215be7714610180576100ae565b366100ae576100ac61025e565b005b5f80fd5b3480156100bd575f80fd5b506100c66102ba565b6040516100d593929190611594565b60405180910390f35b3480156100e9575f80fd5b5061010460048036038101906100ff91906115f7565b610368565b604051610111919061163a565b60405180910390f35b348015610125575f80fd5b50610140600480360381019061013b91906115f7565b6103ae565b60405161014d919061163a565b60405180910390f35b348015610161575f80fd5b5061016a6103f3565b6040516101779190611653565b60405180910390f35b34801561018b575f80fd5b506101a660048036038101906101a19190611696565b610418565b005b3480156101b3575f80fd5b506101bc6105f4565b6040516101c99190611653565b60405180910390f35b3480156101dd575f80fd5b506101e6610619565b6040516101f593929190611594565b60405180910390f35b348015610209575f80fd5b506102126106c8565b005b34801561021f575f80fd5b506102286108af565b005b61023261025e565b005b34801561023f575f80fd5b506102486109a5565b604051610255919061171c565b60405180910390f35b345f803373ffffffffffffffffffffffffffffffffffffffff1673ffffffffffffffffffffffffffffffffffffffff1681526020019081526020015f205f8282546102a99190611762565b925050819055506102b86109ca565b565b5f805f60015f600381106102d1576102d0611795565b5b015f9054906101000a900473ffffffffffffffffffffffffffffffffffffffff166001806003811061030657610305611795565b5b015f9054906101000a900473ffffffffffffffffffffffffffffffffffffffff16600160026003811061033c5761033b611795565b5b015f9054906101000a900473ffffffffffffffffffffffffffffffffffffffff16925092509250909192565b5f60055f8373ffffffffffffffffffffffffffffffffffffffff1673ffffffffffffffffffffffffffffffffffffffff1681526020019081526020015f20549050919050565b5f805f8373ffffffffffffffffffffffffffffffffffffffff1673ffffffffffffffffffffffffffffffffffffffff1681526020019081526020015f20549050919050565b60095f9054906101000a900473ffffffffffffffffffffffffffffffffffffffff1681565b5f600a5f9054906101000a900473ffffffffffffffffffffffffffffffffffffffff1673ffffffffffffffffffffffffffffffffffffffff166323b872dd3330856040518463ffffffff1660e01b8152600401610477939291906117c2565b6020604051808303815f875af1158015610493573d5f803e3d5ffd5b505050506040513d601f19601f820116820180604052508101906104b7919061182c565b9050806105955781600a5f9054906101000a900473ffffffffffffffffffffffffffffffffffffffff1673ffffffffffffffffffffffffffffffffffffffff166370a08231336040518263ffffffff1660e01b81526004016105199190611653565b602060405180830381865afa158015610534573d5f803e3d5ffd5b505050506040513d601f19601f82011682018060405250810190610558919061186b565b6040517f3a72b7f500000000000000000000000000000000000000000000000000000000815260040161058c929190611896565b60405180910390fd5b8160055f3373ffffffffffffffffffffffffffffffffffffffff1673ffffffffffffffffffffffffffffffffffffffff1681526020019081526020015f205f8282546105e19190611762565b925050819055506105f0610ef0565b5050565b60045f9054906101000a900473ffffffffffffffffffffffffffffffffffffffff1681565b5f805f60065f600381106106305761062f611795565b5b015f9054906101000a900473ffffffffffffffffffffffffffffffffffffffff16600660016003811061066657610665611795565b5b015f9054906101000a900473ffffffffffffffffffffffffffffffffffffffff16600660026003811061069c5761069b611795565b5b015f9054906101000a900473ffffffffffffffffffffffffffffffffffffffff16925092509250909192565b60045f9054906101000a900473ffffffffffffffffffffffffffffffffffffffff1673ffffffffffffffffffffffffffffffffffffffff163373ffffffffffffffffffffffffffffffffffffffff1614610757576040517f08c379a000000000000000000000000000000000000000000000000000000000815260040161074e90611917565b60405180910390fd5b600a5f9054906101000a900473ffffffffffffffffffffffffffffffffffffffff1673ffffffffffffffffffffffffffffffffffffffff1663a9059cbb60045f9054906101000a900473ffffffffffffffffffffffffffffffffffffffff16600a5f9054906101000a900473ffffffffffffffffffffffffffffffffffffffff1673ffffffffffffffffffffffffffffffffffffffff166370a08231306040518263ffffffff1660e01b81526004016108109190611653565b602060405180830381865afa15801561082b573d5f803e3d5ffd5b505050506040513d601f19601f8201168201806040525081019061084f919061186b565b6040518363ffffffff1660e01b815260040161086c929190611935565b6020604051808303815f875af1158015610888573d5f803e3d5ffd5b505050506040513d601f19601f820116820180604052508101906108ac919061182c565b50565b60045f9054906101000a900473ffffffffffffffffffffffffffffffffffffffff1673ffffffffffffffffffffffffffffffffffffffff163373ffffffffffffffffffffffffffffffffffffffff161461093e576040517f08c379a000000000000000000000000000000000000000000000000000000000815260040161093590611917565b60405180910390fd5b60045f9054906101000a900473ffffffffffffffffffffffffffffffffffffffff1673ffffffffffffffffffffffffffffffffffffffff166108fc4790811502906040515f60405180830381858888f193505050501580156109a2573d5f803e3d5ffd5b50565b600a5f9054906101000a900473ffffffffffffffffffffffffffffffffffffffff1681565b5f6109d361141d565b90505f8061030990506103e78314610c7c576004836109f29190611762565b91505f600383610a02919061195c565b90505b6001811115610c76575f8414610c63575f806001600284610a26919061195c565b60038110610a3757610a36611795565b5b015f9054906101000a900473ffffffffffffffffffffffffffffffffffffffff1673ffffffffffffffffffffffffffffffffffffffff1673ffffffffffffffffffffffffffffffffffffffff1681526020019081526020015f20545f803373ffffffffffffffffffffffffffffffffffffffff1673ffffffffffffffffffffffffffffffffffffffff1681526020019081526020015f20541115610c0457600281610ae2919061195c565b91505f600290505b600282610af7919061195c565b811115610ba35760018082610b0c919061195c565b60038110610b1d57610b1c611795565b5b015f9054906101000a900473ffffffffffffffffffffffffffffffffffffffff1660018260038110610b5257610b51611795565b5b015f6101000a81548173ffffffffffffffffffffffffffffffffffffffff021916908373ffffffffffffffffffffffffffffffffffffffff1602179055508080610b9b9061198f565b915050610aea565b505f8203610bff573360018360038110610bc057610bbf611795565b5b015f6101000a81548173ffffffffffffffffffffffffffffffffffffffff021916908373ffffffffffffffffffffffffffffffffffffffff1602179055505b610c62565b6103098214610c61573360018360038110610c2257610c21611795565b5b015f6101000a81548173ffffffffffffffffffffffffffffffffffffffff021916908373ffffffffffffffffffffffffffffffffffffffff1602179055505b5b5b8080610c6e9061198f565b915050610a05565b50610eeb565b5f600390505b5f811115610ee9575f8060018084610c9a919061195c565b60038110610cab57610caa611795565b5b015f9054906101000a900473ffffffffffffffffffffffffffffffffffffffff1673ffffffffffffffffffffffffffffffffffffffff1673ffffffffffffffffffffffffffffffffffffffff1681526020019081526020015f20545f803373ffffffffffffffffffffffffffffffffffffffff1673ffffffffffffffffffffffffffffffffffffffff1681526020019081526020015f20541115610e7857600181610d56919061195c565b91505f600290505b600182610d6b919061195c565b811115610e175760018082610d80919061195c565b60038110610d9157610d90611795565b5b015f9054906101000a900473ffffffffffffffffffffffffffffffffffffffff1660018260038110610dc657610dc5611795565b5b015f6101000a81548173ffffffffffffffffffffffffffffffffffffffff021916908373ffffffffffffffffffffffffffffffffffffffff1602179055508080610e0f9061198f565b915050610d5e565b505f8203610e73573360018360038110610e3457610e33611795565b5b015f6101000a81548173ffffffffffffffffffffffffffffffffffffffff021916908373ffffffffffffffffffffffffffffffffffffffff1602179055505b610ed6565b6103098214610ed5573360018360038110610e9657610e95611795565b5b015f6101000a81548173ffffffffffffffffffffffffffffffffffffffff021916908373ffffffffffffffffffffffffffffffffffffffff1602179055505b5b8080610ee19061198f565b915050610c82565b505b505050565b5f610ef96114b9565b90505f8061030990506103e783146111a557600483610f189190611762565b91505f600383610f28919061195c565b90505b600181111561119f575f841461118c5760055f6006600284610f4d919061195c565b60038110610f5e57610f5d611795565b5b015f9054906101000a900473ffffffffffffffffffffffffffffffffffffffff1673ffffffffffffffffffffffffffffffffffffffff1673ffffffffffffffffffffffffffffffffffffffff1681526020019081526020015f205460055f3373ffffffffffffffffffffffffffffffffffffffff1673ffffffffffffffffffffffffffffffffffffffff1681526020019081526020015f2054111561112d5760028161100a919061195c565b91505f600290505b60028261101f919061195c565b8111156110cc576006600182611035919061195c565b6003811061104657611045611795565b5b015f9054906101000a900473ffffffffffffffffffffffffffffffffffffffff166006826003811061107b5761107a611795565b5b015f6101000a81548173ffffffffffffffffffffffffffffffffffffffff021916908373ffffffffffffffffffffffffffffffffffffffff16021790555080806110c49061198f565b915050611012565b505f82036111285733600683600381106110e9576110e8611795565b5b015f6101000a81548173ffffffffffffffffffffffffffffffffffffffff021916908373ffffffffffffffffffffffffffffffffffffffff1602179055505b61118b565b610309821461118a57336006836003811061114b5761114a611795565b5b015f6101000a81548173ffffffffffffffffffffffffffffffffffffffff021916908373ffffffffffffffffffffffffffffffffffffffff1602179055505b5b5b80806111979061198f565b915050610f2b565b50611418565b5f600390505b5f8111156114165760055f60066001846111c5919061195c565b600381106111d6576111d5611795565b5b015f9054906101000a900473ffffffffffffffffffffffffffffffffffffffff1673ffffffffffffffffffffffffffffffffffffffff1673ffffffffffffffffffffffffffffffffffffffff1681526020019081526020015f205460055f3373ffffffffffffffffffffffffffffffffffffffff1673ffffffffffffffffffffffffffffffffffffffff1681526020019081526020015f205411156113a557600181611282919061195c565b91505f600290505b600182611297919061195c565b8111156113445760066001826112ad919061195c565b600381106112be576112bd611795565b5b015f9054906101000a900473ffffffffffffffffffffffffffffffffffffffff16600682600381106112f3576112f2611795565b5b015f6101000a81548173ffffffffffffffffffffffffffffffffffffffff021916908373ffffffffffffffffffffffffffffffffffffffff160217905550808061133c9061198f565b91505061128a565b505f82036113a057336006836003811061136157611360611795565b5b015f6101000a81548173ffffffffffffffffffffffffffffffffffffffff021916908373ffffffffffffffffffffffffffffffffffffffff1602179055505b611403565b61030982146114025733600683600381106113c3576113c2611795565b5b015f6101000a81548173ffffffffffffffffffffffffffffffffffffffff021916908373ffffffffffffffffffffffffffffffffffffffff1602179055505b5b808061140e9061198f565b9150506111ab565b505b505050565b5f806103e790505f5b60038110156114b1573373ffffffffffffffffffffffffffffffffffffffff166001826003811061145a57611459611795565b5b015f9054906101000a900473ffffffffffffffffffffffffffffffffffffffff1673ffffffffffffffffffffffffffffffffffffffff160361149e578091506114b1565b80806114a9906119b6565b915050611426565b508091505090565b5f806103e790505f5b600381101561154d573373ffffffffffffffffffffffffffffffffffffffff16600682600381106114f6576114f5611795565b5b015f9054906101000a900473ffffffffffffffffffffffffffffffffffffffff1673ffffffffffffffffffffffffffffffffffffffff160361153a5780915061154d565b8080611545906119b6565b9150506114c2565b508091505090565b5f73ffffffffffffffffffffffffffffffffffffffff82169050919050565b5f61157e82611555565b9050919050565b61158e81611574565b82525050565b5f6060820190506115a75f830186611585565b6115b46020830185611585565b6115c16040830184611585565b949350505050565b5f80fd5b6115d681611574565b81146115e0575f80fd5b50565b5f813590506115f1816115cd565b92915050565b5f6020828403121561160c5761160b6115c9565b5b5f611619848285016115e3565b91505092915050565b5f819050919050565b61163481611622565b82525050565b5f60208201905061164d5f83018461162b565b92915050565b5f6020820190506116665f830184611585565b92915050565b61167581611622565b811461167f575f80fd5b50565b5f813590506116908161166c565b92915050565b5f602082840312156116ab576116aa6115c9565b5b5f6116b884828501611682565b91505092915050565b5f819050919050565b5f6116e46116df6116da84611555565b6116c1565b611555565b9050919050565b5f6116f5826116ca565b9050919050565b5f611706826116eb565b9050919050565b611716816116fc565b82525050565b5f60208201905061172f5f83018461170d565b92915050565b7f4e487b71000000000000000000000000000000000000000000000000000000005f52601160045260245ffd5b5f61176c82611622565b915061177783611622565b925082820190508082111561178f5761178e611735565b5b92915050565b7f4e487b71000000000000000000000000000000000000000000000000000000005f52603260045260245ffd5b5f6060820190506117d55f830186611585565b6117e26020830185611585565b6117ef604083018461162b565b949350505050565b5f8115159050919050565b61180b816117f7565b8114611815575f80fd5b50565b5f8151905061182681611802565b92915050565b5f60208284031215611841576118406115c9565b5b5f61184e84828501611818565b91505092915050565b5f815190506118658161166c565b92915050565b5f602082840312156118805761187f6115c9565b5b5f61188d84828501611857565b91505092915050565b5f6040820190506118a95f83018561162b565b6118b6602083018461162b565b9392505050565b5f82825260208201905092915050565b7f4f6e6c79206f776e65722063616e2063616c6c000000000000000000000000005f82015250565b5f6119016013836118bd565b915061190c826118cd565b602082019050919050565b5f6020820190508181035f83015261192e816118f5565b9050919050565b5f6040820190506119485f830185611585565b611955602083018461162b565b9392505050565b5f61196682611622565b915061197183611622565b925082820390508181111561198957611988611735565b5b92915050565b5f61199982611622565b91505f82036119ab576119aa611735565b5b600182039050919050565b5f6119c082611622565b91507fffffffffffffffffffffffffffffffffffffffffffffffffffffffffffffffff82036119f2576119f1611735565b5b60018201905091905056fea2646970667358221220be940729cc4bfef77684747579cfac63f676f5ea21cc13a0ec46a36caa4229d964736f6c63430008150033",
					"opcodes": "PUSH1 0x80 PUSH1 0x40 MSTORE CALLVALUE DUP1 ISZERO PUSH3 0x10 JUMPI PUSH0 DUP1 REVERT JUMPDEST POP PUSH1 0x40 MLOAD PUSH3 0x1C34 CODESIZE SUB DUP1 PUSH3 0x1C34 DUP4 CODECOPY DUP2 DUP2 ADD PUSH1 0x40 MSTORE DUP2 ADD SWAP1 PUSH3 0x36 SWAP2 SWAP1 PUSH3 0x1C3 JUMP JUMPDEST CALLER PUSH1 0x4 PUSH0 PUSH2 0x100 EXP DUP2 SLOAD DUP2 PUSH20 0xFFFFFFFFFFFFFFFFFFFFFFFFFFFFFFFFFFFFFFFF MUL NOT AND SWAP1 DUP4 PUSH20 0xFFFFFFFFFFFFFFFFFFFFFFFFFFFFFFFFFFFFFFFF AND MUL OR SWAP1 SSTORE POP DUP1 PUSH1 0x9 PUSH0 PUSH2 0x100 EXP DUP2 SLOAD DUP2 PUSH20 0xFFFFFFFFFFFFFFFFFFFFFFFFFFFFFFFFFFFFFFFF MUL NOT AND SWAP1 DUP4 PUSH20 0xFFFFFFFFFFFFFFFFFFFFFFFFFFFFFFFFFFFFFFFF AND MUL OR SWAP1 SSTORE POP CALLER PUSH1 0x4 PUSH0 PUSH2 0x100 EXP DUP2 SLOAD DUP2 PUSH20 0xFFFFFFFFFFFFFFFFFFFFFFFFFFFFFFFFFFFFFFFF MUL NOT AND SWAP1 DUP4 PUSH20 0xFFFFFFFFFFFFFFFFFFFFFFFFFFFFFFFFFFFFFFFF AND MUL OR SWAP1 SSTORE POP PUSH1 0x9 PUSH0 SWAP1 SLOAD SWAP1 PUSH2 0x100 EXP SWAP1 DIV PUSH20 0xFFFFFFFFFFFFFFFFFFFFFFFFFFFFFFFFFFFFFFFF AND PUSH1 0xA PUSH0 PUSH2 0x100 EXP DUP2 SLOAD DUP2 PUSH20 0xFFFFFFFFFFFFFFFFFFFFFFFFFFFFFFFFFFFFFFFF MUL NOT AND SWAP1 DUP4 PUSH20 0xFFFFFFFFFFFFFFFFFFFFFFFFFFFFFFFFFFFFFFFF AND MUL OR SWAP1 SSTORE POP POP PUSH3 0x1F3 JUMP JUMPDEST PUSH0 DUP1 REVERT JUMPDEST PUSH0 PUSH20 0xFFFFFFFFFFFFFFFFFFFFFFFFFFFFFFFFFFFFFFFF DUP3 AND SWAP1 POP SWAP2 SWAP1 POP JUMP JUMPDEST PUSH0 PUSH3 0x18D DUP3 PUSH3 0x162 JUMP JUMPDEST SWAP1 POP SWAP2 SWAP1 POP JUMP JUMPDEST PUSH3 0x19F DUP2 PUSH3 0x181 JUMP JUMPDEST DUP2 EQ PUSH3 0x1AA JUMPI PUSH0 DUP1 REVERT JUMPDEST POP JUMP JUMPDEST PUSH0 DUP2 MLOAD SWAP1 POP PUSH3 0x1BD DUP2 PUSH3 0x194 JUMP JUMPDEST SWAP3 SWAP2 POP POP JUMP JUMPDEST PUSH0 PUSH1 0x20 DUP3 DUP5 SUB SLT ISZERO PUSH3 0x1DB JUMPI PUSH3 0x1DA PUSH3 0x15E JUMP JUMPDEST JUMPDEST PUSH0 PUSH3 0x1EA DUP5 DUP3 DUP6 ADD PUSH3 0x1AD JUMP JUMPDEST SWAP2 POP POP SWAP3 SWAP2 POP POP JUMP JUMPDEST PUSH2 0x1A33 DUP1 PUSH3 0x201 PUSH0 CODECOPY PUSH0 RETURN INVALID PUSH1 0x80 PUSH1 0x40 MSTORE PUSH1 0x4 CALLDATASIZE LT PUSH2 0x9F JUMPI PUSH0 CALLDATALOAD PUSH1 0xE0 SHR DUP1 PUSH4 0x8DA5CB5B GT PUSH2 0x63 JUMPI DUP1 PUSH4 0x8DA5CB5B EQ PUSH2 0x1A8 JUMPI DUP1 PUSH4 0xB254B80A EQ PUSH2 0x1D2 JUMPI DUP1 PUSH4 0xCA628C78 EQ PUSH2 0x1FE JUMPI DUP1 PUSH4 0xE086E5EC EQ PUSH2 0x214 JUMPI DUP1 PUSH4 0xF6326FB3 EQ PUSH2 0x22A JUMPI DUP1 PUSH4 0xFF2C034E EQ PUSH2 0x234 JUMPI PUSH2 0xAE JUMP JUMPDEST DUP1 PUSH4 0x2B7E8FAF EQ PUSH2 0xB2 JUMPI DUP1 PUSH4 0x3AECD0E3 EQ PUSH2 0xDE JUMPI DUP1 PUSH4 0x3BB66A7B EQ PUSH2 0x11A JUMPI DUP1 PUSH4 0x5FBE4D1D EQ PUSH2 0x156 JUMPI DUP1 PUSH4 0x6215BE77 EQ PUSH2 0x180 JUMPI PUSH2 0xAE JUMP JUMPDEST CALLDATASIZE PUSH2 0xAE JUMPI PUSH2 0xAC PUSH2 0x25E JUMP JUMPDEST STOP JUMPDEST PUSH0 DUP1 REVERT JUMPDEST CALLVALUE DUP1 ISZERO PUSH2 0xBD JUMPI PUSH0 DUP1 REVERT JUMPDEST POP PUSH2 0xC6 PUSH2 0x2BA JUMP JUMPDEST PUSH1 0x40 MLOAD PUSH2 0xD5 SWAP4 SWAP3 SWAP2 SWAP1 PUSH2 0x1594 JUMP JUMPDEST PUSH1 0x40 MLOAD DUP1 SWAP2 SUB SWAP1 RETURN JUMPDEST CALLVALUE DUP1 ISZERO PUSH2 0xE9 JUMPI PUSH0 DUP1 REVERT JUMPDEST POP PUSH2 0x104 PUSH1 0x4 DUP1 CALLDATASIZE SUB DUP2 ADD SWAP1 PUSH2 0xFF SWAP2 SWAP1 PUSH2 0x15F7 JUMP JUMPDEST PUSH2 0x368 JUMP JUMPDEST PUSH1 0x40 MLOAD PUSH2 0x111 SWAP2 SWAP1 PUSH2 0x163A JUMP JUMPDEST PUSH1 0x40 MLOAD DUP1 SWAP2 SUB SWAP1 RETURN JUMPDEST CALLVALUE DUP1 ISZERO PUSH2 0x125 JUMPI PUSH0 DUP1 REVERT JUMPDEST POP PUSH2 0x140 PUSH1 0x4 DUP1 CALLDATASIZE SUB DUP2 ADD SWAP1 PUSH2 0x13B SWAP2 SWAP1 PUSH2 0x15F7 JUMP JUMPDEST PUSH2 0x3AE JUMP JUMPDEST PUSH1 0x40 MLOAD PUSH2 0x14D SWAP2 SWAP1 PUSH2 0x163A JUMP JUMPDEST PUSH1 0x40 MLOAD DUP1 SWAP2 SUB SWAP1 RETURN JUMPDEST CALLVALUE DUP1 ISZERO PUSH2 0x161 JUMPI PUSH0 DUP1 REVERT JUMPDEST POP PUSH2 0x16A PUSH2 0x3F3 JUMP JUMPDEST PUSH1 0x40 MLOAD PUSH2 0x177 SWAP2 SWAP1 PUSH2 0x1653 JUMP JUMPDEST PUSH1 0x40 MLOAD DUP1 SWAP2 SUB SWAP1 RETURN JUMPDEST CALLVALUE DUP1 ISZERO PUSH2 0x18B JUMPI PUSH0 DUP1 REVERT JUMPDEST POP PUSH2 0x1A6 PUSH1 0x4 DUP1 CALLDATASIZE SUB DUP2 ADD SWAP1 PUSH2 0x1A1 SWAP2 SWAP1 PUSH2 0x1696 JUMP JUMPDEST PUSH2 0x418 JUMP JUMPDEST STOP JUMPDEST CALLVALUE DUP1 ISZERO PUSH2 0x1B3 JUMPI PUSH0 DUP1 REVERT JUMPDEST POP PUSH2 0x1BC PUSH2 0x5F4 JUMP JUMPDEST PUSH1 0x40 MLOAD PUSH2 0x1C9 SWAP2 SWAP1 PUSH2 0x1653 JUMP JUMPDEST PUSH1 0x40 MLOAD DUP1 SWAP2 SUB SWAP1 RETURN JUMPDEST CALLVALUE DUP1 ISZERO PUSH2 0x1DD JUMPI PUSH0 DUP1 REVERT JUMPDEST POP PUSH2 0x1E6 PUSH2 0x619 JUMP JUMPDEST PUSH1 0x40 MLOAD PUSH2 0x1F5 SWAP4 SWAP3 SWAP2 SWAP1 PUSH2 0x1594 JUMP JUMPDEST PUSH1 0x40 MLOAD DUP1 SWAP2 SUB SWAP1 RETURN JUMPDEST CALLVALUE DUP1 ISZERO PUSH2 0x209 JUMPI PUSH0 DUP1 REVERT JUMPDEST POP PUSH2 0x212 PUSH2 0x6C8 JUMP JUMPDEST STOP JUMPDEST CALLVALUE DUP1 ISZERO PUSH2 0x21F JUMPI PUSH0 DUP1 REVERT JUMPDEST POP PUSH2 0x228 PUSH2 0x8AF JUMP JUMPDEST STOP JUMPDEST PUSH2 0x232 PUSH2 0x25E JUMP JUMPDEST STOP JUMPDEST CALLVALUE DUP1 ISZERO PUSH2 0x23F JUMPI PUSH0 DUP1 REVERT JUMPDEST POP PUSH2 0x248 PUSH2 0x9A5 JUMP JUMPDEST PUSH1 0x40 MLOAD PUSH2 0x255 SWAP2 SWAP1 PUSH2 0x171C JUMP JUMPDEST PUSH1 0x40 MLOAD DUP1 SWAP2 SUB SWAP1 RETURN JUMPDEST CALLVALUE PUSH0 DUP1 CALLER PUSH20 0xFFFFFFFFFFFFFFFFFFFFFFFFFFFFFFFFFFFFFFFF AND PUSH20 0xFFFFFFFFFFFFFFFFFFFFFFFFFFFFFFFFFFFFFFFF AND DUP2 MSTORE PUSH1 0x20 ADD SWAP1 DUP2 MSTORE PUSH1 0x20 ADD PUSH0 KECCAK256 PUSH0 DUP3 DUP3 SLOAD PUSH2 0x2A9 SWAP2 SWAP1 PUSH2 0x1762 JUMP JUMPDEST SWAP3 POP POP DUP2 SWAP1 SSTORE POP PUSH2 0x2B8 PUSH2 0x9CA JUMP JUMPDEST JUMP JUMPDEST PUSH0 DUP1 PUSH0 PUSH1 0x1 PUSH0 PUSH1 0x3 DUP2 LT PUSH2 0x2D1 JUMPI PUSH2 0x2D0 PUSH2 0x1795 JUMP JUMPDEST JUMPDEST ADD PUSH0 SWAP1 SLOAD SWAP1 PUSH2 0x100 EXP SWAP1 DIV PUSH20 0xFFFFFFFFFFFFFFFFFFFFFFFFFFFFFFFFFFFFFFFF AND PUSH1 0x1 DUP1 PUSH1 0x3 DUP2 LT PUSH2 0x306 JUMPI PUSH2 0x305 PUSH2 0x1795 JUMP JUMPDEST JUMPDEST ADD PUSH0 SWAP1 SLOAD SWAP1 PUSH2 0x100 EXP SWAP1 DIV PUSH20 0xFFFFFFFFFFFFFFFFFFFFFFFFFFFFFFFFFFFFFFFF AND PUSH1 0x1 PUSH1 0x2 PUSH1 0x3 DUP2 LT PUSH2 0x33C JUMPI PUSH2 0x33B PUSH2 0x1795 JUMP JUMPDEST JUMPDEST ADD PUSH0 SWAP1 SLOAD SWAP1 PUSH2 0x100 EXP SWAP1 DIV PUSH20 0xFFFFFFFFFFFFFFFFFFFFFFFFFFFFFFFFFFFFFFFF AND SWAP3 POP SWAP3 POP SWAP3 POP SWAP1 SWAP2 SWAP3 JUMP JUMPDEST PUSH0 PUSH1 0x5 PUSH0 DUP4 PUSH20 0xFFFFFFFFFFFFFFFFFFFFFFFFFFFFFFFFFFFFFFFF AND PUSH20 0xFFFFFFFFFFFFFFFFFFFFFFFFFFFFFFFFFFFFFFFF AND DUP2 MSTORE PUSH1 0x20 ADD SWAP1 DUP2 MSTORE PUSH1 0x20 ADD PUSH0 KECCAK256 SLOAD SWAP1 POP SWAP2 SWAP1 POP JUMP JUMPDEST PUSH0 DUP1 PUSH0 DUP4 PUSH20 0xFFFFFFFFFFFFFFFFFFFFFFFFFFFFFFFFFFFFFFFF AND PUSH20 0xFFFFFFFFFFFFFFFFFFFFFFFFFFFFFFFFFFFFFFFF AND DUP2 MSTORE PUSH1 0x20 ADD SWAP1 DUP2 MSTORE PUSH1 0x20 ADD PUSH0 KECCAK256 SLOAD SWAP1 POP SWAP2 SWAP1 POP JUMP JUMPDEST PUSH1 0x9 PUSH0 SWAP1 SLOAD SWAP1 PUSH2 0x100 EXP SWAP1 DIV PUSH20 0xFFFFFFFFFFFFFFFFFFFFFFFFFFFFFFFFFFFFFFFF AND DUP2 JUMP JUMPDEST PUSH0 PUSH1 0xA PUSH0 SWAP1 SLOAD SWAP1 PUSH2 0x100 EXP SWAP1 DIV PUSH20 0xFFFFFFFFFFFFFFFFFFFFFFFFFFFFFFFFFFFFFFFF AND PUSH20 0xFFFFFFFFFFFFFFFFFFFFFFFFFFFFFFFFFFFFFFFF AND PUSH4 0x23B872DD CALLER ADDRESS DUP6 PUSH1 0x40 MLOAD DUP5 PUSH4 0xFFFFFFFF AND PUSH1 0xE0 SHL DUP2 MSTORE PUSH1 0x4 ADD PUSH2 0x477 SWAP4 SWAP3 SWAP2 SWAP1 PUSH2 0x17C2 JUMP JUMPDEST PUSH1 0x20 PUSH1 0x40 MLOAD DUP1 DUP4 SUB DUP2 PUSH0 DUP8 GAS CALL ISZERO DUP1 ISZERO PUSH2 0x493 JUMPI RETURNDATASIZE PUSH0 DUP1 RETURNDATACOPY RETURNDATASIZE PUSH0 REVERT JUMPDEST POP POP POP POP PUSH1 0x40 MLOAD RETURNDATASIZE PUSH1 0x1F NOT PUSH1 0x1F DUP3 ADD AND DUP3 ADD DUP1 PUSH1 0x40 MSTORE POP DUP2 ADD SWAP1 PUSH2 0x4B7 SWAP2 SWAP1 PUSH2 0x182C JUMP JUMPDEST SWAP1 POP DUP1 PUSH2 0x595 JUMPI DUP2 PUSH1 0xA PUSH0 SWAP1 SLOAD SWAP1 PUSH2 0x100 EXP SWAP1 DIV PUSH20 0xFFFFFFFFFFFFFFFFFFFFFFFFFFFFFFFFFFFFFFFF AND PUSH20 0xFFFFFFFFFFFFFFFFFFFFFFFFFFFFFFFFFFFFFFFF AND PUSH4 0x70A08231 CALLER PUSH1 0x40 MLOAD DUP3 PUSH4 0xFFFFFFFF AND PUSH1 0xE0 SHL DUP2 MSTORE PUSH1 0x4 ADD PUSH2 0x519 SWAP2 SWAP1 PUSH2 0x1653 JUMP JUMPDEST PUSH1 0x20 PUSH1 0x40 MLOAD DUP1 DUP4 SUB DUP2 DUP7 GAS STATICCALL ISZERO DUP1 ISZERO PUSH2 0x534 JUMPI RETURNDATASIZE PUSH0 DUP1 RETURNDATACOPY RETURNDATASIZE PUSH0 REVERT JUMPDEST POP POP POP POP PUSH1 0x40 MLOAD RETURNDATASIZE PUSH1 0x1F NOT PUSH1 0x1F DUP3 ADD AND DUP3 ADD DUP1 PUSH1 0x40 MSTORE POP DUP2 ADD SWAP1 PUSH2 0x558 SWAP2 SWAP1 PUSH2 0x186B JUMP JUMPDEST PUSH1 0x40 MLOAD PUSH32 0x3A72B7F500000000000000000000000000000000000000000000000000000000 DUP2 MSTORE PUSH1 0x4 ADD PUSH2 0x58C SWAP3 SWAP2 SWAP1 PUSH2 0x1896 JUMP JUMPDEST PUSH1 0x40 MLOAD DUP1 SWAP2 SUB SWAP1 REVERT JUMPDEST DUP2 PUSH1 0x5 PUSH0 CALLER PUSH20 0xFFFFFFFFFFFFFFFFFFFFFFFFFFFFFFFFFFFFFFFF AND PUSH20 0xFFFFFFFFFFFFFFFFFFFFFFFFFFFFFFFFFFFFFFFF AND DUP2 MSTORE PUSH1 0x20 ADD SWAP1 DUP2 MSTORE PUSH1 0x20 ADD PUSH0 KECCAK256 PUSH0 DUP3 DUP3 SLOAD PUSH2 0x5E1 SWAP2 SWAP1 PUSH2 0x1762 JUMP JUMPDEST SWAP3 POP POP DUP2 SWAP1 SSTORE POP PUSH2 0x5F0 PUSH2 0xEF0 JUMP JUMPDEST POP POP JUMP JUMPDEST PUSH1 0x4 PUSH0 SWAP1 SLOAD SWAP1 PUSH2 0x100 EXP SWAP1 DIV PUSH20 0xFFFFFFFFFFFFFFFFFFFFFFFFFFFFFFFFFFFFFFFF AND DUP2 JUMP JUMPDEST PUSH0 DUP1 PUSH0 PUSH1 0x6 PUSH0 PUSH1 0x3 DUP2 LT PUSH2 0x630 JUMPI PUSH2 0x62F PUSH2 0x1795 JUMP JUMPDEST JUMPDEST ADD PUSH0 SWAP1 SLOAD SWAP1 PUSH2 0x100 EXP SWAP1 DIV PUSH20 0xFFFFFFFFFFFFFFFFFFFFFFFFFFFFFFFFFFFFFFFF AND PUSH1 0x6 PUSH1 0x1 PUSH1 0x3 DUP2 LT PUSH2 0x666 JUMPI PUSH2 0x665 PUSH2 0x1795 JUMP JUMPDEST JUMPDEST ADD PUSH0 SWAP1 SLOAD SWAP1 PUSH2 0x100 EXP SWAP1 DIV PUSH20 0xFFFFFFFFFFFFFFFFFFFFFFFFFFFFFFFFFFFFFFFF AND PUSH1 0x6 PUSH1 0x2 PUSH1 0x3 DUP2 LT PUSH2 0x69C JUMPI PUSH2 0x69B PUSH2 0x1795 JUMP JUMPDEST JUMPDEST ADD PUSH0 SWAP1 SLOAD SWAP1 PUSH2 0x100 EXP SWAP1 DIV PUSH20 0xFFFFFFFFFFFFFFFFFFFFFFFFFFFFFFFFFFFFFFFF AND SWAP3 POP SWAP3 POP SWAP3 POP SWAP1 SWAP2 SWAP3 JUMP JUMPDEST PUSH1 0x4 PUSH0 SWAP1 SLOAD SWAP1 PUSH2 0x100 EXP SWAP1 DIV PUSH20 0xFFFFFFFFFFFFFFFFFFFFFFFFFFFFFFFFFFFFFFFF AND PUSH20 0xFFFFFFFFFFFFFFFFFFFFFFFFFFFFFFFFFFFFFFFF AND CALLER PUSH20 0xFFFFFFFFFFFFFFFFFFFFFFFFFFFFFFFFFFFFFFFF AND EQ PUSH2 0x757 JUMPI PUSH1 0x40 MLOAD PUSH32 0x8C379A000000000000000000000000000000000000000000000000000000000 DUP2 MSTORE PUSH1 0x4 ADD PUSH2 0x74E SWAP1 PUSH2 0x1917 JUMP JUMPDEST PUSH1 0x40 MLOAD DUP1 SWAP2 SUB SWAP1 REVERT JUMPDEST PUSH1 0xA PUSH0 SWAP1 SLOAD SWAP1 PUSH2 0x100 EXP SWAP1 DIV PUSH20 0xFFFFFFFFFFFFFFFFFFFFFFFFFFFFFFFFFFFFFFFF AND PUSH20 0xFFFFFFFFFFFFFFFFFFFFFFFFFFFFFFFFFFFFFFFF AND PUSH4 0xA9059CBB PUSH1 0x4 PUSH0 SWAP1 SLOAD SWAP1 PUSH2 0x100 EXP SWAP1 DIV PUSH20 0xFFFFFFFFFFFFFFFFFFFFFFFFFFFFFFFFFFFFFFFF AND PUSH1 0xA PUSH0 SWAP1 SLOAD SWAP1 PUSH2 0x100 EXP SWAP1 DIV PUSH20 0xFFFFFFFFFFFFFFFFFFFFFFFFFFFFFFFFFFFFFFFF AND PUSH20 0xFFFFFFFFFFFFFFFFFFFFFFFFFFFFFFFFFFFFFFFF AND PUSH4 0x70A08231 ADDRESS PUSH1 0x40 MLOAD DUP3 PUSH4 0xFFFFFFFF AND PUSH1 0xE0 SHL DUP2 MSTORE PUSH1 0x4 ADD PUSH2 0x810 SWAP2 SWAP1 PUSH2 0x1653 JUMP JUMPDEST PUSH1 0x20 PUSH1 0x40 MLOAD DUP1 DUP4 SUB DUP2 DUP7 GAS STATICCALL ISZERO DUP1 ISZERO PUSH2 0x82B JUMPI RETURNDATASIZE PUSH0 DUP1 RETURNDATACOPY RETURNDATASIZE PUSH0 REVERT JUMPDEST POP POP POP POP PUSH1 0x40 MLOAD RETURNDATASIZE PUSH1 0x1F NOT PUSH1 0x1F DUP3 ADD AND DUP3 ADD DUP1 PUSH1 0x40 MSTORE POP DUP2 ADD SWAP1 PUSH2 0x84F SWAP2 SWAP1 PUSH2 0x186B JUMP JUMPDEST PUSH1 0x40 MLOAD DUP4 PUSH4 0xFFFFFFFF AND PUSH1 0xE0 SHL DUP2 MSTORE PUSH1 0x4 ADD PUSH2 0x86C SWAP3 SWAP2 SWAP1 PUSH2 0x1935 JUMP JUMPDEST PUSH1 0x20 PUSH1 0x40 MLOAD DUP1 DUP4 SUB DUP2 PUSH0 DUP8 GAS CALL ISZERO DUP1 ISZERO PUSH2 0x888 JUMPI RETURNDATASIZE PUSH0 DUP1 RETURNDATACOPY RETURNDATASIZE PUSH0 REVERT JUMPDEST POP POP POP POP PUSH1 0x40 MLOAD RETURNDATASIZE PUSH1 0x1F NOT PUSH1 0x1F DUP3 ADD AND DUP3 ADD DUP1 PUSH1 0x40 MSTORE POP DUP2 ADD SWAP1 PUSH2 0x8AC SWAP2 SWAP1 PUSH2 0x182C JUMP JUMPDEST POP JUMP JUMPDEST PUSH1 0x4 PUSH0 SWAP1 SLOAD SWAP1 PUSH2 0x100 EXP SWAP1 DIV PUSH20 0xFFFFFFFFFFFFFFFFFFFFFFFFFFFFFFFFFFFFFFFF AND PUSH20 0xFFFFFFFFFFFFFFFFFFFFFFFFFFFFFFFFFFFFFFFF AND CALLER PUSH20 0xFFFFFFFFFFFFFFFFFFFFFFFFFFFFFFFFFFFFFFFF AND EQ PUSH2 0x93E JUMPI PUSH1 0x40 MLOAD PUSH32 0x8C379A000000000000000000000000000000000000000000000000000000000 DUP2 MSTORE PUSH1 0x4 ADD PUSH2 0x935 SWAP1 PUSH2 0x1917 JUMP JUMPDEST PUSH1 0x40 MLOAD DUP1 SWAP2 SUB SWAP1 REVERT JUMPDEST PUSH1 0x4 PUSH0 SWAP1 SLOAD SWAP1 PUSH2 0x100 EXP SWAP1 DIV PUSH20 0xFFFFFFFFFFFFFFFFFFFFFFFFFFFFFFFFFFFFFFFF AND PUSH20 0xFFFFFFFFFFFFFFFFFFFFFFFFFFFFFFFFFFFFFFFF AND PUSH2 0x8FC SELFBALANCE SWAP1 DUP2 ISZERO MUL SWAP1 PUSH1 0x40 MLOAD PUSH0 PUSH1 0x40 MLOAD DUP1 DUP4 SUB DUP2 DUP6 DUP9 DUP9 CALL SWAP4 POP POP POP POP ISZERO DUP1 ISZERO PUSH2 0x9A2 JUMPI RETURNDATASIZE PUSH0 DUP1 RETURNDATACOPY RETURNDATASIZE PUSH0 REVERT JUMPDEST POP JUMP JUMPDEST PUSH1 0xA PUSH0 SWAP1 SLOAD SWAP1 PUSH2 0x100 EXP SWAP1 DIV PUSH20 0xFFFFFFFFFFFFFFFFFFFFFFFFFFFFFFFFFFFFFFFF AND DUP2 JUMP JUMPDEST PUSH0 PUSH2 0x9D3 PUSH2 0x141D JUMP JUMPDEST SWAP1 POP PUSH0 DUP1 PUSH2 0x309 SWAP1 POP PUSH2 0x3E7 DUP4 EQ PUSH2 0xC7C JUMPI PUSH1 0x4 DUP4 PUSH2 0x9F2 SWAP2 SWAP1 PUSH2 0x1762 JUMP JUMPDEST SWAP2 POP PUSH0 PUSH1 0x3 DUP4 PUSH2 0xA02 SWAP2 SWAP1 PUSH2 0x195C JUMP JUMPDEST SWAP1 POP JUMPDEST PUSH1 0x1 DUP2 GT ISZERO PUSH2 0xC76 JUMPI PUSH0 DUP5 EQ PUSH2 0xC63 JUMPI PUSH0 DUP1 PUSH1 0x1 PUSH1 0x2 DUP5 PUSH2 0xA26 SWAP2 SWAP1 PUSH2 0x195C JUMP JUMPDEST PUSH1 0x3 DUP2 LT PUSH2 0xA37 JUMPI PUSH2 0xA36 PUSH2 0x1795 JUMP JUMPDEST JUMPDEST ADD PUSH0 SWAP1 SLOAD SWAP1 PUSH2 0x100 EXP SWAP1 DIV PUSH20 0xFFFFFFFFFFFFFFFFFFFFFFFFFFFFFFFFFFFFFFFF AND PUSH20 0xFFFFFFFFFFFFFFFFFFFFFFFFFFFFFFFFFFFFFFFF AND PUSH20 0xFFFFFFFFFFFFFFFFFFFFFFFFFFFFFFFFFFFFFFFF AND DUP2 MSTORE PUSH1 0x20 ADD SWAP1 DUP2 MSTORE PUSH1 0x20 ADD PUSH0 KECCAK256 SLOAD PUSH0 DUP1 CALLER PUSH20 0xFFFFFFFFFFFFFFFFFFFFFFFFFFFFFFFFFFFFFFFF AND PUSH20 0xFFFFFFFFFFFFFFFFFFFFFFFFFFFFFFFFFFFFFFFF AND DUP2 MSTORE PUSH1 0x20 ADD SWAP1 DUP2 MSTORE PUSH1 0x20 ADD PUSH0 KECCAK256 SLOAD GT ISZERO PUSH2 0xC04 JUMPI PUSH1 0x2 DUP2 PUSH2 0xAE2 SWAP2 SWAP1 PUSH2 0x195C JUMP JUMPDEST SWAP2 POP PUSH0 PUSH1 0x2 SWAP1 POP JUMPDEST PUSH1 0x2 DUP3 PUSH2 0xAF7 SWAP2 SWAP1 PUSH2 0x195C JUMP JUMPDEST DUP2 GT ISZERO PUSH2 0xBA3 JUMPI PUSH1 0x1 DUP1 DUP3 PUSH2 0xB0C SWAP2 SWAP1 PUSH2 0x195C JUMP JUMPDEST PUSH1 0x3 DUP2 LT PUSH2 0xB1D JUMPI PUSH2 0xB1C PUSH2 0x1795 JUMP JUMPDEST JUMPDEST ADD PUSH0 SWAP1 SLOAD SWAP1 PUSH2 0x100 EXP SWAP1 DIV PUSH20 0xFFFFFFFFFFFFFFFFFFFFFFFFFFFFFFFFFFFFFFFF AND PUSH1 0x1 DUP3 PUSH1 0x3 DUP2 LT PUSH2 0xB52 JUMPI PUSH2 0xB51 PUSH2 0x1795 JUMP JUMPDEST JUMPDEST ADD PUSH0 PUSH2 0x100 EXP DUP2 SLOAD DUP2 PUSH20 0xFFFFFFFFFFFFFFFFFFFFFFFFFFFFFFFFFFFFFFFF MUL NOT AND SWAP1 DUP4 PUSH20 0xFFFFFFFFFFFFFFFFFFFFFFFFFFFFFFFFFFFFFFFF AND MUL OR SWAP1 SSTORE POP DUP1 DUP1 PUSH2 0xB9B SWAP1 PUSH2 0x198F JUMP JUMPDEST SWAP2 POP POP PUSH2 0xAEA JUMP JUMPDEST POP PUSH0 DUP3 SUB PUSH2 0xBFF JUMPI CALLER PUSH1 0x1 DUP4 PUSH1 0x3 DUP2 LT PUSH2 0xBC0 JUMPI PUSH2 0xBBF PUSH2 0x1795 JUMP JUMPDEST JUMPDEST ADD PUSH0 PUSH2 0x100 EXP DUP2 SLOAD DUP2 PUSH20 0xFFFFFFFFFFFFFFFFFFFFFFFFFFFFFFFFFFFFFFFF MUL NOT AND SWAP1 DUP4 PUSH20 0xFFFFFFFFFFFFFFFFFFFFFFFFFFFFFFFFFFFFFFFF AND MUL OR SWAP1 SSTORE POP JUMPDEST PUSH2 0xC62 JUMP JUMPDEST PUSH2 0x309 DUP3 EQ PUSH2 0xC61 JUMPI CALLER PUSH1 0x1 DUP4 PUSH1 0x3 DUP2 LT PUSH2 0xC22 JUMPI PUSH2 0xC21 PUSH2 0x1795 JUMP JUMPDEST JUMPDEST ADD PUSH0 PUSH2 0x100 EXP DUP2 SLOAD DUP2 PUSH20 0xFFFFFFFFFFFFFFFFFFFFFFFFFFFFFFFFFFFFFFFF MUL NOT AND SWAP1 DUP4 PUSH20 0xFFFFFFFFFFFFFFFFFFFFFFFFFFFFFFFFFFFFFFFF AND MUL OR SWAP1 SSTORE POP JUMPDEST JUMPDEST JUMPDEST DUP1 DUP1 PUSH2 0xC6E SWAP1 PUSH2 0x198F JUMP JUMPDEST SWAP2 POP POP PUSH2 0xA05 JUMP JUMPDEST POP PUSH2 0xEEB JUMP JUMPDEST PUSH0 PUSH1 0x3 SWAP1 POP JUMPDEST PUSH0 DUP2 GT ISZERO PUSH2 0xEE9 JUMPI PUSH0 DUP1 PUSH1 0x1 DUP1 DUP5 PUSH2 0xC9A SWAP2 SWAP1 PUSH2 0x195C JUMP JUMPDEST PUSH1 0x3 DUP2 LT PUSH2 0xCAB JUMPI PUSH2 0xCAA PUSH2 0x1795 JUMP JUMPDEST JUMPDEST ADD PUSH0 SWAP1 SLOAD SWAP1 PUSH2 0x100 EXP SWAP1 DIV PUSH20 0xFFFFFFFFFFFFFFFFFFFFFFFFFFFFFFFFFFFFFFFF AND PUSH20 0xFFFFFFFFFFFFFFFFFFFFFFFFFFFFFFFFFFFFFFFF AND PUSH20 0xFFFFFFFFFFFFFFFFFFFFFFFFFFFFFFFFFFFFFFFF AND DUP2 MSTORE PUSH1 0x20 ADD SWAP1 DUP2 MSTORE PUSH1 0x20 ADD PUSH0 KECCAK256 SLOAD PUSH0 DUP1 CALLER PUSH20 0xFFFFFFFFFFFFFFFFFFFFFFFFFFFFFFFFFFFFFFFF AND PUSH20 0xFFFFFFFFFFFFFFFFFFFFFFFFFFFFFFFFFFFFFFFF AND DUP2 MSTORE PUSH1 0x20 ADD SWAP1 DUP2 MSTORE PUSH1 0x20 ADD PUSH0 KECCAK256 SLOAD GT ISZERO PUSH2 0xE78 JUMPI PUSH1 0x1 DUP2 PUSH2 0xD56 SWAP2 SWAP1 PUSH2 0x195C JUMP JUMPDEST SWAP2 POP PUSH0 PUSH1 0x2 SWAP1 POP JUMPDEST PUSH1 0x1 DUP3 PUSH2 0xD6B SWAP2 SWAP1 PUSH2 0x195C JUMP JUMPDEST DUP2 GT ISZERO PUSH2 0xE17 JUMPI PUSH1 0x1 DUP1 DUP3 PUSH2 0xD80 SWAP2 SWAP1 PUSH2 0x195C JUMP JUMPDEST PUSH1 0x3 DUP2 LT PUSH2 0xD91 JUMPI PUSH2 0xD90 PUSH2 0x1795 JUMP JUMPDEST JUMPDEST ADD PUSH0 SWAP1 SLOAD SWAP1 PUSH2 0x100 EXP SWAP1 DIV PUSH20 0xFFFFFFFFFFFFFFFFFFFFFFFFFFFFFFFFFFFFFFFF AND PUSH1 0x1 DUP3 PUSH1 0x3 DUP2 LT PUSH2 0xDC6 JUMPI PUSH2 0xDC5 PUSH2 0x1795 JUMP JUMPDEST JUMPDEST ADD PUSH0 PUSH2 0x100 EXP DUP2 SLOAD DUP2 PUSH20 0xFFFFFFFFFFFFFFFFFFFFFFFFFFFFFFFFFFFFFFFF MUL NOT AND SWAP1 DUP4 PUSH20 0xFFFFFFFFFFFFFFFFFFFFFFFFFFFFFFFFFFFFFFFF AND MUL OR SWAP1 SSTORE POP DUP1 DUP1 PUSH2 0xE0F SWAP1 PUSH2 0x198F JUMP JUMPDEST SWAP2 POP POP PUSH2 0xD5E JUMP JUMPDEST POP PUSH0 DUP3 SUB PUSH2 0xE73 JUMPI CALLER PUSH1 0x1 DUP4 PUSH1 0x3 DUP2 LT PUSH2 0xE34 JUMPI PUSH2 0xE33 PUSH2 0x1795 JUMP JUMPDEST JUMPDEST ADD PUSH0 PUSH2 0x100 EXP DUP2 SLOAD DUP2 PUSH20 0xFFFFFFFFFFFFFFFFFFFFFFFFFFFFFFFFFFFFFFFF MUL NOT AND SWAP1 DUP4 PUSH20 0xFFFFFFFFFFFFFFFFFFFFFFFFFFFFFFFFFFFFFFFF AND MUL OR SWAP1 SSTORE POP JUMPDEST PUSH2 0xED6 JUMP JUMPDEST PUSH2 0x309 DUP3 EQ PUSH2 0xED5 JUMPI CALLER PUSH1 0x1 DUP4 PUSH1 0x3 DUP2 LT PUSH2 0xE96 JUMPI PUSH2 0xE95 PUSH2 0x1795 JUMP JUMPDEST JUMPDEST ADD PUSH0 PUSH2 0x100 EXP DUP2 SLOAD DUP2 PUSH20 0xFFFFFFFFFFFFFFFFFFFFFFFFFFFFFFFFFFFFFFFF MUL NOT AND SWAP1 DUP4 PUSH20 0xFFFFFFFFFFFFFFFFFFFFFFFFFFFFFFFFFFFFFFFF AND MUL OR SWAP1 SSTORE POP JUMPDEST JUMPDEST DUP1 DUP1 PUSH2 0xEE1 SWAP1 PUSH2 0x198F JUMP JUMPDEST SWAP2 POP POP PUSH2 0xC82 JUMP JUMPDEST POP JUMPDEST POP POP POP JUMP JUMPDEST PUSH0 PUSH2 0xEF9 PUSH2 0x14B9 JUMP JUMPDEST SWAP1 POP PUSH0 DUP1 PUSH2 0x309 SWAP1 POP PUSH2 0x3E7 DUP4 EQ PUSH2 0x11A5 JUMPI PUSH1 0x4 DUP4 PUSH2 0xF18 SWAP2 SWAP1 PUSH2 0x1762 JUMP JUMPDEST SWAP2 POP PUSH0 PUSH1 0x3 DUP4 PUSH2 0xF28 SWAP2 SWAP1 PUSH2 0x195C JUMP JUMPDEST SWAP1 POP JUMPDEST PUSH1 0x1 DUP2 GT ISZERO PUSH2 0x119F JUMPI PUSH0 DUP5 EQ PUSH2 0x118C JUMPI PUSH1 0x5 PUSH0 PUSH1 0x6 PUSH1 0x2 DUP5 PUSH2 0xF4D SWAP2 SWAP1 PUSH2 0x195C JUMP JUMPDEST PUSH1 0x3 DUP2 LT PUSH2 0xF5E JUMPI PUSH2 0xF5D PUSH2 0x1795 JUMP JUMPDEST JUMPDEST ADD PUSH0 SWAP1 SLOAD SWAP1 PUSH2 0x100 EXP SWAP1 DIV PUSH20 0xFFFFFFFFFFFFFFFFFFFFFFFFFFFFFFFFFFFFFFFF AND PUSH20 0xFFFFFFFFFFFFFFFFFFFFFFFFFFFFFFFFFFFFFFFF AND PUSH20 0xFFFFFFFFFFFFFFFFFFFFFFFFFFFFFFFFFFFFFFFF AND DUP2 MSTORE PUSH1 0x20 ADD SWAP1 DUP2 MSTORE PUSH1 0x20 ADD PUSH0 KECCAK256 SLOAD PUSH1 0x5 PUSH0 CALLER PUSH20 0xFFFFFFFFFFFFFFFFFFFFFFFFFFFFFFFFFFFFFFFF AND PUSH20 0xFFFFFFFFFFFFFFFFFFFFFFFFFFFFFFFFFFFFFFFF AND DUP2 MSTORE PUSH1 0x20 ADD SWAP1 DUP2 MSTORE PUSH1 0x20 ADD PUSH0 KECCAK256 SLOAD GT ISZERO PUSH2 0x112D JUMPI PUSH1 0x2 DUP2 PUSH2 0x100A SWAP2 SWAP1 PUSH2 0x195C JUMP JUMPDEST SWAP2 POP PUSH0 PUSH1 0x2 SWAP1 POP JUMPDEST PUSH1 0x2 DUP3 PUSH2 0x101F SWAP2 SWAP1 PUSH2 0x195C JUMP JUMPDEST DUP2 GT ISZERO PUSH2 0x10CC JUMPI PUSH1 0x6 PUSH1 0x1 DUP3 PUSH2 0x1035 SWAP2 SWAP1 PUSH2 0x195C JUMP JUMPDEST PUSH1 0x3 DUP2 LT PUSH2 0x1046 JUMPI PUSH2 0x1045 PUSH2 0x1795 JUMP JUMPDEST JUMPDEST ADD PUSH0 SWAP1 SLOAD SWAP1 PUSH2 0x100 EXP SWAP1 DIV PUSH20 0xFFFFFFFFFFFFFFFFFFFFFFFFFFFFFFFFFFFFFFFF AND PUSH1 0x6 DUP3 PUSH1 0x3 DUP2 LT PUSH2 0x107B JUMPI PUSH2 0x107A PUSH2 0x1795 JUMP JUMPDEST JUMPDEST ADD PUSH0 PUSH2 0x100 EXP DUP2 SLOAD DUP2 PUSH20 0xFFFFFFFFFFFFFFFFFFFFFFFFFFFFFFFFFFFFFFFF MUL NOT AND SWAP1 DUP4 PUSH20 0xFFFFFFFFFFFFFFFFFFFFFFFFFFFFFFFFFFFFFFFF AND MUL OR SWAP1 SSTORE POP DUP1 DUP1 PUSH2 0x10C4 SWAP1 PUSH2 0x198F JUMP JUMPDEST SWAP2 POP POP PUSH2 0x1012 JUMP JUMPDEST POP PUSH0 DUP3 SUB PUSH2 0x1128 JUMPI CALLER PUSH1 0x6 DUP4 PUSH1 0x3 DUP2 LT PUSH2 0x10E9 JUMPI PUSH2 0x10E8 PUSH2 0x1795 JUMP JUMPDEST JUMPDEST ADD PUSH0 PUSH2 0x100 EXP DUP2 SLOAD DUP2 PUSH20 0xFFFFFFFFFFFFFFFFFFFFFFFFFFFFFFFFFFFFFFFF MUL NOT AND SWAP1 DUP4 PUSH20 0xFFFFFFFFFFFFFFFFFFFFFFFFFFFFFFFFFFFFFFFF AND MUL OR SWAP1 SSTORE POP JUMPDEST PUSH2 0x118B JUMP JUMPDEST PUSH2 0x309 DUP3 EQ PUSH2 0x118A JUMPI CALLER PUSH1 0x6 DUP4 PUSH1 0x3 DUP2 LT PUSH2 0x114B JUMPI PUSH2 0x114A PUSH2 0x1795 JUMP JUMPDEST JUMPDEST ADD PUSH0 PUSH2 0x100 EXP DUP2 SLOAD DUP2 PUSH20 0xFFFFFFFFFFFFFFFFFFFFFFFFFFFFFFFFFFFFFFFF MUL NOT AND SWAP1 DUP4 PUSH20 0xFFFFFFFFFFFFFFFFFFFFFFFFFFFFFFFFFFFFFFFF AND MUL OR SWAP1 SSTORE POP JUMPDEST JUMPDEST JUMPDEST DUP1 DUP1 PUSH2 0x1197 SWAP1 PUSH2 0x198F JUMP JUMPDEST SWAP2 POP POP PUSH2 0xF2B JUMP JUMPDEST POP PUSH2 0x1418 JUMP JUMPDEST PUSH0 PUSH1 0x3 SWAP1 POP JUMPDEST PUSH0 DUP2 GT ISZERO PUSH2 0x1416 JUMPI PUSH1 0x5 PUSH0 PUSH1 0x6 PUSH1 0x1 DUP5 PUSH2 0x11C5 SWAP2 SWAP1 PUSH2 0x195C JUMP JUMPDEST PUSH1 0x3 DUP2 LT PUSH2 0x11D6 JUMPI PUSH2 0x11D5 PUSH2 0x1795 JUMP JUMPDEST JUMPDEST ADD PUSH0 SWAP1 SLOAD SWAP1 PUSH2 0x100 EXP SWAP1 DIV PUSH20 0xFFFFFFFFFFFFFFFFFFFFFFFFFFFFFFFFFFFFFFFF AND PUSH20 0xFFFFFFFFFFFFFFFFFFFFFFFFFFFFFFFFFFFFFFFF AND PUSH20 0xFFFFFFFFFFFFFFFFFFFFFFFFFFFFFFFFFFFFFFFF AND DUP2 MSTORE PUSH1 0x20 ADD SWAP1 DUP2 MSTORE PUSH1 0x20 ADD PUSH0 KECCAK256 SLOAD PUSH1 0x5 PUSH0 CALLER PUSH20 0xFFFFFFFFFFFFFFFFFFFFFFFFFFFFFFFFFFFFFFFF AND PUSH20 0xFFFFFFFFFFFFFFFFFFFFFFFFFFFFFFFFFFFFFFFF AND DUP2 MSTORE PUSH1 0x20 ADD SWAP1 DUP2 MSTORE PUSH1 0x20 ADD PUSH0 KECCAK256 SLOAD GT ISZERO PUSH2 0x13A5 JUMPI PUSH1 0x1 DUP2 PUSH2 0x1282 SWAP2 SWAP1 PUSH2 0x195C JUMP JUMPDEST SWAP2 POP PUSH0 PUSH1 0x2 SWAP1 POP JUMPDEST PUSH1 0x1 DUP3 PUSH2 0x1297 SWAP2 SWAP1 PUSH2 0x195C JUMP JUMPDEST DUP2 GT ISZERO PUSH2 0x1344 JUMPI PUSH1 0x6 PUSH1 0x1 DUP3 PUSH2 0x12AD SWAP2 SWAP1 PUSH2 0x195C JUMP JUMPDEST PUSH1 0x3 DUP2 LT PUSH2 0x12BE JUMPI PUSH2 0x12BD PUSH2 0x1795 JUMP JUMPDEST JUMPDEST ADD PUSH0 SWAP1 SLOAD SWAP1 PUSH2 0x100 EXP SWAP1 DIV PUSH20 0xFFFFFFFFFFFFFFFFFFFFFFFFFFFFFFFFFFFFFFFF AND PUSH1 0x6 DUP3 PUSH1 0x3 DUP2 LT PUSH2 0x12F3 JUMPI PUSH2 0x12F2 PUSH2 0x1795 JUMP JUMPDEST JUMPDEST ADD PUSH0 PUSH2 0x100 EXP DUP2 SLOAD DUP2 PUSH20 0xFFFFFFFFFFFFFFFFFFFFFFFFFFFFFFFFFFFFFFFF MUL NOT AND SWAP1 DUP4 PUSH20 0xFFFFFFFFFFFFFFFFFFFFFFFFFFFFFFFFFFFFFFFF AND MUL OR SWAP1 SSTORE POP DUP1 DUP1 PUSH2 0x133C SWAP1 PUSH2 0x198F JUMP JUMPDEST SWAP2 POP POP PUSH2 0x128A JUMP JUMPDEST POP PUSH0 DUP3 SUB PUSH2 0x13A0 JUMPI CALLER PUSH1 0x6 DUP4 PUSH1 0x3 DUP2 LT PUSH2 0x1361 JUMPI PUSH2 0x1360 PUSH2 0x1795 JUMP JUMPDEST JUMPDEST ADD PUSH0 PUSH2 0x100 EXP DUP2 SLOAD DUP2 PUSH20 0xFFFFFFFFFFFFFFFFFFFFFFFFFFFFFFFFFFFFFFFF MUL NOT AND SWAP1 DUP4 PUSH20 0xFFFFFFFFFFFFFFFFFFFFFFFFFFFFFFFFFFFFFFFF AND MUL OR SWAP1 SSTORE POP JUMPDEST PUSH2 0x1403 JUMP JUMPDEST PUSH2 0x309 DUP3 EQ PUSH2 0x1402 JUMPI CALLER PUSH1 0x6 DUP4 PUSH1 0x3 DUP2 LT PUSH2 0x13C3 JUMPI PUSH2 0x13C2 PUSH2 0x1795 JUMP JUMPDEST JUMPDEST ADD PUSH0 PUSH2 0x100 EXP DUP2 SLOAD DUP2 PUSH20 0xFFFFFFFFFFFFFFFFFFFFFFFFFFFFFFFFFFFFFFFF MUL NOT AND SWAP1 DUP4 PUSH20 0xFFFFFFFFFFFFFFFFFFFFFFFFFFFFFFFFFFFFFFFF AND MUL OR SWAP1 SSTORE POP JUMPDEST JUMPDEST DUP1 DUP1 PUSH2 0x140E SWAP1 PUSH2 0x198F JUMP JUMPDEST SWAP2 POP POP PUSH2 0x11AB JUMP JUMPDEST POP JUMPDEST POP POP POP JUMP JUMPDEST PUSH0 DUP1 PUSH2 0x3E7 SWAP1 POP PUSH0 JUMPDEST PUSH1 0x3 DUP2 LT ISZERO PUSH2 0x14B1 JUMPI CALLER PUSH20 0xFFFFFFFFFFFFFFFFFFFFFFFFFFFFFFFFFFFFFFFF AND PUSH1 0x1 DUP3 PUSH1 0x3 DUP2 LT PUSH2 0x145A JUMPI PUSH2 0x1459 PUSH2 0x1795 JUMP JUMPDEST JUMPDEST ADD PUSH0 SWAP1 SLOAD SWAP1 PUSH2 0x100 EXP SWAP1 DIV PUSH20 0xFFFFFFFFFFFFFFFFFFFFFFFFFFFFFFFFFFFFFFFF AND PUSH20 0xFFFFFFFFFFFFFFFFFFFFFFFFFFFFFFFFFFFFFFFF AND SUB PUSH2 0x149E JUMPI DUP1 SWAP2 POP PUSH2 0x14B1 JUMP JUMPDEST DUP1 DUP1 PUSH2 0x14A9 SWAP1 PUSH2 0x19B6 JUMP JUMPDEST SWAP2 POP POP PUSH2 0x1426 JUMP JUMPDEST POP DUP1 SWAP2 POP POP SWAP1 JUMP JUMPDEST PUSH0 DUP1 PUSH2 0x3E7 SWAP1 POP PUSH0 JUMPDEST PUSH1 0x3 DUP2 LT ISZERO PUSH2 0x154D JUMPI CALLER PUSH20 0xFFFFFFFFFFFFFFFFFFFFFFFFFFFFFFFFFFFFFFFF AND PUSH1 0x6 DUP3 PUSH1 0x3 DUP2 LT PUSH2 0x14F6 JUMPI PUSH2 0x14F5 PUSH2 0x1795 JUMP JUMPDEST JUMPDEST ADD PUSH0 SWAP1 SLOAD SWAP1 PUSH2 0x100 EXP SWAP1 DIV PUSH20 0xFFFFFFFFFFFFFFFFFFFFFFFFFFFFFFFFFFFFFFFF AND PUSH20 0xFFFFFFFFFFFFFFFFFFFFFFFFFFFFFFFFFFFFFFFF AND SUB PUSH2 0x153A JUMPI DUP1 SWAP2 POP PUSH2 0x154D JUMP JUMPDEST DUP1 DUP1 PUSH2 0x1545 SWAP1 PUSH2 0x19B6 JUMP JUMPDEST SWAP2 POP POP PUSH2 0x14C2 JUMP JUMPDEST POP DUP1 SWAP2 POP POP SWAP1 JUMP JUMPDEST PUSH0 PUSH20 0xFFFFFFFFFFFFFFFFFFFFFFFFFFFFFFFFFFFFFFFF DUP3 AND SWAP1 POP SWAP2 SWAP1 POP JUMP JUMPDEST PUSH0 PUSH2 0x157E DUP3 PUSH2 0x1555 JUMP JUMPDEST SWAP1 POP SWAP2 SWAP1 POP JUMP JUMPDEST PUSH2 0x158E DUP2 PUSH2 0x1574 JUMP JUMPDEST DUP3 MSTORE POP POP JUMP JUMPDEST PUSH0 PUSH1 0x60 DUP3 ADD SWAP1 POP PUSH2 0x15A7 PUSH0 DUP4 ADD DUP7 PUSH2 0x1585 JUMP JUMPDEST PUSH2 0x15B4 PUSH1 0x20 DUP4 ADD DUP6 PUSH2 0x1585 JUMP JUMPDEST PUSH2 0x15C1 PUSH1 0x40 DUP4 ADD DUP5 PUSH2 0x1585 JUMP JUMPDEST SWAP5 SWAP4 POP POP POP POP JUMP JUMPDEST PUSH0 DUP1 REVERT JUMPDEST PUSH2 0x15D6 DUP2 PUSH2 0x1574 JUMP JUMPDEST DUP2 EQ PUSH2 0x15E0 JUMPI PUSH0 DUP1 REVERT JUMPDEST POP JUMP JUMPDEST PUSH0 DUP2 CALLDATALOAD SWAP1 POP PUSH2 0x15F1 DUP2 PUSH2 0x15CD JUMP JUMPDEST SWAP3 SWAP2 POP POP JUMP JUMPDEST PUSH0 PUSH1 0x20 DUP3 DUP5 SUB SLT ISZERO PUSH2 0x160C JUMPI PUSH2 0x160B PUSH2 0x15C9 JUMP JUMPDEST JUMPDEST PUSH0 PUSH2 0x1619 DUP5 DUP3 DUP6 ADD PUSH2 0x15E3 JUMP JUMPDEST SWAP2 POP POP SWAP3 SWAP2 POP POP JUMP JUMPDEST PUSH0 DUP2 SWAP1 POP SWAP2 SWAP1 POP JUMP JUMPDEST PUSH2 0x1634 DUP2 PUSH2 0x1622 JUMP JUMPDEST DUP3 MSTORE POP POP JUMP JUMPDEST PUSH0 PUSH1 0x20 DUP3 ADD SWAP1 POP PUSH2 0x164D PUSH0 DUP4 ADD DUP5 PUSH2 0x162B JUMP JUMPDEST SWAP3 SWAP2 POP POP JUMP JUMPDEST PUSH0 PUSH1 0x20 DUP3 ADD SWAP1 POP PUSH2 0x1666 PUSH0 DUP4 ADD DUP5 PUSH2 0x1585 JUMP JUMPDEST SWAP3 SWAP2 POP POP JUMP JUMPDEST PUSH2 0x1675 DUP2 PUSH2 0x1622 JUMP JUMPDEST DUP2 EQ PUSH2 0x167F JUMPI PUSH0 DUP1 REVERT JUMPDEST POP JUMP JUMPDEST PUSH0 DUP2 CALLDATALOAD SWAP1 POP PUSH2 0x1690 DUP2 PUSH2 0x166C JUMP JUMPDEST SWAP3 SWAP2 POP POP JUMP JUMPDEST PUSH0 PUSH1 0x20 DUP3 DUP5 SUB SLT ISZERO PUSH2 0x16AB JUMPI PUSH2 0x16AA PUSH2 0x15C9 JUMP JUMPDEST JUMPDEST PUSH0 PUSH2 0x16B8 DUP5 DUP3 DUP6 ADD PUSH2 0x1682 JUMP JUMPDEST SWAP2 POP POP SWAP3 SWAP2 POP POP JUMP JUMPDEST PUSH0 DUP2 SWAP1 POP SWAP2 SWAP1 POP JUMP JUMPDEST PUSH0 PUSH2 0x16E4 PUSH2 0x16DF PUSH2 0x16DA DUP5 PUSH2 0x1555 JUMP JUMPDEST PUSH2 0x16C1 JUMP JUMPDEST PUSH2 0x1555 JUMP JUMPDEST SWAP1 POP SWAP2 SWAP1 POP JUMP JUMPDEST PUSH0 PUSH2 0x16F5 DUP3 PUSH2 0x16CA JUMP JUMPDEST SWAP1 POP SWAP2 SWAP1 POP JUMP JUMPDEST PUSH0 PUSH2 0x1706 DUP3 PUSH2 0x16EB JUMP JUMPDEST SWAP1 POP SWAP2 SWAP1 POP JUMP JUMPDEST PUSH2 0x1716 DUP2 PUSH2 0x16FC JUMP JUMPDEST DUP3 MSTORE POP POP JUMP JUMPDEST PUSH0 PUSH1 0x20 DUP3 ADD SWAP1 POP PUSH2 0x172F PUSH0 DUP4 ADD DUP5 PUSH2 0x170D JUMP JUMPDEST SWAP3 SWAP2 POP POP JUMP JUMPDEST PUSH32 0x4E487B7100000000000000000000000000000000000000000000000000000000 PUSH0 MSTORE PUSH1 0x11 PUSH1 0x4 MSTORE PUSH1 0x24 PUSH0 REVERT JUMPDEST PUSH0 PUSH2 0x176C DUP3 PUSH2 0x1622 JUMP JUMPDEST SWAP2 POP PUSH2 0x1777 DUP4 PUSH2 0x1622 JUMP JUMPDEST SWAP3 POP DUP3 DUP3 ADD SWAP1 POP DUP1 DUP3 GT ISZERO PUSH2 0x178F JUMPI PUSH2 0x178E PUSH2 0x1735 JUMP JUMPDEST JUMPDEST SWAP3 SWAP2 POP POP JUMP JUMPDEST PUSH32 0x4E487B7100000000000000000000000000000000000000000000000000000000 PUSH0 MSTORE PUSH1 0x32 PUSH1 0x4 MSTORE PUSH1 0x24 PUSH0 REVERT JUMPDEST PUSH0 PUSH1 0x60 DUP3 ADD SWAP1 POP PUSH2 0x17D5 PUSH0 DUP4 ADD DUP7 PUSH2 0x1585 JUMP JUMPDEST PUSH2 0x17E2 PUSH1 0x20 DUP4 ADD DUP6 PUSH2 0x1585 JUMP JUMPDEST PUSH2 0x17EF PUSH1 0x40 DUP4 ADD DUP5 PUSH2 0x162B JUMP JUMPDEST SWAP5 SWAP4 POP POP POP POP JUMP JUMPDEST PUSH0 DUP2 ISZERO ISZERO SWAP1 POP SWAP2 SWAP1 POP JUMP JUMPDEST PUSH2 0x180B DUP2 PUSH2 0x17F7 JUMP JUMPDEST DUP2 EQ PUSH2 0x1815 JUMPI PUSH0 DUP1 REVERT JUMPDEST POP JUMP JUMPDEST PUSH0 DUP2 MLOAD SWAP1 POP PUSH2 0x1826 DUP2 PUSH2 0x1802 JUMP JUMPDEST SWAP3 SWAP2 POP POP JUMP JUMPDEST PUSH0 PUSH1 0x20 DUP3 DUP5 SUB SLT ISZERO PUSH2 0x1841 JUMPI PUSH2 0x1840 PUSH2 0x15C9 JUMP JUMPDEST JUMPDEST PUSH0 PUSH2 0x184E DUP5 DUP3 DUP6 ADD PUSH2 0x1818 JUMP JUMPDEST SWAP2 POP POP SWAP3 SWAP2 POP POP JUMP JUMPDEST PUSH0 DUP2 MLOAD SWAP1 POP PUSH2 0x1865 DUP2 PUSH2 0x166C JUMP JUMPDEST SWAP3 SWAP2 POP POP JUMP JUMPDEST PUSH0 PUSH1 0x20 DUP3 DUP5 SUB SLT ISZERO PUSH2 0x1880 JUMPI PUSH2 0x187F PUSH2 0x15C9 JUMP JUMPDEST JUMPDEST PUSH0 PUSH2 0x188D DUP5 DUP3 DUP6 ADD PUSH2 0x1857 JUMP JUMPDEST SWAP2 POP POP SWAP3 SWAP2 POP POP JUMP JUMPDEST PUSH0 PUSH1 0x40 DUP3 ADD SWAP1 POP PUSH2 0x18A9 PUSH0 DUP4 ADD DUP6 PUSH2 0x162B JUMP JUMPDEST PUSH2 0x18B6 PUSH1 0x20 DUP4 ADD DUP5 PUSH2 0x162B JUMP JUMPDEST SWAP4 SWAP3 POP POP POP JUMP JUMPDEST PUSH0 DUP3 DUP3 MSTORE PUSH1 0x20 DUP3 ADD SWAP1 POP SWAP3 SWAP2 POP POP JUMP JUMPDEST PUSH32 0x4F6E6C79206F776E65722063616E2063616C6C00000000000000000000000000 PUSH0 DUP3 ADD MSTORE POP JUMP JUMPDEST PUSH0 PUSH2 0x1901 PUSH1 0x13 DUP4 PUSH2 0x18BD JUMP JUMPDEST SWAP2 POP PUSH2 0x190C DUP3 PUSH2 0x18CD JUMP JUMPDEST PUSH1 0x20 DUP3 ADD SWAP1 POP SWAP2 SWAP1 POP JUMP JUMPDEST PUSH0 PUSH1 0x20 DUP3 ADD SWAP1 POP DUP2 DUP2 SUB PUSH0 DUP4 ADD MSTORE PUSH2 0x192E DUP2 PUSH2 0x18F5 JUMP JUMPDEST SWAP1 POP SWAP2 SWAP1 POP JUMP JUMPDEST PUSH0 PUSH1 0x40 DUP3 ADD SWAP1 POP PUSH2 0x1948 PUSH0 DUP4 ADD DUP6 PUSH2 0x1585 JUMP JUMPDEST PUSH2 0x1955 PUSH1 0x20 DUP4 ADD DUP5 PUSH2 0x162B JUMP JUMPDEST SWAP4 SWAP3 POP POP POP JUMP JUMPDEST PUSH0 PUSH2 0x1966 DUP3 PUSH2 0x1622 JUMP JUMPDEST SWAP2 POP PUSH2 0x1971 DUP4 PUSH2 0x1622 JUMP JUMPDEST SWAP3 POP DUP3 DUP3 SUB SWAP1 POP DUP2 DUP2 GT ISZERO PUSH2 0x1989 JUMPI PUSH2 0x1988 PUSH2 0x1735 JUMP JUMPDEST JUMPDEST SWAP3 SWAP2 POP POP JUMP JUMPDEST PUSH0 PUSH2 0x1999 DUP3 PUSH2 0x1622 JUMP JUMPDEST SWAP2 POP PUSH0 DUP3 SUB PUSH2 0x19AB JUMPI PUSH2 0x19AA PUSH2 0x1735 JUMP JUMPDEST JUMPDEST PUSH1 0x1 DUP3 SUB SWAP1 POP SWAP2 SWAP1 POP JUMP JUMPDEST PUSH0 PUSH2 0x19C0 DUP3 PUSH2 0x1622 JUMP JUMPDEST SWAP2 POP PUSH32 0xFFFFFFFFFFFFFFFFFFFFFFFFFFFFFFFFFFFFFFFFFFFFFFFFFFFFFFFFFFFFFFFF DUP3 SUB PUSH2 0x19F2 JUMPI PUSH2 0x19F1 PUSH2 0x1735 JUMP JUMPDEST JUMPDEST PUSH1 0x1 DUP3 ADD SWAP1 POP SWAP2 SWAP1 POP JUMP INVALID LOG2 PUSH5 0x6970667358 0x22 SLT KECCAK256 0xBE SWAP5 SMOD 0x29 0xCC 0x4B INVALID 0xF7 PUSH23 0x84747579CFAC63F676F5EA21CC13A0EC46A36CAA4229D9 PUSH5 0x736F6C6343 STOP ADDMOD ISZERO STOP CALLER "
				},
				"gasEstimates": {
					"creation": {
						"codeDepositCost": "1341400",
						"executionCost": "infinite",
						"totalCost": "infinite"
					},
					"external": {
						"IGTT()": "infinite",
						"depositETH()": "infinite",
						"depositToken(uint256)": "infinite",
						"getETHBalance(address)": "2874",
						"getETHTopThreeAccount()": "infinite",
						"getTokenBalance(address)": "2852",
						"getTokenTopThreeAccount()": "infinite",
						"owner()": "2508",
						"tokenAddr()": "2575",
						"withdrawETH()": "infinite",
						"withdrawToken()": "infinite"
					},
					"internal": {
						"_checkTokenRankMembership()": "infinite",
						"_handleRankWhenDepositToken()": "infinite"
					}
				},
				"methodIdentifiers": {
					"IGTT()": "ff2c034e",
					"depositETH()": "f6326fb3",
					"depositToken(uint256)": "6215be77",
					"getETHBalance(address)": "3bb66a7b",
					"getETHTopThreeAccount()": "2b7e8faf",
					"getTokenBalance(address)": "3aecd0e3",
					"getTokenTopThreeAccount()": "b254b80a",
					"owner()": "8da5cb5b",
					"tokenAddr()": "5fbe4d1d",
					"withdrawETH()": "e086e5ec",
					"withdrawToken()": "ca628c78"
				}
			},
			"storageLayout": {
				"storage": [
					{
						"astId": 5,
						"contract": "04-Camps/08-UpChain_Camp_3_OpenSpace/0112_ERC20TokenBank/contracts/TokenBank.sol:TokenBank",
						"label": "ETHBalance",
						"offset": 0,
						"slot": "0",
						"type": "t_mapping(t_address,t_uint256)"
					},
					{
						"astId": 9,
						"contract": "04-Camps/08-UpChain_Camp_3_OpenSpace/0112_ERC20TokenBank/contracts/TokenBank.sol:TokenBank",
						"label": "rank",
						"offset": 0,
						"slot": "1",
						"type": "t_array(t_address)3_storage"
					},
					{
						"astId": 11,
						"contract": "04-Camps/08-UpChain_Camp_3_OpenSpace/0112_ERC20TokenBank/contracts/TokenBank.sol:TokenBank",
						"label": "owner",
						"offset": 0,
						"slot": "4",
						"type": "t_address"
					},
					{
						"astId": 377,
						"contract": "04-Camps/08-UpChain_Camp_3_OpenSpace/0112_ERC20TokenBank/contracts/TokenBank.sol:TokenBank",
						"label": "tokenBalance",
						"offset": 0,
						"slot": "5",
						"type": "t_mapping(t_address,t_uint256)"
					},
					{
						"astId": 381,
						"contract": "04-Camps/08-UpChain_Camp_3_OpenSpace/0112_ERC20TokenBank/contracts/TokenBank.sol:TokenBank",
						"label": "tokenRank",
						"offset": 0,
						"slot": "6",
						"type": "t_array(t_address)3_storage"
					},
					{
						"astId": 383,
						"contract": "04-Camps/08-UpChain_Camp_3_OpenSpace/0112_ERC20TokenBank/contracts/TokenBank.sol:TokenBank",
						"label": "tokenAddr",
						"offset": 0,
						"slot": "9",
						"type": "t_address"
					},
					{
						"astId": 386,
						"contract": "04-Camps/08-UpChain_Camp_3_OpenSpace/0112_ERC20TokenBank/contracts/TokenBank.sol:TokenBank",
						"label": "IGTT",
						"offset": 0,
						"slot": "10",
						"type": "t_contract(IERC20TokenGTT)371"
					}
				],
				"types": {
					"t_address": {
						"encoding": "inplace",
						"label": "address",
						"numberOfBytes": "20"
					},
					"t_array(t_address)3_storage": {
						"base": "t_address",
						"encoding": "inplace",
						"label": "address[3]",
						"numberOfBytes": "96"
					},
					"t_contract(IERC20TokenGTT)371": {
						"encoding": "inplace",
						"label": "contract IERC20TokenGTT",
						"numberOfBytes": "20"
					},
					"t_mapping(t_address,t_uint256)": {
						"encoding": "mapping",
						"key": "t_address",
						"label": "mapping(address => uint256)",
						"numberOfBytes": "32",
						"value": "t_uint256"
					},
					"t_uint256": {
						"encoding": "inplace",
						"label": "uint256",
						"numberOfBytes": "32"
					}
				}
			},
			"userdoc": {
				"kind": "user",
				"methods": {},
				"version": 1
			}
		}
	}
}